S010000053455034456D62642E7372656380
S11300004AC2000069C2000067C2000065C2000065
S113001063C2000061C200005FC200005DC2000054
S11300205BC2000059C2000057C2000055C2000064
S11300300C94800A51C200004FC200004DC200005F
S11300404BC2000049C2000047C2000045C2000084
S113005043C2000041C200003FC200003DC2000094
S11300603BC200000C9478250C94CA2535C20000CC
S113007033C2000031C200002FC200002DC20000B4
S11300802BC2000029C2000027C2000025C20000C4
S11300900C940E260C9460261FC200000C94F828C1
S11300A01BC2000019C2000017C2000015C20000E4
S11300B013C2000011C200000FC200000DC20000F4
S11300C00BC2000009C2000007C200000C94A42661
S11300D00C94F62601C200000C943A270C948C2749
S11300E0FBC10000C101C101C101FB0103021902EE
S11300F0C101C101FB0103021A298A298A298A291B
S11301008A298A298A298A291A298A298A298A29C3
S11301108A298A298A298A291C298A298A298A29B1
S11301208A298A298A298A298A298A298A298A2933
S11301308A298A298A298A291C298A298A298A2991
S11301408A298A298A298A298A298A298A298A2913
S11301508A298A298A298A2986298A298A298A2907
S11301608A298A298A298A2951298A298A298A292C
S11301708A298A298A298A298A298A298A298A29E3
S11301808A298A298A298A2945298A298A298A2918
S11301908A298A298A298A2969290EE71AE10F2ED0
S11301A0FEEAEF2EFAE1FF2EF02D80917D1A8823CE
S11301B011F10FB6F8940F92D8011796ED91FC91B6
S11301C01897C085D185CE010296FFD78091711A08
S11301D081508093711A80917D1A815080937D1A89
S11301E00F900FBE8B8D9C8D4CD7CE014AD780913A
S11301F07D1A8111DECFF7018081823010F00E94D8
S1130200BA090E94421BD1CFCF93DF93CDB7DEB79B
S113021060970FB6F894DEBF0FBECDBFCE01019636
S11302209A878987812C912CA12CB12C69847A849A
S1130230E091E61AF091E71A8081882309F411C14C
S11302400780F085E02D20803180428053800E9419
S11302501A13CE0101960E94AC1A6B877C878D8796
S11302609E878981811166C08B859C85AD85BE85FD
S113027082159305A405B50508F444C00E9403142F
S1130280E091E61AF091E71A0780F085E02DA08549
S1130290B185B88BAF87CD01029697D7EF85F889E2
S11302A0878982FF21C04685578560897189420DFF
S11302B0531D641D751D720161010B851C852D85FF
S11302C03E85CF010E94BB19882399F0C82CD92CF4
S11302D0EA2CFB2C00E010E0A201910160E08F8584
S11302E098890E944E1A05C08E7FAF85B8895796AB
S11302F08C93AF85B8895496ED91FC915597CD01B7
S11303001995A0C020E0B201A1018B859C85AD8523
S1130310BE85481B590B6A0B7B0B8091E21A9091A6
S1130320E31A0E941E0E0E94031481118BC00E94C6
S1130330BA0988C00E94031485C0898188230CF4FB
S113034081C04E805F80D2011C968D919C911D9737
S1130350892B19F0C201029638D7CE0108960E9463
S1130360AC1A8B019C01E9810E2E000CFF0BEA30C4
S1130370F10508F067C08827EE58FF4F8F4F0C94A3
S1130380DD2BF20187898160878BCA80DB80EC805A
S1130390FD8046855785608971894C0D5D1D6E1DF4
S11303A07F1DC2010E94BB19882309F44BC0D201EE
S11303B05496ED91FC915597C2011995F2018789E4
S11303C082FF40C04A815B816C817D8186859785EF
S11303D0A089B1899A01AB01280F391F4A1F5B1FFD
S11303E0C82CD92CEA2CFB2C00E010E060E0C20100
S11303F00E944E1A27C0D20157968C9157978E7F30
S113040057968C931FC0F20187898160878B4A813C
S11304105B816C817D8146875787608B718B400F30
S1130420511F621F731F68017901C2010E94BB1929
S113043009C0F201878981FD03C0C20122D602C02E
S11304408E7F878B282D392D4A2D5B2D662D772D98
S11304508091E21A9091E31A0E94B80C81116DCF39
S1130460E7CE0E941A13CE0101960E94AC1A6B8744
S11304707C878D879E87898181115CCFE091E41A06
S1130480F091E51A808121E0811120E0282C392C9B
S11304904A2C5B2C38CF11241FBECFEFD1E2DEBF34
S11304A0CDBF00E00CBF1AE0A0E0B2E0E6E4F1E664
S11304B000E00BBF02C007900D92A833B107D9F733
S11304C02CE1A8E3BAE001C01D92AE37B207E1F710
S11304D00E943C1C0C94A13093CDCF93DF9300D0A9
S11304E01F92CDB7DEB781E00E94292062E070E060
S11304F080E090E00E94DD1480E00E94292066E9FB
S113050070E080E090E00E94DD140E94DF1F81E033
S11305100E94371E0E943D200E94BA229F938F930F
S11305208EE692E09F938F930E94832D0E94BB21BD
S11305300E94BA229F938F9381E892E09F938F93B6
S11305400E94832D8EE49AE00E944F200E94BA22DA
S11305500EE41AE01F930F939F938F938AE992E01E
S11305609F938F930E94832DC8010E946B200E9449
S1130570BA229F938F931F930F938EEA92E09F93D7
S11305808F930E94832DA80163EC72E084EE92E0C5
S11305900E9499220E94BA229F938F931F930F93D4
S11305A083EC92E09F938F9384EE92E09F938F93DA
S11305B085EF92E09F938F930E94832D0E949E204B
S11305C00E94BA229F938F938BE293E09F938F9321
S11305D00E94832D0FB6F894DEBF0FBECDBF81E01D
S11305E00E9498210E94BA229F938F938AE393E0FA
S11305F09F938F930E94832D84EF91E00E94A32107
S11306000E94BA229F938F9381E08F9384EF8F93FC
S11306108BE593E09F938F930E94832D0FB6F894FC
S1130620DEBF0FBECDBF0AE010E00F2EFBE7EF2EBA
S1130630F3E0FF2EF02D80E00E94A420D82E0E942B
S1130640BA229F938F931F930F93FF92EF920E946E
S1130650832D0F900F900F900F900F900F90F8E054
S1130660DF16D9F180E00E94A31E66E371E080E00A
S113067090E00E94DD1401501109E9F627C07AD6F2
S1130680FECF4CE652E060E070E0CE0101960E949D
S11306907F14F801C2828382D4829582C682A782A3
S11306A0D086B18683E00E94B51EB80180E00E9426
S11306B0CD200E94BA229F938F93FF92EF920E94C3
S11306C0832D0F900F900F900F90DBCF81E00E944D
S11306D0941E80E00E945E1ED2CF81E00E94851E9F
S11306E0E8E3FAE088E0818382E080830E942013BB
S11306F069837A838B839C8308E31AE00F2EFFE0DF
S1130700CF2EF02D0F2EF0EA8F2EF02D0F2EF1E1CB
S1130710DF2EF02D0F2EF8EF9F2EF02D0F2EF2ED81
S1130720AF2EF02D0F2EF6ECBF2EF02D0F2EFBE981
S1130730EF2EF3E0FF2EF02DA4CFEF92FF920F9354
S1130740E12CF12C082F20E030E048E851E060EB88
S113075073E08DE692E00E94BF110F91FF90EF903D
S11307600895BC0187EB93E0CEC008958091B20A4E
S11307709091B30A892B79F461EB73E083E00E94D2
S1130780E32381E090E09093B30A8093B20A86EC6D
S113079093E0F1D003C08EED93E0FBD061E070E014
S11307A082E090E00E94E52B2FEF3FEFFC013183C4
S11307B020830895FC01A080B180C281D38184800C
S11307C095800F2EF8EECF2EF3E0DF2EE12CF12CE6
S11307D0F02D01E020E041E050E060E070E0CE0167
S11307E0D4D160FF28C00E941124182F64EF71E057
S11307F080E090E00E94DD14111119C0C5010E942F
S11308004024811110C048E050E060E070E0C40171
S113081099D241E050E060E070E0CE0176D28EE201
S113082094E0A9D0CECF81E494E0B3D0CACF8CE6D3
S113083094E0AFD0C6CF84E894E0ABD0C2CFEF92BF
S1130840FF920F931F93CF93DF93182F092FF62E48
S1130850E72EE82FF92FDF010D900020E9F7BD0105
S11308606E1B7F0B675F7F4F81E090E00E94E52B5A
S1130870D82FC92FEF92FF920F931F938AEC94E025
S11308809F938F93CF93DF930E94C62D8DB79EB70E
S113089008960FB6F8949EBF0FBE8DBF8D2F9C2F68
S11308A0DF91CF911F910F91FF90EF9008950F93D7
S11308B0CF93DF93EC0180915A1C90915B1C892BA0
S11308C039F481E00E94640C90935B1C80935A1C61
S11308D04FEF5FEFBA0180915A1C90915B1C0E940C
S11308E0510DCE010E94962D00E020E030E0A901D8
S11308F060E070E080915A1C90915B1C45D7DF91B9
S1130900CF910F910895EF92FF920F931F93CF937E
S1130910DF93182F092FF62EE72E62E370E081E0B3
S113092090E00E94E52BD82FC92FEF92FF920F93EE
S11309301F9382ED94E09F938F938EED94E09F93A9
S11309408F93CF93DF930E94C62D8D2F9C2FAFDF03
S11309508D2F9C2F0E94972C8DB79EB70A960FB6A9
S1130960F8949EBF0FBE8DBFDF91CF911F910F9161
S1130970FF90EF900895CF93DF93BC0184EF94E050
S11309805EDFEC0194DFCE010E94972CDF91CF91C2
S11309900895CF93DF93BC0183EF99E050DFEC011E
S11309A086DFCE010E94972CDF91CF91089561E0FC
S11309B070E082E090E00C94E52B08950E94A31C63
S11309C0813021F489EF94E0E4DF05C0811103C094
S11309D08FE295E0D0DF61E070E088E090E00E9473
S11309E0E52B40E050E060E87FEBFC014483558355
S11309F06683778340E050E069E873EC4083518379
S1130A006283738308950E94BE1C8823C1F08230E0
S1130A1069F48DE495E0BDDFD1DF64EF71E080E03F
S1130A2090E00E94DD140E94BE1C07C0833029F4AC
S1130A3086E895E0AEDF0E94BE1C8111E8CF88EB0A
S1130A4095E099CF08950E94D31C882399F08230B1
S1130A5041F48DE495E09DDFB1DFD5DF0E94D31C26
S1130A6007C0833029F486E895E093DF0E94D31C05
S1130A708111EDCF8DEE95E07ECF0895CF93DF9376
S1130A80EC010E94BB1C882381F00E94E41C6C834F
S1130A907D838E839F830E94F91C688379838A8374
S1130AA09B838FE096E067DF07C08DE396E071DFFC
S1130AB00E94BB1C8823C9F3DF91CF910895FC01E8
S1130AC080809180C281D381A480B5800F2EF8EEFE
S1130AD0CF2EF3E0DF2EE12CF12CF02D01E020E00D
S1130AE042E050E060E070E0CE014FD061FF20C0F2
S1130AF08ADF64EF71E080E090E00E94DD14A3DF00
S1130B0064EF71E080E090E00E94DD14C401B6DF80
S1130B1040E150E060E070E0C50114D142E050E0F3
S1130B2060E070E0CE01F1D08BEA96E024DFCECF16
S1130B3083EC96E02EDFCACFE7E0F1E080818F609E
S1130B4080830895E8E0F1E09081907F9083908124
S1130B508F70982B90830895E8E0F1E08081807F86
S1130B6080830895CF93DF9380E190E0D1D1EC01AD
S1130B70009739F0FC011192119211921192CF0158
S1130B80B1D2CE01DF91CF9108952F923F924F922F
S1130B905F926F927F928F929F92AF92BF92CF9209
S1130BA0DF92EF92FF920F931F93CF93DF93EC01A9
S1130BB04A015B01622E702E0E941A13288039802C
S1130BC04A805B8001110DC081E0B201A10148217E
S1130BD059216A217B21452B462B472B79F480E050
S1130BE00DC081E0B201A101482159216A217B2174
S1130BF0481559056A057B0509F080E0882381F0D2
S1130C00662009F46BC080949094A094B0948220E0
S1130C109320A420B52088829982AA82BB825EC0D8
S1130C20C114D104E104F10409F458C0662029F088
S1130C3040E050E060E071E003C040E050E0BA0101
S1130C4071107460482959296A297B299701860102
S1130C50CE0104960E949B150E940314811101C0C9
S1130C6089D30E94E21791FD35C00FB6F8940F9214
S1130C70688179818A819B8171100DC021E07501A1
S1130C806401C622D722E822F922CD28CE28CF2813
S1130C9079F420E00DC021E075016401C622D72259
S1130CA0E822F922C814D904EA04FB0409F020E07C
S1130CB0222371F0662061F080949094A094B09403
S1130CC086229722A822B92288829982AA82BB828C
S1130CD00F900FBE1B012C01552402C00E94031467
S1130CE0C201B101DF91CF911F910F91FF90EF905D
S1130CF0DF90CF90BF90AF909F908F907F906F9038
S1130D005F904F903F902F9008950F931F930FB6CD
S1130D10F8940F92FC010081118122813381409566
S1130D20509560957095402351236223732340832B
S1130D305183628373830F900FBEC901B8011F9161
S1130D400F9108954F925F926F927F928F929F922C
S1130D50AF92BF92CF92DF92EF92FF920F931F93C5
S1130D60CF93DF93EC016A017B018C01095F1F4F74
S1130D700E941A13EB85FC8588819981AA81BB8125
S1130D80C82AD92AEA2AFB2AC882D982EA82FB82A3
S1130D900E171F0709F445C0C12CD12C76019924E4
S1130DA09394812CA480B58080819181A281B381A8
S1130DB0AC01BD017727B2FD0FC0488059806A801D
S1130DC07B804422552266227722292D45284628F5
S1130DD0472889F4282D0FC0488059806A807B8079
S1130DE04422552266227722292D4416550666068A
S1130DF0770609F0282D222371F0B0FF04C0C42A1D
S1130E00D52AE62AF72A488159816A817B81726052
S1130E10CF010E942116EA2DFB2D0E171F0711F694
S1130E2003C0C12CD12C7601C094D094E094F094EA
S1130E3088819981AA81BB81C822D922EA22FB2216
S1130E40C882D982EA82FB820E9403146881798174
S1130E508A819B81DF91CF911F910F91FF90EF9039
S1130E60DF90CF90BF90AF909F908F907F906F90C6
S1130E705F904F900895CF93DF93DC01ECEBFAE0A1
S1130E8001C0F901208131812A173B07D0F3828107
S1130E909381AF01480F591FA417B50749F412965F
S1130EA04D915C911397840F951F93838283DF0187
S1130EB012968D919C911397ED01C80FD91F2C1791
S1130EC03D07D9F42091BA0A3091BB0AC217D3075F
S1130ED081F02A813B81820F931F13969C938E93FA
S1130EE01297C081D1818881998111969C938E93A8
S1130EF007C01196DC93CE9303C011963C932E93B6
S1130F00AE17BF0711F0B183A083DF91CF9108958D
S1130F10CF92DF92EF92FF920F931F93CF93DF93C1
S1130F20EC010E941A138091BA0A9091BB0A892B92
S1130F3041F5ECEBFAE0A0ECBAE0B183A0831382B4
S1130F401282ECE5FAE1F093BB0AE093BA0A138249
S1130F501282118210828CE99FE013969C938E93E7
S1130F601297ED93FC939093B70A8093B60A9093EB
S1130F70B90A8093B80A80E090E89093B50A809308
S1130F80B40AE090B40AF090B50AC7018C239D23FB
S1130F90892B09F066C0209709F466C0AE014C5F46
S1130FA05F4F09F45EC00091B80A1091B90A0417A2
S1130FB0150708F456C0C091BC0AD091BD0AECEBE9
S1130FC0FAE002C0FE01E9012A813B8124173507BA
S1130FD028F42881398121153105A1F78091BA0AB5
S1130FE09091BB0AC817D907E1F1C080D18084E091
S1130FF0C80ED11C88819981918380832A813B8189
S1131000241B350B2930310548F0CE01840F951F80
S1131010FC01338322835B834A832DDF8A819B8196
S1131020081B190B1093B90A0093B80A2091B60A49
S11310303091B70A0217130720F41093B70A0093EC
S1131040B60AE82AF92AFB82EA82198218820E94E7
S11310500314C114D10459F40E94431BC12CD12C94
S113106006C00E940314F8CF0E940314F5CFC601F2
S1131070DF91CF911F910F91FF90EF90DF90CF9070
S11310800895CF93DF93009751F1FC0134972281A7
S113109033814091B40A5091B50AB9016423752390
S11310A0672BE9F060817181672BC9F4EF014095EA
S11310B0509524233523338322830E941A132091CD
S11310C0B80A3091B90A8A819B81820F931F909349
S11310D0B90A8093B80ACE01CEDE0E940314DF91D0
S11310E0CF910895FC010396928381834FEF5FEFC4
S11310F0BA01438354836583768390878783928779
S1131100818710820895FC01138612860895CF9377
S1131110DF939C01FB01DC011196CD91DC911297C8
S1131120D583C4838E819F81978386838E819F819B
S1131130DC0115967C936E9314977F836E833387BB
S11311402287F90180818F5F8083DF91CF91089599
S11311500F931F93CF93DF93EB01088119812A81A9
S11311603B810F3F4FEF14072407340721F4FC01A0
S1131170A185B28511C0DC01139601C0DF0114966C
S1131180ED91FC911597408151816281738104171F
S113119015072607370790F71496ED91FC911597DC
S11311A0FD83EC83D783C683BF83AE831596DC931C
S11311B0CE9314979B878A87FC0120812F5F20831D
S11311C0DF91CF911F910F910895CF93DF93FC018D
S11311D0A285B385C481D581868197819F838E83BF
S11311E0C681D781848195819D838C8311968D914D
S11311F09C911297E817F90731F48681978112962A
S11312009C938E931197138612868C9181508C93A4
S11312108C91DF91CF91089531E1FC0130833197B6
S113122022E220833197A3E3A0833197608331972F
S113123070833197108231971082319760E8608310
S1131240319710823197108231971082319762E082
S11312506083319763E06083319764E06083319702
S113126065E06083319766E06083319767E060836F
S1131270319768E06083319769E06083319760E17A
S1131280608331973083319732E13083319733E192
S11312903083319734E13083319735E130833197AE
S11312A036E13083319737E13083319738E1308349
S11312B0319739E13083319730E23083319731E22D
S11312C0308331972083319723E220833197408301
S11312D031975083319726E22083319727E2208388
S11312E0319728E22083319729E22083319720E344
S11312F02083319721E3208389970895A89590EC62
S113130088E10FB6F894A895809360000FBE90937F
S11313106000A091DA1AB091DB1ACD91CDBFDD91B6
S1131320DEBFFF91EF91DF91CF91BF91AF919F917C
S11313308F917F916F915F914F913F912F911F9169
S11313400F91FF90EF90DF90CF90BF90AF909F9060
S11313508F907F906F905F904F903F902F901F9051
S11313600F900CBE0F900BBE0F900FBE0F90089500
S113137081E008950F920FB6F8940F920BB60F9276
S11313800CB60F921F9211242F923F924F925F92AC
S11313906F927F928F929F92AF92BF92CF92DF9281
S11313A0EF92FF920F931F932F933F934F935F936B
S11313B06F937F938F939F93AF93BF93CF93DF9359
S11313C0EF93FF93A091DA1AB091DB1A0DB60D9248
S11313D00EB60D920E940515A091DA1AB091DB1A8F
S11313E0CD91CDBFDD91DEBFFF91EF91DF91CF9124
S11313F0BF91AF919F918F917F916F915F914F9129
S11314003F912F911F910F91FF90EF90DF90CF901C
S1131410BF90AF909F908F907F906F905F904F9010
S11314203F902F901F900F900CBE0F900BBE0F900B
S11314300FBE0F9008950F920FB6F8940F920BB64B
S11314400F920CB60F921F9211242F923F924F923B
S11314505F926F927F928F929F92AF92BF92CF9240
S1131460DF92EF92FF920F931F932F933F934F932B
S11314705F936F937F938F939F93AF93BF93CF9318
S1131480DF93EF93FF93A091DA1AB091DB1A0DB6B4
S11314900D920EB60D9213BE0E942E1381110E945E
S11314A00515A091DA1AB091DB1ACD91CDBFDD916B
S11314B0DEBFFF91EF91DF91CF91BF91AF919F91EB
S11314C08F917F916F915F914F913F912F911F91D8
S11314D00F91FF90EF90DF90CF90BF90AF909F90CF
S11314E08F907F906F905F904F903F902F901F90C0
S11314F00F900CBE0F900BBE0F900FBE0F9008956F
S11315009ADF18950FB6F8940F92FC01968D0F9000
S11315100FBE81E0911180E008950F931F93CF9344
S1131520DF93EC01042F1E8D48A141110CC088816A
S11315309981892B09F042C08C819D810E945617A4
S11315401D821C8242C0011117C050E08A819B8118
S11315500E94242D28A18A819B81820F911D9B8347
S11315608A832C813D818217930750F18881998168
S11315709B838A8380E029C050E08E819F810E94F2
S1131580242D88A190E09195819591092E813F8128
S1131590280F391F3F832E8348815981241735072B
S11315A030F42C813D81820F931F9F838E83023000
S11315B049F4112349F0115080E007C080E005C0D0
S11315C080E003C080E001C080E01F5F1E8FDF91D8
S11315D0CF911F910F910895FC0140A14423A9F0DC
S11315E050E026813781240F351F37832683848179
S11315F095812817390720F080819181978386830C
S1131600CB01668177810C94242D0895EF92FF928B
S11316100F931F93CF938C010FB6F8940F92FC0194
S1131620C2A11C16ACF48389811106C011C0F80153
S11316308389811105C00CC07801F3E1EF0EF11C20
S1131640C7010E94DF1581110E94D116C15079F79C
S11316508FEFF80182A30F900FBE0FB6F8940F928C
S1131660C1A11C16ACF48085811106C011C0F8011B
S11316708085811105C00CC07801F8E0EF0EF11CE3
S1131680C7010E94DF1581110E94D116C15079F75C
S11316908FEFF80181A30F900FBECF911F910F918F
S11316A0FF90EF900895CF93DF93EC010FB6F89479
S11316B00F92E881F9818F8D28A190E030E0829F1C
S11316C0A001839F500D929F500D11244E0F5F1F58
S11316D05D834C831E8EFB83EA830197829FA00166
S11316E0839F500D929F500D1124CF01840F951F9D
S11316F09F838E838FEF89A38AA361110BC0888592
S1131700882371F0CE0108960E94DF15882341F0EA
S113171031DE06C0CE010896E5DCCE014396E2DC5C
S11317200F900FBE81E0DF91CF910895FF920F9348
S11317301F93CF93DF93082F162FF42E6623B9F04F
S1131740869FC00111248596E3DBEC01009741F4E8
S113175014C00F8F18A361E0CE01A5DFFCA20DC059
S1131760859699838883F5CFD983C883F2CF85E2A0
S113177090E0CEDBEC01892BB9F7CE01DF91CF915C
S11317801F910F91FF9008959F92AF92BF92CF92B5
S1131790DF92EF92FF920F931F93CF93DF93CDB716
S11317A0DEB729970FB6F894DEBF0FBECDBF7C011C
S11317B05B012E833F834887598710E099249394D3
S11317C06C0188E0C80ED11C0FB6F8940F92F70193
S11317D0968D878D981710F00230B1F4402FB50123
S11317E0C7019BDEF7019389992341F0C701439612
S11317F00E94DF15882321F0BDDD02C08111BADD0E
S11318000F900FBE81E04EC08E819F81A885B9855F
S1131810892B8A2B8B2B21F40F900FBE80E042C0C2
S1131820111105C0CE0101960E946B16192D0F905F
S11318300FBE00D70FB6F8940F92F70181A18F3F26
S113184009F411A2F70182A18F3F09F412A20F90AB
S11318500FBEBE016A5F7F4FCE0101960E947C16C7
S113186081111CC00FB6F8940F92F701968D878DE5
S11318700F900FBE98130EC04E815F8168857985E5
S1131880C6010E948415C701C1DEBDD781119CCF5A
S113189071DD9ACFC701BADEB6D796CFC701B6DEDF
S11318A0B2D780E029960FB6F894DEBF0FBECDBF45
S11318B0DF91CF911F910F91FF90EF90DF90CF9028
S11318C0BF90AF909F9008950F93CF93DF93482FCD
S11318D060E081E02BDFEC01009761F01D821C8247
S11318E0198218821E8200E020E030E0A90160E045
S11318F070E04ADFCE01DF91CF910F910895EF920E
S1131900FF920F931F93CF93DF938A01FC01568DAF
S1131910378D531710F02230E9F4422F7801EC018F
S11319201AA1FBDD1F3F81F48B898823A9F0CE0126
S113193043960E94DF15882389F0E114F10481F0B5
S113194081E0F70180830DC0FF24F394F10EFAA225
S113195081E007C080E005C081E003C081E001C0F0
S113196081E0DF91CF911F910F91FF90EF90089547
S11319709F92AF92BF92CF92DF92EF92FF920F931A
S11319801F93CF93DF93CDB7DEB729970FB6F894A3
S1131990DEBF0FBECDBF8C015B012E833F83488722
S11319A05987E12C992493946C0183E1C80ED11CCE
S11319B00FB6F8940F92F801F68CFF2099F0B50158
S11319C0C8010ADEFA94F801F68E8085882331F086
S11319D0C80108960E94DF158111CCDC0F900FBE60
S11319E081E04DC08E819F81A885B985892B8A2B82
S11319F08B2B21F40F900FBE80E041C0E11005C095
S1131A00CE0101960E946B16E92C0F900FBE12D6E0
S1131A100FB6F8940F92F80181A18F3F09F411A237
S1131A20F80182A18F3F09F412A20F900FBEBE01EC
S1131A306A5F7F4FCE0101960E947C16811116C009
S1131A40C80160DD882371F04E815F8168857985E6
S1131A50C6010E948415C801D9DDD5D68111A8CF4D
S1131A6089DCA6CFC801D2DDCED6A2CFC801CEDD97
S1131A70CAD6C80147DD882309F49ACF80E02996A5
S1131A800FB6F894DEBF0FBECDBFDF91CF911F918B
S1131A900F91FF90EF90DF90CF90BF90AF909F9009
S1131AA00895BF92CF92DF92EF92FF920F931F930C
S1131AB0CF93DF93CDB7DEB729970FB6F894DEBF87
S1131AC00FBECDBF8C014E835F8368877987B12CAD
S1131AD0D12CCC24C3947C0183E1E80EF11C0FB615
S1131AE0F8940F92D8015E968C915E978823E1F06A
S1131AF081505E968C935E978D919C91892B29F4ED
S1131B000E940A18F80195838483D80118968C9151
S1131B10882331F0C80108960E94DF1581112ADC60
S1131B200F900FBE81E07AC08E819F81A885B98510
S1131B30892B8A2B8B2B21F40F900FBE80E06EC073
S1131B40D11005C0CE0101960E946B16DC2C0F90BB
S1131B500FBE70D50FB6F8940F92F80181A18F3F94
S1131B6009F411A2D80192968C9192978F3F11F4A7
S1131B7092961C920F900FBEBE016A5F7F4FCE01FA
S1131B8001960E947C16811124C0C801BBDC882305
S1131B90E1F0F80180819181892B51F40FB6F8941A
S1131BA00F92848195810E94E816B82E0F900FBE83
S1131BB04E815F8168857985C701A6D7C80126DD76
S1131BC022D681118CCFD6DB8ACFC8011FDD1BD66C
S1131BD086CFC8011BDD17D6C80194DC882309F41D
S1131BE07ECFBB20D1F00FB6F8940F92F801838911
S1131BF0882339F0028CF38DE02D808164E0681B2A
S1131C0001C060E0D80114968D919C9115970E94B3
S1131C1096170F900FBE80E001C080E029960FB6A2
S1131C20F894DEBF0FBECDBFDF91CF911F910F910E
S1131C30FF90EF90DF90CF90BF900895CF93DF9304
S1131C40EC010FB6F8940F9289A18F3F09F419A201
S1131C508AA18F3F09F41AA20F900FBE8E8D8111B5
S1131C6003C0CE0143968BD7CE01D0DCDF91CF9158
S1131C700895FC014481558122813381240F351F4D
S1131C8080819181B901681B790BCB0164177507B9
S1131C9010F0841B950B0895AF92BF92CF92DF9200
S1131CA0EF92FF920F931F93CF93DF936C015B012D
S1131CB07A01FC01C281D381048115810C1B1D0BA7
S1131CC04017510708F48A01F60184859585A80117
S1131CD0B5018C0F9D1F0E94242D0E151F0558F46D
S1131CE0A701401B510BB501600F711FF6018485DC
S1131CF095850E94242DCE018E0D9F1DF601248111
S1131D0035818217930710F0821B930BF60193839E
S1131D108283C701DF91CF911F910F91FF90EF90C4
S1131D20DF90CF90BF90AF900895CF92DF92EF9263
S1131D30FF920F931F93CF93DF931F921F92CDB700
S1131D40DEB75A83498321153105C9F06B017C0143
S1131D50FC01868580FD08C0CA012417350708F4F4
S1131D60C9019A83898311C02017310758F042E0D2
S1131D7050E0BE016F5F7F4FC7018EDF06C080E079
S1131D8090E008C080E090E005C049815A81B60126
S1131D90C70182DF0F900F90DF91CF911F910F91B8
S1131DA0FF90EF90DF90CF900895AF92BF92CF92C3
S1131DB0DF92EF92FF920F931F93CF93DF937C01F7
S1131DC05B01E9014217530708F4EA01209779F10E
S1131DD0F70100811181C480D580C01AD10ACC15C5
S1131DE0DD0508F46E01F70164857585600F711FC8
S1131DF0A601C5010E94242DCC16DD0658F4AE01BF
S1131E004C195D09F70164857585C5018C0D9D1D0F
S1131E100E94242D0C0F1D1FF70184819581081742
S1131E20190710F0081B190BF70111830083CE0169
S1131E30DF91CF911F910F91FF90EF90DF90CF90A2
S1131E40BF90AF900895EF92FF921F93CF93DF93CB
S1131E50EB0111E0413009F010E0209711F4C1E0EA
S1131E60D0E07C012FEFE21AF20A419651D8009794
S1131E7081F020E1FC0111922A95E9F79C01205F91
S1131E803F4FFC0135872487F582E482D783C683DC
S1131E901687DF91CF911F91FF90EF900895CF9314
S1131EA0DF93FC0127850FB6F8940F928085918506
S1131EB0892BD1F482859385892BC1F4868546814B
S1131EC0578164817581A485B58590E1EF011992EC
S1131ED09A95E9F7B587A487758364835783468306
S1131EE08687278781E003C080E001C080E00F90EF
S1131EF00FBEDF91CF910895FC012481358180814B
S1131F00918142815381820F931F0197841B950B0A
S1131F108217930710F0821B930B08952F923F9220
S1131F204F925F926F927F928F929F92AF92BF92E5
S1131F30CF92DF92EF92FF920F931F93CF93DF9391
S1131F40CDB7DEB729970FB6F894DEBF0FBECDBF6D
S1131F505C011B012A010E831F8328873987FC013A
S1131F60868580FF05C03A01F2E06F0E711C01C046
S1131F703A018E819F81A885B985892B8A2B8B2B69
S1131F8009F435C0CE01019690D60FB6F8940F929D
S1131F90C501B2DF4C018615970520F580E090E07D
S1131FA00E94A71902D7F501938782870F900FBE6D
S1131FB0CE80DF80E884F98400E010E020E030E0A7
S1131FC0A90160E070E0CB010E941C18F5011386A2
S1131FD01286BE016A5F7F4FCE0101968DD688239B
S1131FE0A1F202C00F900FBE8114910419F4C5012F
S1131FF083DF4C0183019401A201B101C50195DE87
S11320007C01892BE1F0C50134DEF501268137819D
S113201082179307A0F00ED3F50180859185892B53
S113202069F08085918500E010E020E040E050E018
S1132030BA010E94A618F50111861086E4D3C701DF
S113204029960FB6F894DEBF0FBECDBFDF91CF91B6
S11320501F910F91FF90EF90DF90CF90BF90AF90C2
S11320609F908F907F906F905F904F903F902F90B4
S11320700895AF92BF92CF92DF92EF92FF920F93A7
S11320801F93CF93DF93EC015B016A0179018E8585
S113209080FF04C08A010E5F1F4F01C08A01CE0178
S11320A02BDF9C01A601B501CE013FDE6C01892B1B
S11320B0B9F0CE01DEDD2E813F818217930780F0D7
S11320C088859985892B61F08885998500E010E0E1
S11320D020E040E050E0BA010E941E1919861886DB
S11320E0C601DF91CF911F910F91FF90EF90DF9088
S11320F0CF90BF90AF9008954F925F926F927F926E
S11321008F929F92AF92BF92CF92DF92EF92FF9203
S11321100F931F93CF93DF931F921F92CDB7DEB718
S11321205C012B013A0168017901FC01868580FD7F
S113213003C0812C912C04C06894882481F8912CCC
S1132140C114D104E104F10431F10FB6F8940F92F3
S1132150C5018FDD8C018816990640F080E090E07F
S11321600E94A71922D6F501918780870F900FBE90
S113217080169106B0F000E010E020E030E0A90104
S113218060E070E0CB0158D7F50111861086C501D7
S113219070DD8C0103C0C5016CDD8C0180169106D5
S11321A0B8F581149104C1F0F501E080F180980143
S11321B0A401BE016F5F7F4FC501F7DD89819A815C
S11321C0081919096816790630F4F501F182E082DC
S11321D0612C712C01C03C019801A301B201C5011D
S11321E0E4DD7C01892BB1F025D2F501828593854C
S11321F0892B61F08285938500E010E020E040E0C7
S113220050E0BA01A3D7F50113861286FCD202C0AE
S1132210E12CF12CC7010F900F90DF91CF911F910A
S11322200F91FF90EF90DF90CF90BF90AF909F9071
S11322308F907F906F905F904F900895E091961AE1
S1132240F091971A808181110CC08FEF9FEFDC0110
S11322508093631A9093641AA093651AB093661AD4
S11322600895E091961AF091971A0780F085E02D71
S11322700084F185E02D82819381A481B5818093CE
S1132280631A9093641AA093651AB093661A08951A
S11322908F929F92AF92BF92CF92DF92EF92FF9272
S11322A0CF936B017C01C42F80906D1A90906E1AAD
S11322B0A0906F1AB090701A8091DA1A9091DB1A7C
S11322C002960E94E5088FEFC816D806E806F806BD
S11322D069F4CC2359F06091DA1A7091DB1A6E5FBD
S11322E07F4F82E79AE10E9487083FC0C80CD91C3F
S11322F0EA1CFB1CE091DA1AF091DB1AC282D38249
S1132300E482F582C814D904EA04FB0468F46091F9
S1132310DA1A7091DB1A8091941A9091951A6E5F73
S11323207F4F0E94A80821C06091DA1A7091DB1ACD
S11323308091961A9091971A6E5F7F4F0E94A80819
S11323408091631A9091641AA091651AB091661AEB
S1132350C816D906EA06FB0640F4C092631AD09266
S1132360641AE092651AF092661ACF91FF90EF908A
S1132370DF90CF90BF90AF909F908F9008954F9231
S11323805F926F927F928F929F92AF92BF92CF9201
S1132390DF92EF92FF920F93CF93DF934C016B0187
S11323A05A012901CA010E9488073C01892B09F4BA
S11323B0F4C080E390E00E948807EC01892B99F037
S11323C07C8E6B8EA50165EA70E0C3010E942D2D01
S11323D021E0A21AB1088B8D9C8DA80EB91EC114E0
S11323E0D10429F420C0C3010E944108D6C0D601FB
S11323F08C918D8F8C918823A1F0AE01425E5F4F4A
S1132400F6013196B8E0CB0ED11CCF012191DA014F
S11324102D93AD01DC018C91882319F0EC15FD0599
S1132420A1F71CA201C01D8E043008F003E00A8F3E
S11324300FA318A66E01B2E0CB0ED11CC6010E94F8
S11324408308CE010E960E948308DB87CA8784E046
S113245090E0A0E0B0E0801B9109A109B1098E874A
S11324609F87A88BB98BDF8BCE8B1AA619A61BA6C8
S11324701CA61DA61EA61FA6A201B401C5010E948A
S11324800C0999838883E114F10419F0F701D183CD
S1132490C0830FB6F8940F928091711A8F5F809366
S11324A0711A8091DA1A9091DB1A892BD1F5D093A5
S11324B0DB1AC093DA1A8091711A813009F041C095
S11324C08EEA9AE10E94720889EB9AE10E947208EE
S11324D084EC9AE10E9472088FEC9AE10E947208DF
S11324E083EA9AE10E94720888E99AE10E947208DC
S11324F089E89AE10E9472088EE79AE10E947208C4
S113250082E79AE10E94720883EA9AE19093971A0B
S11325108093961A88E99AE19093951A8093941A75
S113252010C080916B1A81110CC0E091DA1AF091FD
S1132530DB1A928D8A8D891720F0D093DB1AC09311
S1132540DA1A8091671A8F5F8093671A8DA38A8D38
S113255090916C1A981710F480936C1AFBE08F9F7B
S1132560C0011124B6018255954E0E9487080F9030
S11325700FBE80916B1A882361F0E091DA1AF09112
S1132580DB1A928D8A8D981730F40E94BA0981E083
S113259005C081E003C081E001C08FEFDF91CF91DE
S11325A00F91FF90EF90DF90CF90BF90AF909F90EE
S11325B08F907F906F905F904F900895EF92FF926D
S11325C00F930F2EF1E6EF2EFAE1FF2EF02D00E02F
S11325D020E030E040EC50E06EE077E08DEC90E0FD
S11325E0CEDE813019F539D7813001F5F8948FEFBB
S11325F09FEFDC018093631A9093641AA093651A89
S1132600B093661A81E080936B1A10926D1A10923F
S11326106E1A10926F1A1092701AE091DA1AF091F1
S1132620DB1A81A50E94A2050E947E090F91FF90EA
S1132630EF9008958091601A8F5F8093601A0895D7
S11326400FB6F8940F9260916D1A70916E1A809182
S11326506F1A9091701A0F900FBE08959F92AF92C7
S1132660BF92CF92DF92EF92FF920F931F93CF937B
S1132670DF938091601A8111ADC0C0906D1AD09023
S11326806E1AE0906F1AF090701A8FEFC81AD80A79
S1132690E80AF80AC0926D1AD0926E1AE0926F1A84
S11326A0F092701AC114D104E104F104B1F48091E0
S11326B0961A9091971A2091941A3091951A309302
S11326C0971A2093961A9093951A8093941A80914E
S11326D0681A8F5F8093681AB1DD8091631A9091B4
S11326E0641AA091651AB091661AC816D906EA064A
S11326F0FB0610F4B12C5DC0B12C0F2EFBE0AF2E05
S1132700F02D99249394E091961AF091971A808170
S113271081110CC08FEF9FEFDC018093631A9093BB
S1132720641AA093651AB093661A43C0E091961A8E
S1132730F091971A0780F085E02DC085D1858A81B4
S11327409B81AC81BD81C816D906EA06FB0648F414
S11327508093631A9093641AA093651AB093661ACF
S113276028C08E010E5F1F4FC8010E94E508888DA6
S1132770998D892B21F0CE010E960E94E5088A8D51
S113278090916C1A981710F480936C1AA89EC0014B
S11327901124B8018255954E0E948708E091DA1AF7
S11327A0F091DB1A9A8D828D981708F4ACCFB92C6E
S11327B0AACFE091DA1AF091DB1AE28D8BE0E89F60
S11327C0F0011124E255F54E8081823048F0BB249B
S11327D0B39406C080916A1A8F5F80936A1AB12CF1
S11327E08091691A882311F0BB24B3948B2DDF9157
S11327F0CF911F910F91FF90EF90DF90CF90BF90FA
S1132800AF909F900895CF92DF92EF92FF920F9333
S11328101F93CF93DF930FB6F8940F928091601AB1
S113282081508093601A8091601A81115AC08091FE
S1132830711A81112CC058C0D7011796ED91FC91E3
S11328401897C085D185CE010E960E94E5088E01A9
S11328500E5F1F4FC8010E94E5088A8D90916C1A83
S1132860981710F480936C1AD89EC0011124B801F3
S11328708255954E0E948708E091DA1AF091DB1A8E
S11328809A8D828D981788F0C092691A0EC0C0E0A4
S1132890D0E00F2EF9E8EF2EFAE1FF2EF02D0F2EE7
S11328A0FBE0DF2EF02DCC24C394F701808181114D
S11328B0C3CFCD2B09F0C2DCC0916A1ACC2349F0F6
S11328C0D1E0CCDE8111D093691AC150D1F71092B6
S11328D06A1A8091691A882331F00E94BA0981E04A
S11328E003C080E001C080E00F900FBEDF91CF9164
S11328F01F910F91FF90EF90DF90CF900895CF92AA
S1132900DF92EF92FF920F931F93CF93DF93EC012B
S11329106A017B018FDE00916D1A10916E1A20916D
S11329206F1A3091701A88819981AA81BB81AC0198
S1132930BD014C0D5D1D6E1D7F1D081719072A076B
S11329403B0778F4481759076A077B0740F5488323
S113295059836A837B830417150726073707A0F476
S11329600BC0481759076A077B07A0F0041715071F
S11329702607370778F013C0CB01BA01601B710B2F
S1132980820B930B40E084DC3EDF81110DC00E947A
S1132990BA090AC0488359836A837B83EDCF48838D
S11329A059836A837B83F0CFDF91CF911F910F917D
S11329B0FF90EF90DF90CF900895CF92DF92EF9247
S11329C0FF926B017C01672B682B692B41F032DE8F
S11329D040E0C701B6015CDC16DF811102C00E9431
S11329E0BA09FF90EF90DF90CF900895009721F4FB
S11329F08091DA1A9091DB1A0FB6F8940F92FC01C9
S1132A0072A761A70F900FBE08958091601A882362
S1132A1021F081E08093691A08951092691AE09177
S1132A20DA1AF091DB1A81A50E94AC05A091DA1A9A
S1132A30B091DB1AE091DA1AF091DB1A2D913C91F6
S1132A40838D948D8217930758F06091DA1A7091F0
S1132A50DB1A8091DA1A9091DB1A635E7F4F20D6DD
S1132A6080916C1A282F30E09BE0899FF00111249B
S1132A70E255F54E908191110EC04BE08150282F04
S1132A8030E0429FF001439FF00D1124E255F54ED2
S1132A909081992399F39BE0929FA001939F500DFD
S1132AA01124DA01A255B54E1196ED91FC911297BD
S1132AB00480F581E02D1296FC93EE9311974F5408
S1132AC0554EE417F50729F444815581FD015283DD
S1132AD041839BE0929FF001939FF00D1124E255F6
S1132AE0F54E0180F281E02D208531853093DB1A8B
S1132AF02093DA1A80936C1AE091DA1AF091DB1AB7
S1132B0081A50C94A2050895CF92DF92EF92FF92D3
S1132B106A017B016091DA1A7091DB1A625F7F4F60
S1132B200E94A80841E0C701B601B2DBFF90EF9014
S1132B30DF90CF900895CF92DF92EF92FF920F93A0
S1132B401F9368017901E091DA1AF091DB1A706839
S1132B5046875787608B718B6091DA1A7091DB1A04
S1132B60625F7F4F0E94870841E0C701B60190DB96
S1132B701F910F91FF90EF90DF90CF900895CF9227
S1132B80DF92EF92FF92CF936A017B01C22F609193
S1132B90DA1A7091DB1A625F7F4F0E948708CC2398
S1132BA021F0CC24CA94DC2C76014C2FC701B60149
S1132BB06FDBCF91FF90EF90DF90CF9008950F934C
S1132BC01F93CF93DF93DC011796ED91FC91189737
S1132BD0C085D1858E01025F1F4FC8010E94E508A0
S1132BE08091601A811116C00C501109C8010E940D
S1132BF0E5088A8D90916C1A981710F480936C1ADA
S1132C00BBE08B9FC0011124B8018255954E0E94F0
S1132C10870805C0B80189E89AE10E948708E09115
S1132C20DA1AF091DB1A9A8D828D891720F481E0EB
S1132C308093691A01C080E0DF91CF911F910F91B9
S1132C4008950F931F93CF93DF937068FC01408323
S1132C50518362837383C085D1850E94E5088E0108
S1132C600E5F1F4FC8010E94E5088A8D90916C1A6F
S1132C70981710F480936C1AFBE08F9FC001112405
S1132C80B8018255954E0E948708E091DA1AF091B6
S1132C90DB1A9A8D828D891718F481E08093691A62
S1132CA0DF91CF911F910F9108950FB6F8940F9271
S1132CB02091681AFC01208340916D1A50916E1A7C
S1132CC060916F1A7091701A418352836383748385
S1132CD00F900FBE08952091681AFC012083409143
S1132CE06D1A50916E1A60916F1A7091701A418327
S1132CF05283638374830895CF92DF92EF92FF929D
S1132D000F931F93CF93DF93FB010FB6F8940F92A9
S1132D1040916D1A50916E1A60916F1A7091701AE9
S1132D2000811181228133810F3FAFEF1A072A07F7
S1132D303A0749F1EC01C980DA80EB80FC80A0916C
S1132D40681AB881BA1729F04C155D056E057F0520
S1132D50E0F44C195D096E097F09401751076207B9
S1132D60730758F4041B150B260B370B00831183D0
S1132D7022833383B0DF80E009C010821182128283
S1132D80138281E003C080E001C081E00F900FBE98
S1132D90DF91CF911F910F91FF90EF90DF90CF9033
S1132DA0089581E08093691A08958091DA1A9091C8
S1132DB0DB1A089580916B1A882331F08091601A90
S1132DC0882321F080E0089581E0089582E0089549
S1132DD00F931F93CF93DF93FC01892B09F460C0F9
S1132DE0828DA091DA1AB091DB1A5A969C918917B8
S1132DF008F04AC04685578560897189772394F025
S1132E00A091DA1AB091DB1A5A969C9144E050E0F2
S1132E1060E070E0491B51096109710946875787D1
S1132E20608B718B2BE0829FC00111248255954EDB
S1132E302485358528173907F1F48F01EF0122968F
S1132E40CE010E94E508E091DA1AF091DB1A828D36
S1132E50F801828F90916C1A981710F480936C1A71
S1132E60FBE08F9FC0011124BE018255954E0E9444
S1132E70870881E016C0A091DA1AB091DB1A5A963D
S1132E808C91828F81E00DC0A091DA1AB091DB1A87
S1132E9081E027A15A969C91291718F080E001C07F
S1132EA080E0DF91CF911F910F9108950F931F93AD
S1132EB0CF93DF93FC01892B79F180A5815080A702
S1132EC0228D97A1291751F181112AC0EF018F0199
S1132ED00E5F1F4FC8010E94E5088FA18A8F44E04E
S1132EE050E060E070E0481B5109610971094E87A8
S1132EF05F87688B798B90916C1A981710F4809384
S1132F006C1A2BE0829FC0011124B8018255954EA2
S1132F100E94870881E005C080E003C080E001C012
S1132F2080E0DF91CF911F910F9108950F931F932C
S1132F30CF93DF93FC01892B09F43FC087A1861747
S1132F4008F4862F928D9817C1F120A52130A9F598
S1132F50828F4685578560897189772364F044E0C0
S1132F6050E060E070E0481B51096109710946872F
S1132F705787608B718B2BE0929FC001112482557F
S1132F80954E2485358528173907B9F4EF018F014B
S1132F900E5F1F4FC8010E94E5088A8D90916C1A3C
S1132FA0981710F480936C1A2BE0829FC0011124AF
S1132FB0B8018255954E0E948708DF91CF911F91E9
S1132FC00F910895CF92DF92EF92FF92E091DA1A77
S1132FD0F091DB1A6685778580899189E091DA1A08
S1132FE0F091DB1AA091DA1AB091DB1A5A962C915F
S1132FF0C12CD12C76016894C2F8C21AD108E10818
S1133000F108C686D786E08AF18AFF90EF90DF90B8
S1133010CF9008958091DA1A9091DB1A892B39F0B8
S1133020E091DA1AF091DB1A80A58F5F80A7809176
S1133030DA1A9091DB1A08954F925F926F927F9201
S11330408F929F92AF92BF92CF92DF92EF92FF92B4
S11330500F931F9349015A010FB6F8940F92E09110
S1133060DA1AF091DB1A27A5223039F1E091DA1A45
S1133070F091DB1A43A454A465A476A4DC01CB012B
S113308080959095A095B09584219521A621B7218E
S113309083A794A7A5A7B6A7E091DA1AF091DB1A43
S11330A081E087A7C114D104E104F10431F041E0C7
S11330B0C701B601EDD80E94BA090F900FBE0FB632
S11330C0F8940F920115110569F0E091DA1AF09164
S11330D0DB1A83A594A5A5A5B6A5F80180839183E1
S11330E0A283B383E091DA1AF091DB1A87A58230C8
S11330F0B1F4E091DA1AF091DB1A83A594A5A5A5A1
S1133100B6A580949094A094B09488229922AA227F
S1133110BB2283A694A6A5A6B6A681E001C080E042
S1133120E091DA1AF091DB1A17A60F900FBE1F91E7
S11331300F91FF90EF90DF90CF90BF90AF909F9052
S11331408F907F906F905F904F9008950F931F938F
S1133150CF93DF93FC010FB6F8940F92011511057C
S113316049F083A594A5A5A5B6A5E801888399830C
S1133170AA83BB8387A592E097A72230B1F018F405
S1133180213031F02AC02330E9F0243001F125C088
S113319003A514A525A536A5402B512B622B732B13
S11331A043A754A765A776A718C043A554A565A54A
S11331B076A54F5F5F4F6F4F7F4F43A754A765A717
S11331C076A70BC043A754A765A776A706C082308D
S11331D049F143A754A765A776A7813029F5EF01E4
S11331E08F010E5F1F4FC8010E94E5088A8D9091E0
S11331F06C1A981710F480936C1A2BE0829FC0010C
S11332001124B8018255954E0E948708E091DA1A7C
S1133210F091DB1A9A8D828D891740F40E94BA09C5
S113322081E005C080E003C081E001C081E00F902F
S11332300FBEDF91CF911F910F910895EF92FF92EE
S11332400F931F93CF93DF93FC010115110549F0F0
S113325083A594A5A5A5B6A5E80188839983AA8327
S1133260BB8387A592E097A72230B1F018F42130F0
S113327031F02AC02330E9F0243001F125C003A540
S113328014A525A536A5402B512B622B732B43A7E0
S113329054A765A776A718C043A554A565A576A528
S11332A04F5F5F4F6F4F7F4F43A754A765A776A724
S11332B00BC043A754A765A776A706C08230D9F1EF
S11332C043A754A765A776A78130B9F5EF0180918C
S11332D0601A811117C08F010E5F1F4FC8010E9431
S11332E0E5088A8D90916C1A981710F480936C1AE3
S11332F0EBE08E9FC0011124B8018255954E0E94C7
S1133300870807C0BF01625F7F4F89E89AE10E9486
S11333108708E091DA1AF091DB1A9A8D828D891769
S113332070F4E114F10419F081E0E701888381E08D
S11333308093691A05C080E003C081E001C081E088
S1133340DF91CF911F910F91FF90EF900895009717
S113335021F48091DA1A9091DB1A0FB6F8940F9247
S1133360FC0127A5223019F417A681E001C080E0F2
S11333700F900FBE0895CF92DF92EF92FF920F93BA
S11333801F93FC01428353836483758393878287ED
S11333900417150726073707C0F00C191D092E0955
S11333A03F0986859785A089B189081719072A07D7
S11333B03B0700F5BF016E5F7F4F8091E41A909147
S11333C0E51A0E94A80880E018C00C151D052E05FA
S11333D03F0528F44C155D056E057F0568F4BF01B3
S11333E06E5F7F4F8091E61A9091E71A0E94A808B9
S11333F080E003C081E001C081E01F910F91FF9044
S1133400EF90DF90CF9008950FB6F8940F928091CB
S1133410E21A9091E31A892BE9F483EF9AE10E946E
S1133420720888EE9AE10E94720883EF9AE1909301
S1133430E71A8093E61A88EE9AE19093E51A80934E
S1133440E41A40E067E08AE00E94960B9093E31A46
S11334508093E21A0F900FBE0895EF92FF920F939C
S1133460D3DF8091E21A9091E31A892B91F00F2E09
S1133470F0EEEF2EFAE1FF2EF02D03E020E030E035
S113348045E550E063E177E084E091E00E94BF11FC
S113349001C080E00F91FF90EF9008958F929F926A
S11334A0AF92BF92CF92DF92EF92FF920F931F934E
S11334B0CF93DF93CDB7DEB727970FB6F894DEBF6F
S11334C00FBECDBFE091E21AF091E31A309781F17B
S11334D069832A833B834C835D839F838E83663019
S11334E0F4F468DC823069F400E0A7019601BE01BF
S11334F06F5F7F4F8091E21A9091E31A0E94C40B90
S113350018C000E020E030E0A901BE016F5F7F4FEA
S11335108091E21A9091E31A0E94C40B0AC020E041
S1133520A801BE016F5F7F4FCF010E947F0C01C0D5
S113353080E027960FB6F894DEBF0FBECDBFDF91B3
S1133540CF911F910F91FF90EF90DF90CF90BF909C
S1133550AF909F908F9008952F923F924F925F92D9
S11335606F927F928F929F92AF92BF92CF92DF928F
S1133570EF92FF920F931F93CF93DF931C0160D8B8
S11335802B013C018091DC1A9091DD1AA091DE1A86
S1133590B091DF1A481659066A067B0608F053C034
S11335A03BC00780F085E02D80809180A280B380AD
S11335B0C085D1858E010E5F1F4FC8010E94E508AA
S11335C0EC89FD89CE0119958F8982FF25C08E85EE
S11335D09F85A889B989880D991DAA1DBB1D8816C8
S11335E09906AA06BB0670F48A839B83AC83BD83C9
S11335F0DB87CA87B8018091E61A9091E71A0E9486
S1133600A8080AC0C12CD12C760100E010E0A50165
S1133610940160E0CE0142DFE091E61AF091E71AEE
S113362080818111BECF8091E41A9091E51A909324
S1133630E71A8093E61AF093E51AE093E41A81E01E
S1133640F101808302C0F10110824092DC1A509291
S1133650DD1A6092DE1A7092DF1AC301B201DF91A3
S1133660CF911F910F91FF90EF90DF90CF90BF907B
S1133670AF909F908F907F906F905F904F903F900E
S11336802F9008950895279A2F9A2FEF80E792E0BC
S1133690215080409040E1F700C000001F9AF5CF10
S11336A0279A2F9A2FEF87EA91E621508040904085
S11336B0E1F700C000001F9AF5CFCF93DF9300D04D
S11336C01F92CDB7DEB761E070E080E090E08ED964
S11336D00E94201369837A838B839C8311E04FE1DA
S11336E050E060E070E0CE01019609D982B18127F3
S11336F082B9F5CFCF93DF9300D01F92CDB7DEB759
S113370062E070E080E090E071D90E942013698348
S11337107A838B839C834EE350E060E070E0CE01BB
S11337200196EDD882B1805882B9F5CF8F929F92DD
S1133730AF92BF92CF92DF92EF92FF920F931F93BB
S1133740CF93DF93CDB7DEB728970FB6F894DEBFDB
S11337500FBECDBF80915C1C90915D1C892B89F4B8
S113376081E00E94640C90935D1C80935C1C009724
S113377041F000E020E030E0A90160E070E00E9448
S1133780C40BE12CF12C02E020E030E040EC50E0EE
S11337906BE177E08DE59BE10E94BF1101E020E041
S11337A030E040EC50E061E277E08AE79BE10E9480
S11337B0BF110E94B6038C010E94DE044C010E94DA
S11337C0D7040E94B2055C010E94B2056C011A8301
S11337D00983BC82AB829E838D8303E09E012F5FAD
S11337E03F4F40EC50E067E277E08AED93E00E94BF
S11337F0BF119A828982BC82AB82DE82CD829E0115
S11338002F5F3F4F40EC50E062E377E08FE595E0B7
S11338100E94BF1128960FB6F894DEBF0FBECDBF2D
S1133820DF91CF911F910F91FF90EF90DF90CF9098
S1133830BF90AF909F908F90089561EB73E083E009
S1133840C2D781D0882329F08CE397E00C94962D7D
S1133850089581B1816881B90E949C0580E00E942D
S1133860EE2764DF85E010D060E070E081E0AED345
S113387083E00C949D030895E0DF82E597E00E94C5
S1133880962D0E94DE12FFCFEEE5FCE12BE333E23E
S1133890318320832EE333E23383228329E433E22A
S11338A0358324832DE433E23783268323E533E20F
S11338B0318720872FE533E23387228724E633E2FA
S11338C03587248720E733E23787268720E533E2EC
S11338D0318B208B25E733E2338B228B22E833E2D2
S11338E0358B248B682FCF013DC108956530F1F4E9
S11338F0FA0180818F7390E0982F88272181822B91
S113390090930902809308028281F0E48F9FC001A2
S11339101124FA01238126952695822B9093070280
S11339208093060281E08093FE1A0895643051F07A
S113393080E090E49093070280930602909309023A
S11339408093080208950F931F9306E71CE120E07B
S113395034E244EF50E060E087E20E94282890932C
S1133960001B8093FF1A21E0892B09F020E0822FAD
S11339701F910F9108958091FE1A08958091FF1A66
S11339809091001B009759F040E060E070E00E94C5
S11339907928843031F41092FE1A80E0089582E090
S11339A0089583E008958091FF1A9091001B009779
S11339B039F064E00E94C528853021F083E0089541
S11339C082E0089580E008956091080270910902F0
S11339D080E090E00E94CA2A20E030E048EC52E403
S11339E00E94582B20E038EF4FE756E40C94362A17
S11339F00895609106027091070280E090E00E94B1
S1133A00CA2A20E030E045E253E40E94582B20E02B
S1133A1038EF4FE756E40E94362A20E030E040E2D7
S1133A2052E40C94D1290895CF93DF9390E0FC01E4
S1133A30EE0FFF1FE80FF91FEE0FFF1FEF5FF44EAD
S1133A40238121110AC0EF01E091661CF091671CEB
S1133A506A8188819981199512C0DC01AA0FBB1F64
S1133A60ED01C80FD91FCC0FDD1FCF5FD44EE091FD
S1133A70701CF091711C6A81888199811995DF917C
S1133A80CF910895CF93DF9390E0FC01EE0FFF1FD9
S1133A90E80FF91FEE0FFF1FEF5FF44E2381211192
S1133AA00AC0EF01E091701CF091711C6A81888159
S1133AB09981199512C0DC01AA0FBB1FED01C80F33
S1133AC0D91FCC0FDD1FCF5FD44EE091661CF0915F
S1133AD0671C6A81888199811995DF91CF91089536
S1133AE00F2EFEE5CF2EFCE1DF2EF02D04E0C1E029
S1133AF0DBE110E08C81813069F0E8F0823039F547
S1133B00D6011C96ED91FC911D976A81888199815B
S1133B1019951DC08D818F5F8A3010F48D8317C075
S1133B201D82D6011C96ED91FC911D976A818881B6
S1133B30998119950CC08D81882331F0812FA2DFE2
S1133B408D8181508D8303C00C83812F6DDF1F5FB6
S1133B502696143079F665E070E080E090E00E94EB
S1133B60DD14C5CFCF92DF92EF92FF920F931F9394
S1133B70CF93DF93062F0F2EFEE5EF2EFCE1FF2EF1
S1133B80F02DD7011896ED91FC91199766E087E224
S1133B9090E01995C1E0DBE10F2EF8E2CF2ED12C95
S1133BA0F02DD982C88286E08A831B8214E01C83AC
S1133BB080E03ADFD7011896ED91FC91199767E000
S1133BC087E290E01995DF82CE8287E088871986A4
S1133BD01A8781E029DFD7011896ED91FC91199796
S1133BE065E083E390E01995D7011896ED91FC9177
S1133BF0199761E084E390E0199584E390E09D8750
S1133C008C8785E08E871F86188B82E00DDFD701B5
S1133C101896ED91FC91199764E081E091E0199573
S1133C20D7011896ED91FC91199761E082E091E03B
S1133C30199582E091E09B8B8A8B1C8B1D8A1E8BCD
S1133C4083E0F2DEE12CF12C20E030E040EC50E0A7
S1133C5064E677E080E79DE10E94BF11DF91CF9198
S1133C601F910F91FF90EF90DF90CF9008950F93E5
S1133C701F93CF93DF93C82FD0E08E01000F111F45
S1133C80D801AC0FBD1FAA0FBB1FAF5FB44EE091AC
S1133C906A1CF0916B1C12966C9112978D919C91F9
S1133CA01995C00FD11FCC0FDD1FCF5FD44E81E01B
S1133CB08C83DF91CF911F910F9108950F931F93E0
S1133CC0CF93DF93C82FD0E08E01000F111FD801CE
S1133CD0AC0FBD1FAA0FBB1FAF5FB44EE0916A1CAF
S1133CE0F0916B1C12966C9112978D919C91199581
S1133CF0C00FD11FCC0FDD1FCF5FD44E82E08C8369
S1133D00DF91CF911F910F910895282F30E0F90191
S1133D10EE0FFF1FE20FF31FEE0FFF1FEF5FF44ED6
S1133D2093E09483AFCE0895282F30E0F901EE0F8D
S1133D30FF1FE20FF31FEE0FFF1FEF5FF44E94E03F
S1133D40948372CE089590E0FC01EE0FFF1FDF0113
S1133D50A80FB91FAA0FBB1FAF5FB44E24E015967E
S1133D602C931597FD011482089590E0FC01EE0F49
S1133D70FF1FDF01A80FB91FAA0FBB1FAF5FB44E0F
S1133D8021E015962C931597FD01148208950F9345
S1133D901F93CF93DF931F921F92CDB7DEB78C0191
S1133DA019822DC0E0917D1BEC3250F481E08E0F1E
S1133DB080937D1BF0E0E155F44E8A81808302C03C
S1133DC010927D1B8A818A30D1F440917D1B50E092
S1133DD0FA01E355F44E1082415051099E012F5FC0
S1133DE03F4F6FEA7BE18091801B9091811B0E9481
S1133DF03910898181110E94BA0910927D1BBE017C
S1133E006E5F7F4FC80158D6882361F20F900F90E0
S1133E10DF91CF911F910F9108950F931F93CF932B
S1133E20DF938C01EB018091801B9091811B0E9498
S1133E304F0FB80189E19BE10E94642D209779F02E
S1133E40E9E1FBE101900020E9F7319780E290E09D
S1133E5091838083BE0189E19BE10E94592DE9E1B0
S1133E60FBE1DF010D900020E9F711978DE09AE066
S1133E7011969C938E9312961C9201900020E9F760
S1133E803197E951FB41AE2F89E19BE1AC016A2FE7
S1133E908091821B9091831BBFD5811111C008E2D0
S1133EA015E020E030E04DE250E069E07CE18091F3
S1133EB0801B9091811B0E947C1089E09CE102C0D0
S1133EC080E090E0DF91CF911F910F9108952F92A0
S1133ED03F924F925F926F927F928F929F92AF9296
S1133EE0BF92CF92DF92EF92FF920F931F93CF93E3
S1133EF0DF935C01FC0101900020E9F731976F0129
S1133F00C81AD90A5C2C0F2EF5E08F2EFAE09F2EEA
S1133F10F02DE12CF12C4C2C3701F401018112819C
S1133F20E80109900020E9F72197C01BD10B3C2E32
S1133F30F9E0CF16D10458F0F4012080FEE02F12EE
S1133F4006C0B801C5010E94342D892B09F5442D02
S1133F50351408F44C2F50E0B801C5010E946B2DB4
S1133F60892B49F4F301EE0FFF1FE60DF71DEB5FFC
S1133F70F54F20800DC08FEFE81AF80AE3E08E0EAB
S1133F80911CF1E1EF16F10439F66894222424F827
S1133F90822DDF91CF911F910F91FF90EF90DF90D1
S1133FA0CF90BF90AF909F908F907F906F905F90D5
S1133FB04F903F902F90089530DF89CF08958091DE
S1133FC0801B9091811B0C944F0F08958F929F92A8
S1133FD0AF92CF92EF920F931F93CF93C82F8B0181
S1133FE041E060E070E088EC90E00E94230F909341
S1133FF0811B8093801B10937F1B00937E1B0F2ECD
S1134000F7EC8F2EFEE19F2EF02D6894AA24A6F8DB
S11340106894CC24C6F8E12C00E023E040E051EEA3
S113402060E070E08C2F3DD49093831B8093821BBF
S1134030E091661CF091671C64E087E091E01995BB
S1134040CF911F910F91EF90CF90AF909F908F9051
S11340500895882349F0E091701CF091711C64E08C
S113406088E091E019950895E091661CF091671C31
S113407064E088E091E01995089560E070E08BE8D1
S113408097E0CBDEE9E0FCE101900020E9F731970D
S1134090E950FC4181E0759708F080E00895CF93E2
S11340A0DF93EC0160E070E08CE997E0B6DEE9E0D4
S11340B0FCE101900020E9F7EA51FC4139F469E0A0
S11340C07CE1CE010E94642D80E002C0188281E070
S11340D0DF91CF910895FC0101900020E9F79F0141
S11340E0215131092817390729F4BC018AEC97E0DA
S11340F063CF089589E00895FC0101900020E9F759
S11341009F01215131092817390729F4BC0189ED90
S113411097E052CF089589E00895FC0101900020B2
S1134120E9F79F01215231092817390729F4BC0105
S113413088EE97E041CF089589E0089560E070E04B
S113414087E298E039CF08950F931F93E82FF0E0AA
S1134150EE0FFF1FEF5FF54F6081718180E398E000
S11341602BDF811114C008E215E020E030E04DE2BD
S113417050E069E07CE18091801B9091811B0E945A
S11341807C10882321F089E09CE1A1DE03C089E052
S11341909CE19DDE1F910F9108950F931F93CF9380
S11341A0DF931F92CDB7DEB7DB0111969C91119777
S11341B0953108F0B4C0992381F160E070E0272FB5
S11341C030E0462F50E0FD01E40FF51F92819295F7
S11341D09F709A3010F0995C01C0905DF901E65629
S11341E0F44E90832F5F3F4FFD01E40FF51F928142
S11341F09F70492F50E04A30510514F0995C01C07A
S1134200905DF901E656F44E90837E5F6F5F1196E0
S11342109C911197691798F201C070E0E72FF0E0C4
S1134220E656F44E10824C91811103C089E398E064
S113423002C08BE398E02AE93BE13F932F931F925E
S11342404F939F938F938FE398E09F938F938CED7D
S11342509BE19F938F930E94C62D60E070E08CEDEC
S11342609BE1AADE0FB6F894DEBF0FBECDBF81116D
S113427059C008E215E020E030E04DE250E069E08A
S11342807CE18091801B9091811B0E947C1088238B
S113429009F447C089E09CE11ADE8E3009F042C07F
S11342A087E0898380917E1B90917F1B892BA9F1E4
S11342B0BE016F5F7F4F89E09CE168D18093841BCE
S11342C0E981F0E0E75FF34EDF010D900020E9F7AC
S11342D01197AE1BBF0BAA2391F0BB27CD01019709
S11342E09C0112F42F5F3F4F359527952093851B32
S11342F0AF014F5F5F4F64E186E89BE173D101E05A
S113430010E020E030E046E150E064E87BE1809199
S11343107E1B90917F1B0E948E0F8EE003C084E170
S113432001C080E00F90DF91CF911F910F9108950C
S1134330813019F06FE478E002C068E279E083E547
S113434098E03ACE08959F938F9384E898E09F93E2
S11343508F938CED9BE19F938F930E94C62D60E019
S113436070E08CED9BE128DE0F900F900F900F9082
S11343700F900F9008952F923F924F925F926F92F9
S11343807F928F929F92AF92BF92CF92DF92EF92E1
S1134390FF920F931F93CF93DF93CDB7DEB7A09710
S11343A00FB6F894DEBF0FBECDBF61EB78E08DEBA6
S11343B098E033DD8CDD8111A3C080E2E1E2F2E01C
S11343C0DE01119601900D928A95E1F79E012F5F0F
S11343D03F4F6901E12CF12C0F2EF9ECAF2EF8E0E0
S11343E0BF2EF02D0CED1BE10F2EF2EE4F2EF8E058
S11343F05F2EF02D0F2EF9EF8F2EF8E09F2EF02D6B
S11344000F2EF3E16F2EF9E07F2EF02D3E2C2F2C92
S1134410FF92EF92BF92AF921F930F930E94C62D0B
S113442060E070E0C801F9DC52DD0F900F900F904E
S11344300F900F900F90811163C032E03E15E8F4A5
S1134440F60183818F9382818F9381818F93808101
S11344508F93FF92EF925F924F921F930F930E945C
S1134460C62D60E070E0C801D8DC31DD0FB6F894E9
S1134470DEBF0FBECDBF811143C02F923F929F92EA
S11344808F921F930F930E94C62D60E070E0C801C5
S1134490C4DC1DDD0F900F900F900F900F900F90C4
S11344A081112EC02F923F927F926F921F930F9390
S11344B00E94C62D60E070E0C801AFDC08DD0F90FB
S11344C00F900F900F900F900F90811119C03FEF34
S11344D0E31AF30A84E0C80ED11C98E0E916F1044B
S11344E009F094CF60E070E08BE299E096DCEFDCB9
S11344F0811106C060E070E08CE399E08EDCE7DCBB
S1134500A0960FB6F894DEBF0FBECDBFDF91CF915A
S11345101F910F91FF90EF90DF90CF90BF90AF90DD
S11345209F908F907F906F905F904F903F902F90CF
S11345300895EF92FF920F931F93CF93DF93EC01B3
S11345408B017A0181E0F4DE81110DC0CE01D4DD4E
S1134550811109C0C801E1DD811105C0C701BBDDBE
S1134560811101C0EBDDDF91CF911F910F91FF907D
S1134570EF90089590E0FC01EE0FFF1F8E0F9F1F38
S1134580FC01EB5FF54F818192810895DC01009776
S113459029F1FB012081FC0101900020E9F731970A
S11345A0E81BF90B822F90E0E817F907C8F080E0C8
S11345B008C0880F382F330F330F830F8053890FB0
S11345C02F5FFD01E20FF11D908130ED390F3A307C
S11345D010F49111EECFFB012083089580E008953B
S11345E080E008950F931F93CF93DF93DC01EA01DA
S11345F02097E1F1FA0101900020E9F73197E41BDB
S1134600F50B329710F532C08D01040F151F30E001
S1134610AE01420F531FFA019081913428F0975351
S1134620592F5295507F03C0592F5295507F2C0F0C
S11346303D1FF9019181913410F0975301C09053BB
S1134640950FF80190838F5F01C080E0282F220F1F
S1134650482F50E0FE0101900020E9F73197EC1B50
S1134660FD0B4E175F0710F48613CECFDF91CF9169
S11346701F910F910895FC0180810895FC01208110
S113468081E090E002C0880F991F6A95E2F78223C7
S11346900895FC01808186230895FC0160830895B8
S11346A0FC0110820895FC01408121E030E002C049
S11346B0220F331F6A95E2F7242B20830895FC010F
S11346C02081622B60830895FC01408121E030E069
S11346D002C0220F331F6A95E2F72427208308952E
S11346E0FC012081622760830895FC01908121E010
S11346F030E002C0220F331F6A95E2F72095292388
S113470020830895FC019081609569236083089556
S11347108091391C860F8093391C90913C1C9130F8
S113472079F028F09230A9F0933019F108956F3F91
S113473009F048C01092391C81E080933C1C089514
S1134740663809F03FC01092381C82E080933C1C0C
S11347500895E091381C81E08E0F8093381CF0E0BE
S1134760EA5CF34E6083823069F583E080933C1CFD
S113477008959091381C21E0290F2093381C96301D
S113478009F581110EC0E6E3FCE1808190E0982FE9
S113479088272181820F911D90933E1C80933D1C9C
S11347A004C010923E1C10923D1C10923C1CE091DF
S11347B03A1CF0913B1C309729F080913D1C90915C
S11347C03E1C199508958F929F92AF92CF92EF92CB
S11347D00F93CF93DF93EB010F2EF8E88F2EF3E2C4
S11347E09F2EF02D6894AA24A4F86894CC24C4F8CD
S11347F0E12C00E023E040E855E260E070E051D0B5
S11348009093401C80933F1CD0933B1CC0933A1C54
S1134810DF91CF910F91EF90CF90AF909F908F90B9
S11348200895CF93DF93CDB7DEB729970FB6F894E9
S1134830DEBF0FBECDBF89E0E1E4F2E09E012F5F51
S11348403F4FD90101900D928A95E1F710923E1CD9
S113485010923D1C80913F1C9091401C009731F0B8
S1134860422F532F69E0D8D080E001C082E029961E
S11348700FB6F894DEBF0FBECDBFDF91CF91089580
S113488020913D1C30913E1C2115310529F4FC0179
S11348901182108281E00895FC013183208380E03D
S11348A008952F923F924F925F926F927F928F92D0
S11348B09F92AF92CF92EF92FF920F931F93CF9359
S11348C0DF93CDB7DEB7F82E2A013B0188E090E0F4
S11348D096D78C018F2D90E0880F991FFC01EF5B18
S11348E0F34E11830083FC01E65FFD4F80819181CB
S11348F0D8018D939C936C2D70E084E090E065D793
S11349001C0161E070E086E090E05FD77C014C2DF3
S1134910B1012BD5F801F582E4826A2D70E084E0C0
S113492090E053D71C0161E070E086E090E04DD741
S11349307C014A2DB10119D5D8011396FC92EE924F
S1134940129717969C928E921697FFB6F894ED9153
S1134950FC91119736978081826080838D909C9022
S1134960C301B20117D620E030E040E051E4A0D604
S11349709B01AC0160E074E284E79BE477D520E01E
S113498030E040E85FE30DD5D9D5F4013297608378
S1134990D801ED91FC911197359788E98083ED91C9
S11349A0FC91349786E08083FFBEC801DF91CF91EC
S11349B01F910F91FF90EF90CF90AF909F908F90A9
S11349C07F906F905F904F903F902F900895CF937A
S11349D0DF93EC01EA81FB81938182812581981B1D
S11349E0922384819817A1F0938126952923A0818D
S11349F0B181A20FB11D6C939F5F25819223938394
S1134A00E881F981359780818062808380E001C0EC
S1134A1082E0DF91CF910895EF92FF920F931F935D
S1134A20CF93DF937C01DC011296ED91FC911397F7
S1134A3093818281981B858198238481891B8617A1
S1134A4098F1662341F1842F952FDC016150462FA4
S1134A5050E04F5F5F4F480F591FE701EA81FB8128
S1134A60938182812581981B92238481981779F000
S1134A708C91938126952923608171818B01020F8A
S1134A80111DE80188839F5F858198239383119684
S1134A90A417B50711F7D701ED91FC9135978081E3
S1134AA08062808380E001C082E0DF91CF911F911A
S1134AB00F91FF90EF900895DC011496ED91FC9115
S1134AC0159793818281981789F0928185818695C3
S1134AD08923A081B181A80FB11D8C91DB018C9336
S1134AE09F5F85819823928380E0089583E00895F1
S1134AF01F920F920FB60F9211240BB60F922F93A1
S1134B003F934F935F936F937F938F939F93AF9351
S1134B10BF93CF93DF93EF93FF93A091411CB09188
S1134B20421C109711F16091C6001496ED91FC910E
S1134B301597938182812581981B922384819817EC
S1134B4061F0838126952823C081D181C20FD11DB4
S1134B5068838F5F9581892383831696ED91FC91F9
S1134B601797309711F0CD011995FF91EF91DF91CF
S1134B70CF91BF91AF919F918F917F916F915F91F1
S1134B804F913F912F910F900BBE0F900FBE0F903E
S1134B901F9018951F920F920FB60F9211240BB607
S1134BA00F922F938F939F93AF93BF93EF93FF93A2
S1134BB0E091411CF091421C3097B9F00280F381DE
S1134BC0E02D938182819817B1F092818581282FFD
S1134BD026952923A081B181A20FB11D2C919F5F3D
S1134BE0892382832093C6000BC0E1ECF0E080812E
S1134BF08F7D808305C0E1ECF0E080818F7D808330
S1134C00FF91EF91BF91AF919F918F912F910F9051
S1134C100BBE0F900FBE0F901F9018951F920F920E
S1134C200FB60F9211240BB60F922F933F934F930D
S1134C305F936F937F938F939F93AF93BF93CF9320
S1134C40DF93EF93FF93A091431CB091441C109702
S1134C5011F16091CE001496ED91FC91159793811A
S1134C6082812581981B92238481981761F0838126
S1134C7026952823C081D181C20FD11D68838F5FFF
S1134C809581892383831696ED91FC91179730972C
S1134C9011F0CD011995FF91EF91DF91CF91BF9163
S1134CA0AF919F918F917F916F915F914F913F91C0
S1134CB02F910F900BBE0F900FBE0F901F90189561
S1134CC01F920F920FB60F9211240BB60F922F93CF
S1134CD08F939F93AF93BF93EF93FF93E091431C04
S1134CE0F091441C3097B9F00280F381E02D938158
S1134CF082819817B1F092818581282F26952923E6
S1134D00A081B181A20FB11D2C919F5F8923828361
S1134D102093CE000BC0E9ECF0E080818F7D80838E
S1134D2005C0E9ECF0E080818F7D8083FF91EF91F5
S1134D30BF91AF919F918F912F910F900BBE0F90C8
S1134D400FBE0F901F9018951F920F920FB60F92DF
S1134D5011240BB60F922F933F934F935F936F934E
S1134D607F938F939F93AF93BF93CF93DF93EF93EF
S1134D70FF93A091451CB091461C109711F16091CE
S1134D80D6001496ED91FC9115979381828125812B
S1134D90981B92238481981761F083812695282398
S1134DA0C081D181C20FD11D68838F5F9581892312
S1134DB083831696ED91FC911797309711F0CD01EE
S1134DC01995FF91EF91DF91CF91BF91AF919F9191
S1134DD08F917F916F915F914F913F912F910F90A0
S1134DE00BBE0F900FBE0F901F9018951F920F923D
S1134DF00FB60F9211240BB60F922F938F939F939C
S1134E00AF93BF93EF93FF93E091451CF091461C41
S1134E103097B9F00280F381E02D93818281981755
S1134E20B1F092818581282F26952923A081B18113
S1134E30A20FB11D2C919F5F892382832093D600FA
S1134E400BC0E1EDF0E080818F7D808305C0E1ED52
S1134E50F0E080818F7D8083FF91EF91BF91AF91CE
S1134E609F918F912F910F900BBE0F900FBE0F90BB
S1134E701F9018951F920F920FB60F9211240BB624
S1134E800F922F933F934F935F936F937F938F93DF
S1134E909F93AF93BF93CF93DF93EF93FF93A0912F
S1134EA0471CB091481C109711F16091360114967B
S1134EB0ED91FC911597938182812581981B922312
S1134EC08481981761F0838126952823C081D1813C
S1134ED0C20FD11D68838F5F9581892383831696C2
S1134EE0ED91FC911797309711F0CD011995FF9131
S1134EF0EF91DF91CF91BF91AF919F918F917F916E
S1134F006F915F914F913F912F910F900BBE0F9036
S1134F100FBE0F901F9018951F920F920FB60F920D
S1134F2011240BB60F922F938F939F93AF93BF933C
S1134F30EF93FF93E091471CF091481C3097B9F030
S1134F400280F381E02D938182819817B1F09281E0
S1134F508581282F26952923A081B181A20FB11D17
S1134F602C919F5F89238283209336010BC0E1E358
S1134F70F1E080818F7D808305C0E1E3F1E08081F1
S1134F808F7D8083FF91EF91BF91AF919F918F911E
S1134F902F910F900BBE0F900FBE0F901F9018957E
S1134FA0CF93DF931F92CDB7DEB7BE016F5F7F4F04
S1134FB08091491C90914A1C7FDD8111F6CF898133
S1134FC090E00F90DF91CF910895682F8091491C54
S1134FD090914A1CFCDC80E090E008958F929F92AF
S1134FE0AF92CF92EF920F93812C912C6894AA24C4
S1134FF0A7F86894CC24C7F8E12C00E023E040E053
S113500051EE60E070E04DDC90934A1C8093491CA3
S1135010E8E7FCE182E192E09183808393838283D9
S11350200F91EF90CF90AF909F908F9008958091C3
S1135030591C81110CC08CE08093B8008FEF8093D1
S1135040BB0084E08093BC0081E08093591C0895E8
S1135050AF92BF92CF92DF92EF92FF920F931F9382
S1135060CF93DF93A82EB62E69017A0184E090E0F5
S1135070C6D3EC01892B61F1A88281E0B81212C079
S1135080C701B60120EA36E841E050E074D3DA0102
S1135090C9014097A109B109B695A7959795879538
S11350A0898311C0C701B60120E83AE146E050E027
S11350B062D3DA01C9014097A109B109B695A79550
S11350C09795879589831B830A838C2F9D2F02C014
S11350D080E090E0DF91CF911F910F91FF90EF90CE
S11350E0DF90CF90BF90AF9008958091BC00817005
S11350F00895FF920F931F93CF93DF930097D1F1FD
S11351004A30D0F5F42E8B01EC01EFDF811136C06B
S113511080914C1C90914D1CC817D90741F087DF32
S113512089818093B800D0934D1CC0934C1C81E0BE
S11351308F0D80934E1C8881880F80934F1CFF2015
S113514089F0F801A0E5BCE14FEF4F0D642F70E04A
S1135150CB010196B801680F791F81918D93E617F1
S1135160F707D9F788EF8093200285EA8093BC0083
S113517084E005C086E003C087E001C082E0DF91DF
S1135180CF911F910F91FF9008951F93CF93DF93B9
S1135190009729F16B3028F5162FEC01A6DF811159
S11351A022C080914C1C90914D1CC817D90741F026
S11351B03EDF89818093B800D0934D1CC0934C1C72
S11351C010934E1C8881880F816080934F1C88EF58
S11351D08093200285EA8093BC0085E005C086E0C8
S11351E003C087E001C082E0DF91CF911F91089551
S11351F01F920F920FB60F9211240BB60F922F939A
S11352003F934F935F936F937F938F939F93AF934A
S1135210BF93EF93FF93E091B9008E2F90E0FC01D0
S11352203897E135F10508F075C08827E458FF4F39
S11352308F4FC3C210924B1CE0914B1C80914E1CAB
S1135240E81770F481E08E0F80934B1CF0E0E15B73
S1135250F34E80818093BB0085E88093BC0072C0CC
S113526084E98093BC0080914C1C90914D1CDC011E
S11352701296ED91FC911397309709F463C020E0E6
S113528040E050E064E019955DC0E0914B1C81E082
S11352908E0F80934B1C8091BB00F0E0E15BF34EDA
S11352A080838091B900803411F410924B1C2091BA
S11352B04B1C30E080914E1C90E001972817390771
S11352C024F485EC8093BC003DC085E88093BC0049
S11352D039C08091BB00E0914B1CF0E0E15BF34EE0
S11352E0808384E98093BC0080914C1C90914D1C78
S11352F0DC011296ED91FC911397309719F12091EE
S11353004E1C4FE45CE165E019951CC085EA80936E
S1135310BC0018C08091B9008093200284E080937F
S1135320BC0080914C1C90914D1CDC011296ED91B7
S1135330FC911397309731F020E040E050E0609109
S113534020021995FF91EF91BF91AF919F918F9199
S11353507F916F915F914F913F912F910F900BBE71
S11353600F900FBE0F901F901895FC01411101C0C2
S113537067D3842F90E09C01215031098223932329
S1135380892B09F05DD3413808F05AD31282138275
S11353904483440F415045837183608380E090E0EF
S11353A008955058BB27AA270ED048C139D130F0F0
S11353B03ED120F031F49F3F11F41EF42EC10EF4BF
S11353C0E095E7FB24C1E92F4AD180F3BA176207BD
S11353D073078407950718F071F49EF562C10EF403
S11353E0E0950B2EBA2FA02D0B01B90190010C01F1
S11353F0CA01A0011124FF27591B99F0593F50F409
S1135400503E68F11A16F040A22F232F342F442760
S1135410585FF3CF469537952795A795F040539558
S1135420C9F77EF41F16BA0B620B730B840BBAF028
S11354309150A1F0FF0FBB1F661F771F881FC2F793
S11354400EC0BA0F621F731F841F48F487957795A7
S11354506795B795F7959E3F08F0B3CF9395880F5E
S113546008F09927EE0F9795879508950CD0E6C01C
S1135470DED040F0D5D030F021F45F3F19F0C7C042
S1135480511110C1CAC0EBD098F39923C9F3552325
S1135490B1F3951B550BBB27AA2762177307840723
S11354A038F09F5F5F4F220F331F441FAA1FA9F3D9
S11354B033D00E2E3AF0E0E830D091505040E695CB
S11354C0001CCAF729D0FE2F27D0660F771F881F2C
S11354D0BB1F261737074807AB07B0E809F0BB0B1B
S11354E0802DBF01FF2793585F4F2AF09E3F51053F
S11354F068F08DC0D7C05F3FECF3983EDCF386952F
S113550077956795B795F7959F5FC9F7880F911DB4
S11355109695879597F90895E1E0660F771F881FA0
S1135520BB1F621773078407BA0720F0621B730B53
S1135530840BBA0BEE1F88F7E095089598D088F095
S11355409F5790F0B92F9927B751A0F0D1F0660F6B
S1135550771F881F991F1AF0BA95C9F712C0B13086
S113556081F09FD0B1E008959CC0672F782F8827E1
S1135570B85F39F0B93FCCF3869577956795B395C5
S1135580D9F73EF490958095709561957F4F8F4F34
S11355909F4F0895E89409C097FB3EF49095809539
S11355A0709561957F4F8F4F9F4F9923A9F0F92FE5
S11355B096E9BB279395F695879577956795B79563
S11355C0F111F8CFFAF4BB0F11F460FF1BC06F5F49
S11355D07F4F8F4F9F4F16C0882311F096E911C05B
S11355E0772321F09EE8872F762F05C0662371F07C
S11355F096E8862F70E060E02AF09A95660F771F90
S1135600881FDAF7880F9695879597F9089597F983
S11356109F6780E870E060E008959FEF80EC089554
S113562000240A941616170618060906089500247D
S11356300A9412161306140605060895092E0394F7
S1135640000C11F4882352F0BB0F40F4BF2B11F46B
S113565060FF04C06F5F7F4F8F4F9F4F089557FDCA
S11356609058440F551F59F05F3F71F04795880FCC
S113567097FB991F61F09F3F79F087950895121663
S113568013061406551FF2CF4695F1DF08C016160F
S113569017061806991FF1CF8695710561050894C0
S11356A00895E894BB2766277727CB0197F90895D7
S11356B00BD0C4CFB5DF28F0BADF18F0952309F07A
S11356C0A6CFABCF1124EECFCADFA0F3959FD1F3C1
S11356D0950F50E0551F629FF001729FBB27F00D9C
S11356E0B11D639FAA27F00DB11DAA1F649F6627F1
S11356F0B00DA11D661F829F2227B00DA11D621F40
S1135700739FB00DA11D621F839FA00D611D221FF9
S1135710749F3327A00D611D231F849F600D211DDD
S1135720822F762F6A2F11249F5750408AF0E1F080
S113573088234AF0EE0FFF1FBB1F661F771F881FC9
S113574091505040A9F79E3F510570F060CFAACF09
S11357505F3FECF3983EDCF3869577956795B795B4
S1135760F795E7959F5FC1F7FE2B880F911D9695DE
S1135770879597F90895A1E21A2EAA1BBB1BFD0178
S11357800DC0AA1FBB1FEE1FFF1FA217B307E4071C
S1135790F50720F0A21BB30BE40BF50B661F771F74
S11357A0881F991F1A9469F7609570958095909554
S11357B09B01AC01BD01CF010895EE0FFF1F881FAF
S11357C08BBF0790F691E02D19940F931F93CF93FD
S11357D0DF93869F8001879F100D969F100D1124E3
S11357E0C8010DD0EC01009721F0A80160E070E041
S11357F034D1CE01DF91CF911F910F9108950F9372
S11358001F93CF93DF938230910510F482E090E0F0
S1135810E091761CF091771C20E030E0A0E0B0E04D
S1135820309719F14081518102811381481759073A
S1135830C8F08417950769F4109731F012960C9309
S1135840129713961C9327C00093761C1093771C11
S113585022C02115310519F04217530718F49A0193
S1135860BD01EF01DF01F801DBCF21153105F9F0AE
S1135870281B390B2430310580F48A819B81611502
S1135880710521F0FB019383828304C09093771CFC
S11358908093761CFE01329644C0FE01E20FF31F92
S11358A08193919322503109398328833AC02091FE
S11358B0741C3091751C232B41F420910202309109
S11358C003023093751C2093741C209100023091C4
S11358D001022115310541F42DB73EB74091040270
S11358E050910502241B350BE091741CF091751C3A
S11358F0E217F307A0F42E1B3F0B2817390778F0A3
S1135900AC014E5F5F4F2417350748F04E0F5F1F01
S11359105093751C4093741C8193919302C0E0E0F2
S1135920F0E0CF01DF91CF911F910F910895CF93B4
S1135930DF93009709F481C0FC013297138212822D
S1135940A091761CB091771C109781F4208131814D
S1135950820F931F2091741C3091751C28173907EE
S113596051F5F093751CE093741C67C0ED0120E0C1
S113597030E0CE17DF0740F44A815B819E01411578
S11359805105F1F0EA01F5CFD383C28340815181FF
S1135990840F951FC817D90759F488819981840FFA
S11359A0951F0296918380838A819B81938382834E
S11359B02115310529F4F093771CE093761C3DC042
S11359C0E901FB83EA8349915991C40FD51FEC1770
S11359D0FD0761F480819181840F951F0296E9018E
S11359E099838883828193819B838A83E0E0F0E0BA
S11359F012968D919C911397009719F0FD01DC018B
S1135A00F7CF8D919C9111979D012E5F3F4F820F8F
S1135A10931F2091741C3091751C2817390769F461
S1135A20309729F41092771C1092761C02C01382CE
S1135A301282B093751CA093741CDF91CF910895CA
S1135A4081E090E0F8947DC3FB01DC0102C0019089
S1135A500D9241505040D8F70895DC0101C06D9378
S1135A6041505040E0F70895FB0151915523B1F0A6
S1135A70BF01DC01052E4D91442369F010D0D9F704
S1135A80CD010190002049F04D91411108D0C9F396
S1135A90FB014111EECF81E090E00197089540258C
S1135AA039F0403229F440294B57465E08F01894E7
S1135AB00895FB01DC010D900020E9F71197019096
S1135AC00D920020E1F70895FB01DC0101900D9295
S1135AD00020E1F70895FB01DC014150504088F0BB
S1135AE08D9181341CF08B350CF4805E61916134AE
S1135AF01CF06B350CF4605E861B611171F3990B1D
S1135B000895881BFCCFCF93DF93CDB7DEB7AE01EA
S1135B104A5F5F4FFA0161917191AF0180917A1CE4
S1135B2090917B1C61D0DF91CF9108950F931F93C7
S1135B30CF93DF93E0917A1CF0917B1C238121FFAA
S1135B401BC08C01D0E0C0E0F80181918F0160910D
S1135B507A1C70917B1CDB011896ED91FC911997CE
S1135B60882331F01995892B79F3DFEFCFEFECCF50
S1135B708AE01995892B19F08FEF9FEF02C08D2FC2
S1135B809C2FDF91CF911F910F9108950F931F9335
S1135B90CF93DF93CDB7DEB72E970FB6F894DEBF61
S1135BA00FBECDBF0E891F8986E08C831A830983BB
S1135BB08FEF9FE79E838D83AE01465E5F4F688DB6
S1135BC0798DCE01019610D0EF81F885E00FF11F99
S1135BD010822E960FB6F894DEBF0FBECDBFDF91B4
S1135BE0CF911F910F9108952F923F924F925F9200
S1135BF06F927F928F929F92AF92BF92CF92DF92D9
S1135C00EF92FF920F931F93CF93DF93CDB7DEB73D
S1135C102B970FB6F894DEBF0FBECDBF6C017B018E
S1135C208A01FC0117821682838181FFBFC1CE01E4
S1135C3001963C01F6019381F70193FD859193FF51
S1135C4081917F01882309F4ADC1853239F493FD34
S1135C50859193FF81917F01853221F4B60190E013
S1135C60D6D1E8CF912C212C312CFFE1F315D8F0BB
S1135C708B3279F038F4803279F08332A1F4232D19
S1135C8020611DC08D3261F0803369F4232D2160C1
S1135C9016C0832D8260382EE32DE4603E2E2AC088
S1135CA0F32DF8601DC037FC2DC020ED280F2A30DD
S1135CB040F08E32B9F436FC75C1232D2064322EA7
S1135CC019C036FE06C08AE0989E200D1124922E3B
S1135CD011C0EAE02E9E200D1124222EF32DF06235
S1135CE03F2E08C08C3621F4832D8068382E02C0E4
