S010000053455034456D62642E7372656380
S113000047C2000066C2000064C2000062C2000071
S113001060C200005EC200005CC200005AC2000060
S113002058C2000056C2000054C2000052C2000070
S113003099C700004EC200004CC200004AC2000032
S113004048C2000046C2000044C2000042C2000090
S113005040C200003EC200003CC200003AC20000A0
S113006038C200000C9437220C94892232C200005A
S113007030C200002EC200002CC200002AC20000C0
S113008028C2000026C2000024C2000022C20000D0
S11300900C94CD220C941F231CC200000C94B72591
S11300A018C2000016C2000014C2000012C20000F0
S11300B010C200000EC200000CC200000AC2000000
S11300C008C2000006C2000004C200000C946323AE
S11300D00C94B523FEC100000C94F9230C944B241A
S11300E0F8C10000BF01BF01BF01F90101021702FD
S11300F0BF01BF01F9010102D92549264926492634
S11301004926492649264926D925492649264926E4
S11301104926492649264926DB25492649264926D2
S11301204926492649264926492649264926492653
S11301304926492649264926DB25492649264926B2
S11301404926492649264926492649264926492633
S11301504926492649264926452649264926492627
S1130160492649264926492610264926492649264C
S11301704926492649264926492649264926492603
S11301804926492649264926042649264926492638
S1130190492649264926492628260EE717E10F2E27
S11301A0FEEAEF2EF7E1FF2EF02D80917D178823D4
S11301B011F10FB6F8940F92D8011796ED91FC91B6
S11301C01897C085D185CE01029631D580917117DB
S11301D081508093711780917D17815080937D1792
S11301E00F900FBE8B8D9C8D7ED4CE017CD48091DC
S11301F07D178111DECFF7018081823008F0ECD5C4
S11302000E94F317D2CFCF93DF93CDB7DEB76097B9
S11302100FB6F894DEBF0FBECDBFCE0101969A870C
S11302208987812C912CA12CB12C69847A84E0914A
S1130230E617F091E7178081882309F40FC107803E
S1130240F085E02D20803180428053800E944B1045
S1130250CE0101960E945D176B877C878D879E87F0
S11302608981811165C08B859C85AD85BE8582158C
S11302709305A405B50508F444C00E943411E09127
S1130280E617F091E7170780F085E02DA085B1858A
S1130290B88BAF87CD010296CAD4EF85F8898789D8
S11302A082FF21C04685578560897189420D531D9F
S11302B0641D751D720161010B851C852D853E85AC
S11302C0CF010E946C16882399F0C82CD92CEA2CF3
S11302D0FB2C00E010E0A201910160E08F85988979
S11302E00E94FF1605C08E7FAF85B88957968C9300
S11302F0AF85B8895496ED91FC915597CD01199528
S11303009FC020E0B201A1018B859C85AD85BE858F
S1130310481B590B6A0B7B0B8091E2179091E317F2
S11303200E94500B0E94341181118AC055D588C097
S11303300E94341185C0898188230CF481C04E80C9
S11303405F80D2011C968D919C911D97892B19F089
S1130350C20102966CD4CE0108960E945D178B01EF
S11303609C01E9810E2E000CFF0BEA30F10508F028
S113037067C08827EE58FF4F8F4F0C944F28F20127
S113038087898160878BCA80DB80EC80FD8046850D
S11303905785608971894C0D5D1D6E1D7F1DC201DD
S11303A00E946C16882309F44BC0D2015496ED9137
S11303B0FC915597C2011995F201878982FF40C0CB
S11303C04A815B816C817D8186859785A089B1890D
S11303D09A01AB01280F391F4A1F5B1FC82CD92C67
S11303E0EA2CFB2C00E010E060E0C2010E94FF1642
S11303F027C0D20157968C9157978E7F57968C932E
S11304001FC0F20187898160878B4A815B816C817F
S11304107D8146875787608B718B400F511F621F08
S1130420731F68017901C2010E946C1609C0F201B0
S1130430878981FD03C0C20156D302C08E7F878B9A
S1130440282D392D4A2D5B2D662D772D8091E217AD
S11304509091E317BFD781116ECFE9CE0E944B1064
S1130460CE0101960E945D176B877C878D879E87DE
S1130470898181115DCFE091E417F091E5178081C6
S113048021E0811120E0282C392C4A2C5B2C3ACF16
S113049011241FBECFEFD1E2DEBFCDBF00E00CBF01
S11304A017E0A0E0B2E0EAE2FAE500E00BBF02C028
S11304B007900D92AA33B107D9F729E1AAE3B7E06F
S11304C001C01D92AC37B207E1F70E94B4180C9436
S11304D0132D96CDCF93DF9300D01F92CDB7DEB707
S11304E081E00E94F81C62E070E080E090E00E94ED
S11304F00E1280E00E94F81C66E970E080E090E053
S11305000E940E120E94AE1C81E00E94061B0E94F3
S11305100C1D0E94891F9F938F938EE692E09F93F8
S11305208F930E94F5290E948A1E0E94891F9F931F
S11305308F9381E892E09F938F930E94F52980E541
S113054097E00E941E1D0E94891F00E517E01F937B
S11305500F939F938F938AE992E09F938F930E94C6
S1130560F529C8010E943A1D0E94891F9F938F9309
S11305701F930F938EEA92E09F938F930E94F52925
S1130580A80163EC72E084EE92E00E94681F0E946E
S1130590891F9F938F931F930F9383EC92E09F93F4
S11305A08F9384EE92E09F938F9385EF92E09F93D5
S11305B08F930E94F5290E946D1D0E94891F9F93AD
S11305C08F938BE293E09F938F930E94F5290FB64C
S11305D0F894DEBF0FBECDBF81E00E94671E0E946B
S11305E0891F9F938F938AE393E09F938F930E9435
S11305F0F52984EF91E00E94721E0E94891F9F9347
S11306008F9381E08F9384EF8F938BE593E09F9397
S11306108F930E94F5290FB6F894DEBF0FBECDBFAD
S11306200AE010E00F2EFBE7EF2EF3E0FF2EF02D93
S113063080E00E94731DD82E0E94891F9F938F9380
S11306401F930F93FF92EF920E94F5290F900F9042
S11306500F900F900F900F90F8E0DF16D9F180E023
S11306600E94721B66E371E080E090E00E940E122B
S113067001501109E9F627C0AFD3FECF4CE652E092
S113068060E070E0CE0101960E94B011F801C282D0
S11306908382D4829582C682A782D086B18683E083
S11306A00E94841BB80180E00E949C1D0E94891F47
S11306B09F938F93FF92EF920E94F5290F900F90D2
S11306C00F900F90DBCF81E00E94631B80E00E94BB
S11306D02D1BD2CF81E00E94541BEAE3F7E088E0AF
S11306E0818382E080830E94511069837A838B83A3
S11306F09C830AE317E00F2EFFE0CF2EF02D0F2E80
S1130700F0EA8F2EF02D0F2EF1E1DF2EF02D0F2EBB
S1130710F8EF9F2EF02D0F2EF2EDAF2EF02D0F2EB1
S1130720F6ECBF2EF02D0F2EFBE9EF2EF3E0FF2E9B
S1130730F02DA4CFEF92FF920F93E12CF12C082F10
S113074020E030E048E851E060EB73E08AE692E0B4
S11307500E94F00E0F91FF90EF90089590935B1913
S113076080935A19C7EBD3E068EE73E080E090E021
S11307700E940E120E94E020882351F01F928F9352
S1130780DF93CF930E94F5290F900F900F900F9055
S113079068E273E280E090E00E940E12E5CF0F93CE
S11307A0CF93DF93C82FD92F4FEF5FEFBA0180911A
S11307B05A1990915B19A7D6DF93CF9386EC93E0F7
S11307C09F938F930E94F52900E020E030E0A90177
S11307D060E070E080915A1990915B1907D50F90F1
S11307E00F900F900F90DF91CF910F9108959093F8
S11307F05B1980935A19CCEFD3E068EE73E080E084
S113080090E00E940E120E948D1990E0009731F042
S1130810039721F089ED93E00E94082A64E670E0D2
S113082080E090E00E940E120E94A21990E00097CE
S113083031F0039721F08AEE93E00E94082A64E6DF
S113084070E080E090E00E940E124FEF5FEFBA017B
S113085080915A1990915B1956D60E94C8194B0180
S11308605C010E94B3196B017C01C501B4010E94B3
S1130870BC187F936F93C701B6010E94BC187F9385
S11308806F93DF93CF930E94F52900E020E030E0DE
S1130890A90160E070E080915A1990915B19A6D487
S11308A00F900F900F900F900F900F90A6CFE7E04E
S11308B0F1E080818F6080830895E8E0F1E0908129
S11308C0907F908390818F70982B90830895E8E0B7
S11308D0F1E08081807F80830895CF93DF93DC01F2
S11308E0ECEBF7E001C0F901208131812A173B07C5
S11308F0D0F382819381AF01480F591FA417B50724
S113090049F412964D915C911397840F951F93832C
S11309108283DF0112968D919C911397ED01C80F8C
S1130920D91F2C173D07D9F42091BA073091BB0782
S1130930C217D30781F02A813B81820F931F13963C
S11309409C938E931297C081D1818881998111964D
S11309509C938E9307C01196DC93CE9303C011969B
S11309603C932E93AE17BF0711F0B183A083DF91A0
S1130970CF910895CF92DF92EF92FF920F931F933E
S1130980CF93DF93EC010E944B108091BA079091B2
S1130990BB07892B41F5ECEBF7E0A0ECB7E0B183A2
S11309A0A08313821282ECE5F7E1F093BB07E09396
S11309B0BA0713821282118210828CE99FE0139687
S11309C09C938E931297ED93FC939093B707809327
S11309D0B6079093B9078093B80780E090E89093A6
S11309E0B5078093B407E090B407F090B507C7014A
S11309F08C239D23892B09F066C0209709F466C0D7
S1130A00AE014C5F5F4F09F45EC00091B8071091CE
S1130A10B9070417150708F456C0C091BC07D09154
S1130A20BD07ECEBF7E002C0FE01E9012A813B813E
S1130A302417350728F42881398121153105A1F7B8
S1130A408091BA079091BB07C817D907E1F1C0801C
S1130A50D18084E0C80ED11C8881998191838083E0
S1130A602A813B81241B350B2930310548F0CE0106
S1130A70840F951FFC01338322835B834A832DDF1C
S1130A808A819B81081B190B1093B9070093B8073F
S1130A902091B6073091B7070217130720F410937B
S1130AA0B7070093B607E82AF92AFB82EA8219827B
S1130AB018820E943411C114D10459F40E94F4170D
S1130AC0C12CD12C06C00E943411F8CF0E943411DD
S1130AD0F5CFC601DF91CF911F910F91FF90EF9059
S1130AE0DF90CF900895CF93DF93009751F1FC01ED
S1130AF03497228133814091B4075091B507B901ED
S1130B0064237523672BE9F060817181672BC9F435
S1130B10EF014095509524233523338322830E948B
S1130B204B102091B8073091B9078A819B81820FBD
S1130B30931F9093B9078093B807CE01CEDE0E942D
S1130B403411DF91CF910895FC0103969283818340
S1130B504FEF5FEFBA0143835483658376839087B5
S1130B6087839287818710820895FC0113861286F9
S1130B700895CF93DF939C01FB01DC011196CD9185
S1130B80DC911297D583C4838E819F81978386835A
S1130B908E819F81DC0115967C936E9314977F83DD
S1130BA06E8333872287F90180818F5F8083DF9191
S1130BB0CF9108950F931F93CF93DF93EB01088197
S1130BC019812A813B810F3F4FEF14072407340713
S1130BD021F4FC01A185B28511C0DC01139601C08A
S1130BE0DF011496ED91FC9115974081518162814A
S1130BF07381041715072607370790F71496ED91AC
S1130C00FC911597FD83EC83D783C683BF83AE83A2
S1130C101596DC93CE9314979B878A87FC012081D9
S1130C202F5F2083DF91CF911F910F910895CF9370
S1130C30DF93FC01A285B385C481D5818681978128
S1130C409F838E83C681D781848195819D838C8384
S1130C5011968D919C911297E817F90731F48681CA
S1130C60978112969C938E931197138612868C917A
S1130C7081508C938C91DF91CF91089531E1FC01E7
S1130C803083319722E220833197A3E3A083319705
S1130C906083319770833197108231971082319736
S1130CA060E8608331971082319710823197108207
S1130CB0319762E06083319763E06083319764E049
S1130CC06083319765E06083319766E06083319794
S1130CD067E06083319768E06083319769E06083FF
S1130CE0319760E1608331973083319732E130830B
S1130CF0319733E13083319734E13083319735E1F3
S1130D003083319736E13083319737E1308331973F
S1130D1038E13083319739E13083319730E23083E1
S1130D20319731E2308331972083319723E2208356
S1130D303197408331975083319726E2208331974E
S1130D4027E22083319728E22083319729E2208308
S1130D50319720E32083319721E3208389970895F5
S1130D60A89590EC88E10FB6F894A895809360005C
S1130D700FBE90936000A091DA17B091DB17CD916C
S1130D80CDBFDD91DEBFFF91EF91DF91CF91BF9198
S1130D90AF919F918F917F916F915F914F913F910F
S1130DA02F911F910F91FF90EF90DF90CF90BF9004
S1130DB0AF909F908F907F906F905F904F903F90F7
S1130DC02F901F900F900CBE0F900BBE0F900FBE74
S1130DD00F90089581E008950F920FB6F8940F9242
S1130DE00BB60F920CB60F921F9211242F923F92C2
S1130DF04F925F926F927F928F929F92AF92BF9227
S1130E00CF92DF92EF92FF920F931F932F933F9312
S1130E104F935F936F937F938F939F93AF93BF93FE
S1130E20CF93DF93EF93FF93A091DA17B091DB1781
S1130E300DB60D920EB60D920E943612A091DA17DD
S1130E40B091DB17CD91CDBFDD91DEBFFF91EF9166
S1130E50DF91CF91BF91AF919F918F917F916F91CE
S1130E605F914F913F912F911F910F91FF90EF90C0
S1130E70DF90CF90BF90AF909F908F907F906F90B6
S1130E805F904F903F902F901F900F900CBE0F904B
S1130E900BBE0F900FBE0F9008950F920FB6F894EB
S1130EA00F920BB60F920CB60F921F9211242F9231
S1130EB03F924F925F926F927F928F929F92AF92E6
S1130EC0BF92CF92DF92EF92FF920F931F932F93D3
S1130ED03F934F935F936F937F938F939F93AF93BE
S1130EE0BF93CF93DF93EF93FF93A091DA17B09161
S1130EF0DB170DB60D920EB60D9213BE0E945F1055
S1130F0081110E943612A091DA17B091DB17CD91AE
S1130F10CDBFDD91DEBFFF91EF91DF91CF91BF9106
S1130F20AF919F918F917F916F915F914F913F917D
S1130F302F911F910F91FF90EF90DF90CF90BF9072
S1130F40AF909F908F907F906F905F904F903F9065
S1130F502F901F900F900CBE0F900BBE0F900FBEE2
S1130F600F9008959ADF18950FB6F8940F92FC012C
S1130F70968D0F900FBE81E0911180E008950F933C
S1130F801F93CF93DF93EC01042F1E8D48A14111D1
S1130F900CC088819981892B09F042C08C819D8184
S1130FA00E942F141D821C8242C0011117C050E000
S1130FB08A819B810E94962928A18A819B81820F24
S1130FC0911D9B838A832C813D818217930750F165
S1130FD0888199819B838A8380E029C050E08E8137
S1130FE09F810E94962988A190E09195819591090D
S1130FF02E813F81280F391F3F832E8348815981D9
S11310002417350730F42C813D81820F931F9F8371
S11310108E83023049F4112349F0115080E007C057
S113102080E005C080E003C080E001C080E01F5F75
S11310301E8FDF91CF911F910F910895FC0140A164
S11310404423A9F050E026813781240F351F3783CC
S11310502683848195812817390720F08081918126
S113106097838683CB01668177810C9496290895B2
S1131070EF92FF920F931F93CF938C010FB6F894C6
S11310800F92FC01C2A11C16ACF48389811106C025
S113109011C0F8018389811105C00CC07801F3E106
S11310A0EF0EF11CC7010E94EC1281110E94AA13D9
S11310B0C15079F78FEFF80182A30F900FBE0FB6DE
S11310C0F8940F92C1A11C16ACF48085811106C05E
S11310D011C0F8018085811105C00CC07801F8E0C9
S11310E0EF0EF11CC7010E94EC1281110E94AA1399
S11310F0C15079F78FEFF80181A30F900FBECF9104
S11311001F910F91FF90EF900895CF93DF93EC011F
S11311100FB6F8940F92E881F9818F8D28A190E0A1
S113112030E0829FA001839F500D929F500D1124A7
S11311304E0F5F1F5D834C831E8EFB83EA830197F2
S1131140829FA001839F500D929F500D1124CF01C7
S1131150840F951F9F838E838FEF89A38AA36111C8
S11311600BC08885882371F0CE0108960E94EC128A
S1131170882341F031DE06C0CE010896E5DCCE01BD
S11311804396E2DC0F900FBE81E0DF91CF9108958A
S1131190FF920F931F93CF93DF93082F162FF42EF4
S11311A06623B9F0869FC00111248596E3DBEC0128
S11311B0009741F414C00F8F18A361E0CE01A5DF9E
S11311C0FCA20DC0859699838883F5CFD983C88303
S11311D0F2CF85E290E0CEDBEC01892BB9F7CE01AA
S11311E0DF91CF911F910F91FF9008959F92AF923D
S11311F0BF92CF92DF92EF92FF920F931F93CF9300
S1131200DF93CDB7DEB729970FB6F894DEBF0FBED4
S1131210CDBF7C015B012E833F834887598710E053
S1131220992493946C0188E0C80ED11C0FB6F894ED
S11312300F92F701968D878D981710F00230B1F454
S1131240402FB501C7019BDEF7019389992341F033
S1131250C70143960E94EC12882321F0BDDD02C031
S11312608111BADD0F900FBE81E04EC08E819F8147
S1131270A885B985892B8A2B8B2B21F40F900FBE5F
S113128080E042C0111105C0CE0101960E944413B2
S1131290192D0F900FBEFFD60FB6F8940F92F701D9
S11312A081A18F3F09F411A2F70182A18F3F09F4B4
S11312B012A20F900FBEBE016A5F7F4FCE0101964E
S11312C00E94551381111CC00FB6F8940F92F701B8
S11312D0968D878D0F900FBE98130EC04E815F813F
S11312E068857985C6010E94B512C701C1DEBCD7E5
S11312F081119CCF71DD9ACFC701BADEB5D796CFE5
S1131300C701B6DEB1D780E029960FB6F894DEBFE8
S11313100FBECDBFDF91CF911F910F91FF90EF9042
S1131320DF90CF90BF90AF909F9008950F93CF938D
S1131330DF93482F60E081E02BDFEC01009761F040
S11313401D821C82198218821E8200E020E030E097
S1131350A90160E070E04ADFCE01DF91CF910F91E7
S11313600895EF92FF920F931F93CF93DF938A0117
S1131370FC01568D378D531710F02230E9F4422FBB
S11313807801EC011AA1FBDD1F3F81F48B898823CE
S1131390A9F0CE0143960E94EC12882389F0E1144F
S11313A0F10481F081E0F70180830DC0FF24F39400
S11313B0F10EFAA281E007C080E005C081E003C01D
S11313C081E001C081E0DF91CF911F910F91FF90E7
S11313D0EF9008959F92AF92BF92CF92DF92EF92D7
S11313E0FF920F931F93CF93DF93CDB7DEB7299767
S11313F00FB6F894DEBF0FBECDBF8C015B012E8308
S11314003F8348875987E12C992493946C0183E1A5
S1131410C80ED11C0FB6F8940F92F801F68CFF2079
S113142099F0B501C8010ADEFA94F801F68E8085B8
S1131430882331F0C80108960E94EC128111CCDC9B
S11314400F900FBE81E04DC08E819F81A885B98524
S1131450892B8A2B8B2B21F40F900FBE80E041C087
S1131460E11005C0CE0101960E944413E92C0F90AF
S11314700FBE11D60FB6F8940F92F80181A18F3FD9
S113148009F411A2F80182A18F3F09F412A20F906E
S11314900FBEBE016A5F7F4FCE0101960E945513B5
S11314A0811116C0C80160DD882371F04E815F810F
S11314B068857985C6010E94B512C801D9DDD4D6E4
S11314C08111A8CF89DCA6CFC801D2DDCDD6A2CFA9
S11314D0C801CEDDC9D6C80147DD882309F49ACFF7
S11314E080E029960FB6F894DEBF0FBECDBFDF9122
S11314F0CF911F910F91FF90EF90DF90CF90BF900D
S1131500AF909F900895BF92CF92DF92EF92FF9297
S11315100F931F93CF93DF93CDB7DEB729970FB601
S1131520F894DEBF0FBECDBF8C014E835F83688706
S11315307987B12CD12CCC24C3947C0183E1E80EAF
S1131540F11C0FB6F8940F92D8015E968C915E97B9
S11315508823E1F081505E968C935E978D919C91E7
S1131560892B29F40E94BB14F80195838483D80144
S113157018968C91882331F0C80108960E94EC12C9
S113158081112ADC0F900FBE81E07AC08E819F8189
S1131590A885B985892B8A2B8B2B21F40F900FBE3C
S11315A080E06EC0D11005C0CE0101960E944413A4
S11315B0DC2C0F900FBE6FD50FB6F8940F92F80184
S11315C081A18F3F09F411A2D80192968C91929730
S11315D08F3F11F492961C920F900FBEBE016A5F6A
S11315E07F4FCE0101960E945513811124C0C8017A
S11315F0BBDC8823E1F0F80180819181892B51F4CF
S11316000FB6F8940F92848195810E94C113B82E6D
S11316100F900FBE4E815F8168857985C701A5D77C
S1131620C80126DD21D681118CCFD6DB8ACFC80133
S11316301FDD1AD686CFC8011BDD16D6C80194DC7F
S1131640882309F47ECFBB20D1F00FB6F8940F9213
S1131650F8018389882339F0028CF38DE02D808191
S113166064E0681B01C060E0D80114968D919C91E0
S113167015970E946F140F900FBE80E001C080E0A8
S113168029960FB6F894DEBF0FBECDBFDF91CF9180
S11316901F910F91FF90EF90DF90CF90BF9008952E
S11316A0CF93DF93EC010FB6F8940F9289A18F3F8B
S11316B009F419A28AA18F3F09F41AA20F900FBE50
S11316C08E8D811103C0CE01439666D7CE01D0DC46
S11316D0DF91CF910895FC014481558122813381AA
S11316E0240F351F80819181B901681B790BCB01CF
S11316F06417750710F0841B950B0895AF92BF9281
S1131700CF92DF92EF92FF920F931F93CF93DF93C9
S11317106C015B017A01FC01C281D38104811581D2
S11317200C1B1D0B4017510708F48A01F601848530
S11317309585A801B5018C0F9D1F0E9496290E1551
S11317401F0558F4A701401B510BB501600F711F11
S1131750F601848595850E949629CE018E0D9F1DE4
S1131760F601248135818217930710F0821B930BB5
S1131770F60193838283C701DF91CF911F910F916B
S1131780FF90EF90DF90CF90BF90AF900895CF92ED
S1131790DF92EF92FF920F931F93CF93DF931F92E9
S11317A01F92CDB7DEB75A83498321153105C9F09D
S11317B06B017C01FC01868580FD08C0CA012417E9
S11317C0350708F4C9019A83898311C020173107AA
S11317D058F042E050E0BE016F5F7F4FC7018EDFDB
S11317E006C080E090E008C080E090E005C0498138
S11317F05A81B601C70182DF0F900F90DF91CF911C
S11318001F910F91FF90EF90DF90CF900895AF92CA
S1131810BF92CF92DF92EF92FF920F931F93CF93D9
S1131820DF937C015B01E9014217530708F4EA01E5
S1131830209779F1F70100811181C480D580C01A05
S1131840D10ACC15DD0508F46E01F70164857585B0
S1131850600F711FA601C5010E949629CC16DD06F2
S113186058F4AE014C195D09F70164857585C5010D
S11318708C0D9D1D0E9496290C0F1D1FF70184815C
S113188095810817190710F0081B190BF70111832C
S11318900083CE01DF91CF911F910F91FF90EF90C4
S11318A0DF90CF90BF90AF900895EF92FF921F9377
S11318B0CF93DF93EB0111E0413009F010E0209762
S11318C011F4C1E0D0E07C012FEFE21AF20A419654
S11318D051D8009781F020E1FC0111922A95E9F793
S11318E09C01205F3F4FFC0135872487F582E48209
S11318F0D783C6831687DF91CF911F91FF90EF9016
S11319000895CF93DF93FC0127850FB6F8940F92C7
S113191080859185892BD1F482859385892BC1F4A7
S113192086854681578164817581A485B58590E15A
S1131930EF0119929A95E9F7B587A48775836483B3
S1131940578346838687278781E003C080E001C0F0
S113195080E00F900FBEDF91CF910895FC012481A8
S113196035818081918142815381820F931F019738
S1131970841B950B8217930710F0821B930B089519
S11319802F923F924F925F926F927F928F929F928B
S1131990AF92BF92CF92DF92EF92FF920F931F9379
S11319A0CF93DF93CDB7DEB729970FB6F894DEBF98
S11319B00FBECDBF5C011B012A010E831F83288744
S11319C03987FC01868580FF05C03A01F2E06F0E7D
S11319D0711C01C03A018E819F81A885B985892B2C
S11319E08A2B8B2B09F434C0CE01019637D60FB65F
S11319F0F8940F92C501B2DF4C018615970518F5CE
S1131A0080E090E00E945816A9D6F501938782875A
S1131A100F900FBECE80DF80E884F98400E010E0F0
S1131A2020E030E0A90160E070E0CB01B6D7F50119
S1131A3013861286BE016A5F7F4FCE01019635D6AA
S1131A408823A9F202C00F900FBE8114910419F4E7
S1131A50C50184DF4C0183019401A201B101C501D8
S1131A6096DE7C01892BE1F0C50135DEF501268186
S1131A70378182179307A0F00ED3F50180859185F5
S1131A80892B69F08085918500E010E020E040E03A
S1131A9050E0BA010E945715F50111861086E4D36F
S1131AA0C70129960FB6F894DEBF0FBECDBFDF91F4
S1131AB0CF911F910F91FF90EF90DF90CF90BF9047
S1131AC0AF909F908F907F906F905F904F903F90DA
S1131AD02F900895AF92BF92CF92DF92EF92FF9230
S1131AE00F931F93CF93DF93EC015B016A0179019C
S1131AF08E8580FF04C08A010E5F1F4F01C08A01DA
S1131B00CE012CDF9C01A601B501CE0140DE6C01A3
S1131B10892BB9F0CE01DFDD2E813F818217930737
S1131B2080F088859985892B61F08885998500E006
S1131B3010E020E040E050E0BA010E94CF15198681
S1131B401886C601DF91CF911F910F91FF90EF90FE
S1131B50DF90CF90BF90AF9008954F925F926F92B5
S1131B607F928F929F92AF92BF92CF92DF92EF9229
S1131B70FF920F931F93CF93DF931F921F92CDB7C2
S1131B80DEB75C012B013A0168017901FC0186850D
S1131B9080FD03C0812C912C04C06894882481F8B2
S1131BA0912CC114D104E104F10431F10FB6F8947D
S1131BB00F92C50190DD8C018816990640F080E0F3
S1131BC090E00E945816CAD5F501918780870F903E
S1131BD00FBE80169106B0F000E010E020E030E087
S1131BE0A90160E070E0CB01D8D6F501118610861A
S1131BF0C50171DD8C0103C0C5016DDD8C0180164A
S1131C009106B8F581149104C1F0F501E080F180EA
S1131C109801A401BE016F5F7F4FC501F8DD898182
S1131C209A81081919096816790630F4F501F182C8
S1131C30E082612C712C01C03C019801A301B20126
S1131C40C501E5DD7C01892BB1F025D2F501828542
S1131C509385892B61F08285938500E010E020E074
S1131C6040E050E0BA0123D7F50113861286FCD276
S1131C7002C0E12CF12CC7010F900F90DF91CF919E
S1131C801F910F91FF90EF90DF90CF90BF90AF9096
S1131C909F908F907F906F905F904F900895E09108
S1131CA09617F0919717808181110CC08FEF9FEFE9
S1131CB0DC018093631790936417A0936517B09326
S1131CC066170895E0919617F09197170780F085AD
S1131CD0E02D0084F185E02D82819381A481B5817A
S1131CE08093631790936417A0936517B093661756
S1131CF008958F929F92AF92BF92CF92DF92EF920C
S1131D00FF92CF936B017C01C42F80906D1790904C
S1131D106E17A0906F17B09070178091DA1790919A
S1131D20DB1702960E9417068FEFC816D806E8063E
S1131D30F80669F4CC2359F06091DA177091DB1737
S1131D406E5F7F4F82E797E10E94B9053FC0C80CE0
S1131D50D91CEA1CFB1CE091DA17F091DB17C28254
S1131D60D382E482F582C814D904EA04FB0468F43B
S1131D706091DA177091DB17809194179091951701
S1131D806E5F7F4F0E94DA0521C06091DA1770916F
S1131D90DB1780919617909197176E5F7F4F0E9483
S1131DA0DA058091631790916417A0916517B0913B
S1131DB06617C816D906EA06FB0640F4C0926317F4
S1131DC0D0926417E0926517F0926617CF91FF9056
S1131DD0EF90DF90CF90BF90AF909F908F90089539
S1131DE04F925F926F927F928F929F92AF92BF9227
S1131DF0CF92DF92EF92FF920F93CF93DF934C0138
S1131E006B015A012901CA010E94BA043C01892BC1
S1131E1009F4F4C080E390E00E94BA04EC01892B39
S1131E2099F07C8E6B8EA50165EA70E0C3010E9477
S1131E309F2921E0A21AB1088B8D9C8DA80EB91E92
S1131E40C114D10429F420C0C3010E947305D6C073
S1131E50D6018C918D8F8C918823A1F0AE01425EC6
S1131E605F4FF6013196B8E0CB0ED11CCF01219122
S1131E70DA012D93AD01DC018C91882319F0EC1566
S1131E80FD05A1F71CA201C01D8E043008F003E07B
S1131E900A8F0FA318A66E01B2E0CB0ED11CC601A7
S1131EA00E94B505CE010E960E94B505DB87CA8750
S1131EB084E090E0A0E0B0E0801B9109A109B109A1
S1131EC08E879F87A88BB98BDF8BCE8B1AA619A61A
S1131ED01BA61CA61DA61EA61FA6A201B401C50111
S1131EE00E943E0699838883E114F10419F0F701F6
S1131EF0D183C0830FB6F8940F92809171178F5FCE
S1131F00809371178091DA179091DB17892BD1F5A3
S1131F10D093DB17C093DA1780917117813009F0E1
S1131F2041C08EEA97E10E94A40589EB97E10E94E3
S1131F30A40584EC97E10E94A4058FEC97E10E942C
S1131F40A40583EA97E10E94A40588E997E10E9429
S1131F50A40589E897E10E94A4058EE797E10E9411
S1131F60A40582E797E10E94A40583EA97E1909390
S1131F7097178093961788E997E190939517809324
S1131F80941710C080916B1781110CC0E091DA177F
S1131F90F091DB17928D8A8D891720F0D093DB178F
S1131FA0C093DA17809167178F5F809367178DA3AB
S1131FB08A8D90916C17981710F480936C17FBE03E
S1131FC08F9FC0011124B6018255984E0E94B90515
S1131FD00F900FBE80916B17882361F0E091DA17A0
S1131FE0F091DB17928D8A8D981730F40E94EC06DD
S1131FF081E005C081E003C081E001C08FEFDF9183
S1132000CF910F91FF90EF90DF90CF90BF90AF9062
S11320109F908F907F906F905F904F900895EF9274
S1132020FF920F930F2EF1E6EF2EF7E1FF2EF02D26
S113203000E020E030E040EC50E06FE074E08DEC34
S113204090E0CEDE813019F5B9D6813001F5F894EF
S11320508FEF9FEFDC018093631790936417A09335
S11320606517B093661781E080936B1710926D1714
S113207010926E1710926F1710927017E091DA1782
S1132080F091DB1781A50E945D040E94B0060F91B8
S1132090FF90EF900895809160178F5F8093601791
S11320A008950FB6F8940F9260916D1770916E17A2
S11320B080916F17909170170F900FBE08959F92A3
S11320C0AF92BF92CF92DF92EF92FF920F931F9342
S11320D0CF93DF93809160178111ADC0C0906D17CD
S11320E0D0906E17E0906F17F09070178FEFC81AAA
S11320F0D80AE80AF80AC0926D17D0926E17E092D7
S11321006F17F0927017C114D104E104F104B1F413
S11321108091961790919717209194173091951765
S1132120309397172093961790939517809394174D
S1132130809168178F5F80936817B1DD8091631772
S113214090916417A0916517B0916617C816D906C7
S1132150EA06FB0610F4B12C5DC0B12C0F2EFBE097
S1132160AF2EF02D99249394E0919617F091971740
S1132170808181110CC08FEF9FEFDC018093631786
S113218090936417A0936517B093661743C0E091CA
S11321909617F09197170780F085E02DC085D185BB
S11321A08A819B81AC81BD81C816D906EA06FB06EB
S11321B048F48093631790936417A0936517B093C2
S11321C0661728C08E010E5F1F4FC8010E941706B4
S11321D0888D998D892B21F0CE010E960E941706C9
S11321E08A8D90916C17981710F480936C17A89EA1
S11321F0C0011124B8018255984E0E94B905E0919E
S1132200DA17F091DB179A8D828D981708F4ACCF0A
S1132210B92CAACFE091DA17F091DB17E28D8BE0AD
S1132220E89FF0011124E255F84E8081823048F095
S1132230BB24B39406C080916A178F5F80936A179A
S1132240B12C80916917882311F0BB24B3948B2D92
S1132250DF91CF911F910F91FF90EF90DF90CF907E
S1132260BF90AF909F900895CF92DF92EF92FF922C
S11322700F931F93CF93DF930FB6F8940F9280912F
S113228060178150809360178091601781115AC044
S11322908091711781112CC058C0D7011796ED9108
S11322A0FC911897C085D185CE010E960E94170621
S11322B08E010E5F1F4FC8010E9417068A8D9091F0
S11322C06C17981710F480936C17D89EC0011124D2
S11322D0B8018255984E0E94B905E091DA17F09141
S11322E0DB179A8D828D981788F0C09269170EC0FB
S11322F0C0E0D0E00F2EF9E8EF2EF7E1FF2EF02D2D
S11323000F2EFBE0DF2EF02DCC24C394F701808147
S11323108111C3CFCD2B09F0C2DCC0916A17CC2345
S113232049F0D1E0CCDE8111D0936917C150D1F7C7
S113233010926A1780916917882331F00E94EC0685
S113234081E003C080E001C080E00F900FBEDF9108
S1132350CF911F910F91FF90EF90DF90CF90089550
S1132360CF92DF92EF92FF920F931F93CF93DF935D
S1132370EC016A017B018FDE00916D1710916E17DD
S113238020916F173091701788819981AA81BB8140
S1132390AC01BD014C0D5D1D6E1D7F1D0817190795
S11323A02A073B0778F4481759076A077B0740F563
S11323B0488359836A837B830417150726073707E5
S11323C0A0F40BC0481759076A077B07A0F004174D
S11323D015072607370778F013C0CB01BA01601B35
S11323E0710B820B930B40E084DC3EDF81110DC046
S11323F00E94EC060AC0488359836A837B83EDCF2D
S1132400488359836A837B83F0CFDF91CF911F91F7
S11324100F91FF90EF90DF90CF900895CF92DF92CD
S1132420EF92FF926B017C01672B682B692B41F0C3
S113243032DE40E0C701B6015CDC16DF811102C068
S11324400E94EC06FF90EF90DF90CF9008950097E4
S113245021F48091DA179091DB170FB6F8940F925C
S1132460FC0172A761A70F900FBE089580916017B9
S1132470882321F081E080936917089510926917E9
S1132480E091DA17F091DB1781A50E946704A0910F
S1132490DA17B091DB17E091DA17F091DB172D9181
S11324A03C91838D948D8217930758F06091DA17CD
S11324B07091DB178091DA179091DB17635E7F4F81
S11324C0A0D580916C17282F30E09BE0899FF00104
S11324D01124E255F84E908191110EC04BE08150C9
S11324E0282F30E0429FF001439FF00D1124E25564
S11324F0F84E9081992399F39BE0929FA001939FBA
S1132500500D1124DA01A255B84E1196ED91FC91AB
S113251012970480F581E02D1296FC93EE931197A7
S11325204F54584EE417F50729F444815581FD01B1
S1132530528341839BE0929FF001939FF00D1124FD
S1132540E255F84E0180F281E02D208531853093EB
S1132550DB172093DA1780936C17E091DA17F09168
S1132560DB1781A50C945D040895CF92DF92EF925E
S1132570FF926A017B016091DA177091DB17625F49
S11325807F4F0E94DA0541E0C701B601B2DBFF903C
S1132590EF90DF90CF900895CF92DF92EF92FF9269
S11325A0CF936A017B01C22F6091DA177091DB1718
S11325B0625F7F4F0E94B905CC2321F0CC24CA94DA
S11325C0DC2C76014C2FC701B60193DBCF91FF9031
S11325D0EF90DF90CF9008950F931F93CF93DF93E5
S11325E0DC011796ED91FC911897C085D1858E0179
S11325F0025F1F4FC8010E94170680916017811166
S113260016C00C501109C8010E9417068A8D9091BA
S11326106C17981710F480936C17BBE08B9FC00164
S11326201124B8018255984E0E94B90505C0B8011D
S113263089E897E10E94B905E091DA17F091DB1778
S11326409A8D828D891720F481E08093691701C0E7
S113265080E0DF91CF911F910F9108950FB6F89408
S11326600F9220916817FC01208340916D175091BF
S11326706E1760916F177091701741835283638353
S113268074830F900FBE089520916817FC01208376
S113269040916D1750916E1760916F17709170177C
S11326A041835283638374830895CF92DF92EF92C0
S11326B0FF920F931F93CF93DF93FB010FB6F89410
S11326C00F9240916D1750916E1760916F17709132
S11326D0701700811181228133810F3FAFEF1A07F8
S11326E02A073A0749F1EC01C980DA80EB80FC80C3
S11326F0A0916817B881BA1729F04C155D056E05CD
S11327007F05E0F44C195D096E097F0940175107F4
S11327106207730758F4041B150B260B370B008351
S1132720118322833383B0DF80E009C010821182D9
S11327301282138281E003C080E001C081E00F9027
S11327400FBEDF91CF911F910F91FF90EF90DF901B
S1132750CF90089581E08093691708958091DA17E6
S11327609091DB17089580916B17882331F0809145
S11327706017882321F080E0089581E0089582E0C5
S113278008950F931F93CF93DF93FC01892B09F4D2
S113279060C0828DA091DA17B091DB175A969C9194
S11327A0891708F04AC0468557856089718977235F
S11327B094F0A091DA17B091DB175A969C9144E0FB
S11327C050E060E070E0491B5109610971094687D6
S11327D05787608B718B2BE0829FC0011124825537
S11327E0984E2485358528173907F1F48F01EF01B8
S11327F02296CE010E941706E091DA17F091DB17BA
S1132800828DF801828F90916C17981710F4809341
S11328106C17FBE08F9FC0011124BE018255984EB6
S11328200E94B90581E016C0A091DA17B091DB17B8
S11328305A968C91828F81E00DC0A091DA17B091E5
S1132840DB1781E027A15A969C91291718F080E0A4
S113285001C080E0DF91CF911F910F9108950F93F4
S11328601F93CF93DF93FC01892B79F180A58150CD
S113287080A7228D97A1291751F181112AC0EF0158
S11328808F010E5F1F4FC8010E9417068FA18A8F08
S113289044E050E060E070E0481B510961097109AF
S11328A04E875F87688B798B90916C17981710F41B
S11328B080936C172BE0829FC0011124B8018255CC
S11328C0984E0E94B90581E005C080E003C080E015
S11328D001C080E0DF91CF911F910F9108950F9374
S11328E01F93CF93DF93FC01892B09F43FC087A189
S11328F0861708F4862F928D9817C1F120A52130F0
S1132900A9F5828F4685578560897189772364F09C
S113291044E050E060E070E0481B5109610971092E
S113292046875787608B718B2BE0929FC0011124DF
S11329308255984E2485358528173907B9F4EF0157
S11329408F010E5F1F4FC8010E9417068A8D909158
S11329506C17981710F480936C172BE0829FC001BA
S11329601124B8018255984E0E94B905DF91CF9188
S11329701F910F9108958091DA179091DB17892B9D
S113298039F0E091DA17F091DB1780A58F5F80A70B
S11329908091DA179091DB1708954F925F926F92AE
S11329A07F928F929F92AF92BF92CF92DF92EF92DB
S11329B0FF920F931F9349015A010FB6F8940F9297
S11329C0E091DA17F091DB1727A5223039F1E09175
S11329D0DA17F091DB1743A454A465A476A4DC01B0
S11329E0CB0180959095A095B09584219521A62141
S11329F0B72183A794A7A5A7B6A7E091DA17F0910A
S1132A00DB1781E087A7C114D104E104F10431F09C
S1132A1041E0C701B6016DD90E94EC060F900FBECC
S1132A200FB6F8940F920115110569F0E091DA17C9
S1132A30F091DB1783A594A5A5A5B6A5F80180831D
S1132A409183A283B383E091DA17F091DB1787A512
S1132A508230B1F4E091DA17F091DB1783A594A5E5
S1132A60A5A5B6A580949094A094B09488229922A8
S1132A70AA22BB2283A694A6A5A6B6A681E001C07D
S1132A8080E0E091DA17F091DB1717A60F900FBEE4
S1132A901F910F91FF90EF90DF90CF90BF90AF9078
S1132AA09F908F907F906F905F904F9008950F93B9
S1132AB01F93CF93DF93FC010FB6F8940F92011587
S1132AC0110549F083A594A5A5A5B6A5E8018883B9
S1132AD09983AA83BB8387A592E097A72230B1F09C
S1132AE018F4213031F02AC02330E9F0243001F108
S1132AF025C003A514A525A536A5402B512B622B73
S1132B00732B43A754A765A776A718C043A554A55C
S1132B1065A576A54F5F5F4F6F4F7F4F43A754A7BF
S1132B2065A776A70BC043A754A765A776A706C0D9
S1132B30823049F143A754A765A776A7813029F5C8
S1132B40EF018F010E5F1F4FC8010E9417068A8D87
S1132B5090916C17981710F480936C172BE0829F58
S1132B60C0011124B8018255984E0E94B905E09124
S1132B70DA17F091DB179A8D828D891740F40E9441
S1132B80EC0681E005C080E003C081E001C081E083
S1132B900F900FBEDF91CF911F910F910895EF9287
S1132BA0FF920F931F93CF93DF93FC01011511053F
S1132BB049F083A594A5A5A5B6A5E80188839983C2
S1132BC0AA83BB8387A592E097A72230B1F018F4BB
S1132BD0213031F02AC02330E9F0243001F125C03E
S1132BE003A514A525A536A5402B512B622B732BC9
S1132BF043A754A765A776A718C043A554A565A500
S1132C0076A54F5F5F4F6F4F7F4F43A754A765A7CC
S1132C1076A70BC043A754A765A776A706C0823042
S1132C20D9F143A754A765A776A78130B9F5EF0179
S1132C3080916017811117C08F010E5F1F4FC8016B
S1132C400E9417068A8D90916C17981710F4809340
S1132C506C17EBE08E9FC0011124B8018255984E89
S1132C600E94B90507C0BF01625F7F4F89E897E101
S1132C700E94B905E091DA17F091DB179A8D828DE5
S1132C80891770F4E114F10419F081E0E7018883F5
S1132C9081E08093691705C080E003C081E001C032
S1132CA081E0DF91CF911F910F91FF90EF900895F4
S1132CB0009721F48091DA179091DB170FB6F894FE
S1132CC00F92FC0127A5223019F417A681E001C058
S1132CD080E00F900FBE0895CF92DF92EF92FF92A3
S1132CE00F931F93FC0142835383648375839387FB
S1132CF082870417150726073707C0F00C191D092A
S1132D002E093F0986859785A089B1890817190777
S1132D102A073B0700F5BF016E5F7F4F8091E417E0
S1132D209091E5170E94DA0580E018C00C151D0586
S1132D302E053F0528F44C155D056E057F0568F4E6
S1132D40BF016E5F7F4F8091E6179091E7170E9455
S1132D50DA0580E003C081E001C081E01F910F919A
S1132D60FF90EF90DF90CF9008950FB6F8940F92F4
S1132D708091E2179091E317892BE9F483EF97E1AF
S1132D800E94A40588EE97E10E94A40583EF97E1D1
S1132D909093E7178093E61788EE97E19093E517F1
S1132DA08093E41740E067E08AE00E94C8089093AB
S1132DB0E3178093E2170F900FBE0895EF92FF92EE
S1132DC00F93D3DF8091E2179091E317892B91F051
S1132DD00F2EF0EEEF2EF7E1FF2EF02D03E020E0B2
S1132DE030E045E550E064E174E083E091E00E9466
S1132DF0F00E01C080E00F91FF90EF9008958F9244
S1132E009F92AF92BF92CF92DF92EF92FF920F9375
S1132E101F93CF93DF93CDB7DEB727970FB6F89400
S1132E20DEBF0FBECDBFE091E217F091E3173097FC
S1132E3081F169832A833B834C835D839F838E83E3
S1132E406630F4F490DC823069F400E0A701960166
S1132E50BE016F5F7F4F8091E2179091E3170E944C
S1132E60F60818C000E020E030E0A901BE016F5F61
S1132E707F4F8091E2179091E3170E94F6080AC0F1
S1132E8020E0A801BE016F5F7F4FCF010E94B1090E
S1132E9001C080E027960FB6F894DEBF0FBECDBF09
S1132EA0DF91CF911F910F91FF90EF90DF90CF9022
S1132EB0BF90AF909F908F9008952F923F924F9222
S1132EC05F926F927F928F929F92AF92BF92CF92B6
S1132ED0DF92EF92FF920F931F93CF93DF931C0126
S1132EE0E0D82B013C018091DC179091DD17A09173
S1132EF0DE17B091DF17481659066A067B0608F0FC
S1132F0053C03BC00780F085E02D80809180A28073
S1132F10B380C085D1858E010E5F1F4FC8010E940A
S1132F201706EC89FD89CE0119958F8982FF25C08A
S1132F308E859F85A889B989880D991DAA1DBB1DF9
S1132F4088169906AA06BB0670F48A839B83AC8311
S1132F50BD83DB87CA87B8018091E6179091E71794
S1132F600E94DA050AC0C12CD12C760100E010E0E1
S1132F70A501940160E0CE0142DFE091E617F091F3
S1132F80E71780818111BECF8091E4179091E517F6
S1132F909093E7178093E617F093E517E093E4170F
S1132FA081E0F101808302C0F10110824092DC17BC
S1132FB05092DD176092DE177092DF17C301B201E1
S1132FC0DF91CF911F910F91FF90EF90DF90CF9001
S1132FD0BF90AF909F908F907F906F905F904F9035
S1132FE03F902F9008950895279A2F9A2FEF80E706
S1132FF092E0215080409040E1F700C000001F9A09
S1133000F5CF279A2F9A2FEF87EA91E62150804037
S11330109040E1F700C000001F9AF5CFCF93DF93F3
S113302000D01F92CDB7DEB761E070E080E090E0A1
S11330300EDA37D869837A838B839C8311E04FE15E
S113304050E060E070E0CE0101968AD982B1812718
S113305082B9F5CFCF93DF9300D01F92CDB7DEB7FF
S113306062E070E080E090E0F2D91BD869837A8353
S11330708B839C834EE350E060E070E0CE010196C8
S11330806FD982B1805882B9F5CFEF92FF920F9336
S113309080915A1990915B19892B89F481E00E94DF
S11330A0960990935B1980935A19009741F000E0B8
S11330B020E030E0A90160E070E00E94F608E12C15
S11330C0F12C02E020E030E040EC50E06CE174E0F0
S11330D08EE098E10E94F00E01E020E030E040EC48
S11330E050E062E274E08AE298E10E94F00E2091DE
S11330F05A1930915B1903E040EC50E068E274E047
S11331008EEA93E00E94F00E20915A1930915B19D7
S113311040EC50E063E374E087EF93E00E94F00E2C
S11331200F91FF90EF9008956FEC73E083E00E949D
S1133130B220DBD0882329F08DE394E00C94082A94
S1133140089581B1816881B90E94570480E00E948A
S1133150AD249BDF85E06AD060E070E081E005D4B7
S113316083E00C949A030895DFDF83E594E00E94E2
S1133170082A0E940F10FFCF04D06894B11150C0E8
S1133180089533D088F09F5790F0B92F9927B751FD
S1133190A0F0D1F0660F771F881F991F1AF0BA9517
S11331A0C9F712C0B13081F03AD0B1E0089537C008
S11331B0672F782F8827B85F39F0B93FCCF386950D
S11331C077956795B395D9F73EF49095809570956A
S11331D061957F4F8F4F9F4F089557FD9058440F2F
S11331E0551F59F05F3F71F04795880F97FB991F62
S11331F061F09F3F79F0879508951216130614061F
S1133200551FF2CF4695F1DF08C0161617061806AB
S1133210991FF1CF86957105610508940895E89486
S1133220BB2766277727CB0197F90895ECE5F9E1E9
S11332302AE030E2318320832DE030E2338322839D
S113324028E130E2358324832CE130E2378326837E
S113325022E230E2318720872EE230E23387228770
S113326023E330E2358724872FE330E2378726874C
S11332702FE130E2318B208B24E430E2338B228B3C
S113328021E530E2358B248B682FCF013AC10895B4
S11332906530F1F4FA0180818F7390E0982F8827CC
S11332A02181822B90930902809308028281F0E4A9
S11332B08F9FC0011124FA01238126952695822B24
S11332C0909307028093060281E08093FE1708958D
S11332D0643051F080E090E49093070280930602FA
S11332E0909309028093080208950F931F9308E4B2
S11332F019E120E034E244EF50E060E087E20E940C
S1133300E724909300188093FF1721E0892B09F09C
S113331020E0822F1F910F9108958091FF179091C3
S11333200018009759F040E060E070E00E943825F2
S1133330843031F41092FE1780E0089582E00895FD
S113334083E008958091FF1790910018009739F059
S113335064E00E948425853021F083E0089582E0B2
S1133360089580E00895609108027091090280E058
S113337090E00E94622720E030E048EC52E40E9492
S1133380C72720E038EF4FE756E40C94F72608955A
S1133390609106027091070280E090E00E9462272B
S11333A020E030E045E253E40E94C72720E038EFF4
S11333B04FE756E40E94F72620E030E040E252E472
S11333C00C9490260895CF93DF9390E0FC01EE0FC8
S11333D0FF1FE80FF91FEE0FFF1FEF5FF74E23816A
S11333E021110AC0EF01E0916419F09165196A8115
S11333F088819981199512C0DC01AA0FBB1FED01C8
S1133400C80FD91FCC0FDD1FCF5FD74EE0916E19C7
S1133410F0916F196A81888199811995DF91CF9113
S11334200895CF93DF9390E0FC01EE0FFF1FE80FA8
S1133430F91FEE0FFF1FEF5FF74E238121110AC022
S1133440EF01E0916E19F0916F196A818881998179
S1133450199512C0DC01AA0FBB1FED01C80FD91FBB
S1133460CC0FDD1FCF5FD74EE0916419F091651941
S11334706A81888199811995DF91CF9108950F2EE2
S1133480FCE5CF2EF9E1DF2EF02D04E0C1E0D8E118
S113349010E08C81813069F0E8F0823039F5D60192
S11334A01C96ED91FC911D976A81888199811995EB
S11334B01DC08D818F5F8A3010F48D8317C01D82EB
S11334C0D6011C96ED91FC911D976A8188819981A2
S11334D019950CC08D81882331F0812FA2DF8D8155
S11334E081508D8303C00C83812F6DDF1F5F26966F
S11334F0143079F665E070E080E090E00E940E12EE
S1133500C5CFCF92DF92EF92FF920F931F93CF9389
S1133510DF93062F0F2EFCE5EF2EF9E1FF2EF02DA1
S1133520D7011896ED91FC91199766E087E290E037
S11335301995C1E0D8E10F2EF8E2CF2ED12CF02D51
S1133540D982C88286E08A831B8214E01C8380E0CF
S11335503ADFD7011896ED91FC91199767E087E25D
S113356090E01995DF82CE8287E0888719861A87D2
S113357081E029DFD7011896ED91FC91199765E058
S113358083E390E01995D7011896ED91FC91199772
S113359061E084E390E0199584E390E09D878C8753
S11335A085E08E871F86188B82E00DDFD701189681
S11335B0ED91FC91199764E081E091E01995D701B0
S11335C01896ED91FC91199761E082E091E01995CC
S11335D082E091E09B8B8A8B1C8B1D8A1E8B83E07F
S11335E0F2DEE12CF12C20E030E040EC50E065E626
S11335F074E08FE39AE10E94F00EDF91CF911F9166
S11336000F91FF90EF90DF90CF9008950F931F9349
S1133610CF93DF93C82FD0E08E01000F111FD80184
S1133620AC0FBD1FAA0FBB1FAF5FB74EE091681967
S1133630F091691912966C9112978D919C9119953C
S1133640C00FD11FCC0FDD1FCF5FD74E81E08C831D
S1133650DF91CF911F910F9108950F931F93CF93F3
S1133660DF93C82FD0E08E01000F111FD801AC0FDB
S1133670BD1FAA0FBB1FAF5FB74EE0916819F09151
S1133680691912966C9112978D919C911995C00F9E
S1133690D11FCC0FDD1FCF5FD74E82E08C83DF912B
S11336A0CF911F910F910895282F30E0F901EE0F6B
S11336B0FF1FE20FF31FEE0FFF1FEF5FF74E93E0C4
S11336C09483AFCE0895282F30E0F901EE0FFF1F49
S11336D0E20FF31FEE0FFF1FEF5FF74E94E09483AA
S11336E072CE089590E0FC01EE0FFF1FDF01A80FDA
S11336F0B91FAA0FBB1FAF5FB74E24E015962C93DA
S11337001597FD011482089590E0FC01EE0FFF1F50
S1133710DF01A80FB91FAA0FBB1FAF5FB74E21E08F
S113372015962C931597FD01148208950F931F93FA
S1133730CF93DF931F921F92CDB7DEB78C0119820E
S11337402DC0E0917D18EC3250F481E08E0F80930F
S11337507D18F0E0E155F74E8A81808302C0109213
S11337607D188A818A30D1F440917D1850E0FA01A5
S1133770E355F74E1082415051099E012F5F3F4F90
S11337806FEA78E180918018909181180E946A0D07
S1133790898181110E94EC0610927D18BE016E5F32
S11337A07F4FC80148D6882361F20F900F90DF91B4
S11337B0CF911F910F9108950F931F93CF93DF9390
S11337C08C01EB0180918018909181180E94810CEA
S11337D0B80189E198E10E94D629209779F0E9E1BE
S11337E0F8E101900020E9F7319780E290E09183BD
S11337F08083BE0189E198E10E94CB29E9E1F8E1E7
S1133800DF010D900020E9F711978DE09AE0119601
S11338109C938E9312961C9201900020E9F73197A5
S1133820E951F841AE2F89E198E1AC016A2F80910A
S1133830821890918318AFD5811111C008E215E068
S113384020E030E04DE250E069E079E180918018B9
S1133850909181180E94AD0D89E099E102C080E049
S113386090E0DF91CF911F910F9108952F923F9295
S11338704F925F926F927F928F929F92AF92BF927C
S1133880CF92DF92EF92FF920F931F93CF93DF9328
S11338905C01FC0101900020E9F731976F01C81A1F
S11338A0D90A5C2C0F2EF6E08F2EF7E09F2EF02D18
S11338B0E12CF12C4C2C3701F40101811281E80137
S11338C009900020E9F72197C01BD10B3C2EF9E0A9
S11338D0CF16D10458F0F4012080FEE02F1206C068
S11338E0B801C5010E94A629892B09F5442D351478
S11338F008F44C2F50E0B801C5010E94DD29892B42
S113390049F4F301EE0FFF1FE60DF71DEA5FF84FD0
S113391020800DC08FEFE81AF80AE3E08E0E911CA8
S1133920F1E1EF16F10439F66894222424F8822D8B
S1133930DF91CF911F910F91FF90EF90DF90CF9087
S1133940BF90AF909F908F907F906F905F904F90BB
S11339503F902F90089530DF89CF0895809180188B
S1133960909181180C94810C08958F929F92AF923C
S1133970CF92EF920F931F93CF93C82F8B0141E007
S113398060E070E088EC90E00E94550C9093811800
S11339908093801810937F1800937E180F2EF6E9F9
S11339A08F2EFBE19F2EF02D6894AA24A6F868942C
S11339B0CC24C6F8E12C00E023E040E051EE60E0C6
S11339C070E08C2F2CD49093831880938218E0910C
S11339D06419F091651964E087E091E01995CF913D
S11339E01F910F91EF90CF90AF909F908F9008957B
S11339F0882349F0E0916E19F0916F1964E088E032
S1133A0091E019950895E0916419F091651964E0C5
S1133A1088E091E01995089560E070E08CE894E006
S1133A20CBDEE9E0F9E101900020E9F73197E950B4
S1133A30F94181E0759708F080E00895CF93DF9312
S1133A40EC0160E070E08DE994E0B6DEE9E0F9E1D4
S1133A5001900020E9F7EA51F94139F469E079E18C
S1133A60CE010E94D62980E002C0188281E0DF9155
S1133A70CF910895FC0101900020E9F79F012151A5
S1133A8031092817390729F4BC018BEC94E063CF82
S1133A90089589E00895FC0101900020E9F79F0151
S1133AA0215131092817390729F4BC018AED94E022
S1133AB052CF089589E00895FC0101900020E9F7B0
S1133AC09F01215231092817390729F4BC0189EED5
S1133AD094E041CF089589E0089560E070E088E2C1
S1133AE095E039CF08950F931F93E82FF0E0EE0F80
S1133AF0FF1FEE5FF84F6081718181E395E02BDF5A
S1133B00811114C008E215E020E030E04DE250E0FD
S1133B1069E079E180918018909181180E94AD0D3F
S1133B20882321F089E099E1A1DE03C089E099E1CD
S1133B309DDE1F910F9108950F931F93CF93DF93F1
S1133B401F92CDB7DEB7DB0111969C911197953189
S1133B5008F0B4C0992381F160E070E0272F30E0D1
S1133B60462F50E0FD01E40FF51F928192959F705E
S1133B709A3010F0995C01C0905DF901E656F74E59
S1133B8090832F5F3F4FFD01E40FF51F92819F70DB
S1133B90492F50E04A30510514F0995C01C0905D02
S1133BA0F901E656F74E90837E5F6F5F11969C9104
S1133BB01197691798F201C070E0E72FF0E0E6561C
S1133BC0F74E10824C91811103C08AE395E002C044
S1133BD08CE395E02AE938E13F932F931F924F93AA
S1133BE09F938F9380E495E09F938F938CED98E15E
S1133BF09F938F930E94382A60E070E08CED98E1E7
S1133C00AADE0FB6F894DEBF0FBECDBF811159C036
S1133C1008E215E020E030E04DE250E069E079E1AF
S1133C2080918018909181180E94AD0D882309F429
S1133C3047C089E099E11ADE8E3009F042C087E07E
S1133C40898380917E1890917F18892BA9F1BE01F8
S1133C506F5F7F4F89E099E168D180938418E9818F
S1133C60F0E0E75FF64EDF010D900020E9F71197D1
S1133C70AE1BBF0BAA2391F0BB27CD0101979C017A
S1133C8012F42F5F3F4F3595279520938518AF0188
S1133C904F5F5F4F64E186E898E173D101E010E083
S1133CA020E030E046E150E064E878E180917E185D
S1133CB090917F180E94C00C8EE003C084E101C083
S1133CC080E00F90DF91CF911F910F910895813083
S1133CD019F060E575E002C069E276E084E595E0FC
S1133CE03ACE08959F938F9385E895E09F938F93A1
S1133CF08CED98E19F938F930E94382A60E070E0E6
S1133D008CED98E128DE0F900F900F900F900F909C
S1133D100F9008952F923F924F925F926F927F92ED
S1133D208F929F92AF92BF92CF92DF92EF92FF92C7
S1133D300F931F93CF93DF93CDB7DEB7A0970FB642
S1133D40F894DEBF0FBECDBF62EB75E08EEB95E05D
S1133D5033DD8CDD8111A3C080E2E1E2F2E0DE011B
S1133D60119601900D928A95E1F79E012F5F3F4FC6
S1133D706901E12CF12C0F2EFAECAF2EF5E0BF2EE9
S1133D80F02D0CED18E10F2EF3EE4F2EF5E05F2E23
S1133D90F02D0F2EFAEF8F2EF5E09F2EF02D0F2E23
S1133DA0F4E16F2EF6E07F2EF02D3E2C2F2CFF92A7
S1133DB0EF92BF92AF921F930F930E94382A60E054
S1133DC070E0C801F9DC52DD0F900F900F900F9056
S1133DD00F900F90811163C032E03E15E8F4F601B4
S1133DE083818F9382818F9381818F9380818F933D
S1133DF0FF92EF925F924F921F930F930E94382A83
S1133E0060E070E0C801D8DC31DD0FB6F894DEBFA5
S1133E100FBECDBF811143C02F923F929F928F92CC
S1133E201F930F930E94382A60E070E0C801C4DC3D
S1133E301DDD0F900F900F900F900F900F90811138
S1133E402EC02F923F927F926F921F930F930E94E6
S1133E50382A60E070E0C801AFDC08DD0F900F90F5
S1133E600F900F900F900F90811119C03FEFE31A3C
S1133E70F30A84E0C80ED11C98E0E916F10409F0B5
S1133E8094CF60E070E08CE296E096DCEFDC811188
S1133E9006C060E070E08DE396E08EDCE7DCA0967F
S1133EA00FB6F894DEBF0FBECDBFDF91CF911F9147
S1133EB00F91FF90EF90DF90CF90BF90AF909F90C5
S1133EC08F907F906F905F904F903F902F900895C8
S1133ED0EF92FF920F931F93CF93DF93EC018B012B
S1133EE07A0181E0F4DE81110DC0CE01D4DD8111AF
S1133EF009C0C801E1DD811105C0C701BBDD811125
S1133F0001C0EBDDDF91CF911F910F91FF90EF90F6
S1133F10089590E0FC01EE0FFF1F8E0F9F1FFC0120
S1133F20EA5FF84F818192810895DC01009729F1BD
S1133F30FB012081FC0101900020E9F73197E81B87
S1133F40F90B822F90E0E817F907C8F080E008C069
S1133F50880F382F330F330F830F8053890F2F5F50
S1133F60FD01E20FF11D908130ED390F3A3010F46C
S1133F709111EECFFB012083089580E0089580E045
S1133F8008950F931F93CF93DF93DC01EA012097E9
S1133F90E1F1FA0101900020E9F73197E41BF50BF8
S1133FA0329710F532C08D01040F151F30E0AE01B9
S1133FB0420F531FFA019081913428F09753592FDF
S1133FC05295507F03C0592F5295507F2C0F3D1F9F
S1133FD0F9019181913410F0975301C09053950FDA
S1133FE0F80190838F5F01C080E0282F220F482FB3
S1133FF050E0FE0101900020E9F73197EC1BFD0B26
S11340004E175F0710F48613CECFDF91CF911F9127
S11340100F910895FC0180810895FC01208181E0C5
S113402090E002C0880F991F6A95E2F782230895F1
S1134030FC01808186230895FC0160830895FC01BE
S113404010820895FC01408121E030E002C0220F7B
S1134050331F6A95E2F7242B20830895FC01208105
S1134060622B60830895FC01408121E030E002C0AE
S1134070220F331F6A95E2F7242720830895FC0159
S11340802081622760830895FC01908121E030E063
S113409002C0220F331F6A95E2F72095292320835B
S11340A00895FC019081609569236083089580914F
S11340B03919860F8093391990913C19913079F010
S11340C028F09230A9F0933019F108956F3F09F068
S11340D048C01092391981E080933C1908956638DC
S11340E009F03FC01092381982E080933C1908957A
S11340F0E091381981E08E0F80933819F0E0EA5C82
S1134100F64E6083823069F583E080933C1908950C
S11341109091381921E0290F20933819963009F528
S113412081110EC0E6E3F9E1808190E0982F8827A1
S11341302181820F911D90933E1980933D1904C0F3
S113414010923E1910923D1910923C19E0913A19BF
S1134150F0913B19309729F080913D1990913E19C7
S1134160199508958F929F92AF92CF92EF920F93E9
S1134170CF93DF93EB010F2EF7E58F2EF0E29F2E06
S1134180F02D6894AA24A4F86894CC24C4F8E12CF3
S113419000E023E040E855E260E070E040D0909316
S11341A0401980933F19D0933B19C0933A19DF917A
S11341B0CF910F91EF90CF90AF909F908F900895F3
S11341C0CF93DF93CDB7DEB729970FB6F894DEBF50
S11341D00FBECDBF89E0E1E4F2E09E012F5F3F4FC7
S11341E0D90101900D928A95E1F710923E1910922F
S11341F03D1980913F1990914019009731F0422F59
S1134200532F69E0C8D080E001C082E029960FB640
S1134210F894DEBF0FBECDBFDF91CF9108952F92EA
S11342203F924F925F926F927F928F929F92AF9242
S1134230CF92EF92FF920F931F93CF93DF93CDB75B
S1134240DEB7F82E2A013B0188E090E04AD78C01C2
S11342508F2D90E0880F991FFC01EF5BF64E1183C0
S11342600083FC01E65FFD4F80819181D8018D932D
S11342709C936C2D70E084E090E019D71C0161E000
S113428070E086E090E013D77C014C2DB1012CD571
S1134290F801F582E4826A2D70E084E090E007D7AB
S11342A01C0161E070E086E090E001D77C014A2DBA
S11342B0B1011AD5D8011396FC92EE921297179673
S11342C09C928E921697FFB6F894ED91FC911197FB
S11342D036978081826080838D909C90C301B20167
S11342E0F1D520E030E040E051E451D69B01AC012F
S11342F060E074E284E79BE47AD520E030E040E8B3
S11343005FE30ED50E94C118F40132976083D8018F
S1134310ED91FC911197359788E98083ED91FC919B
S1134320349786E08083FFBEC801DF91CF911F914F
S11343300F91FF90EF90CF90AF909F908F907F90D0
S11343406F905F904F903F902F900895CF93DF939D
S1134350EC01EA81FB81938182812581981B922360
S113436084819817A1F0938126952923A081B18196
S1134370A20FB11D6C939F5F258192239383E881E3
S1134380F981359780818062808380E001C082E07A
S1134390DF91CF910895EF92FF920F931F93CF93E4
S11343A0DF937C01DC011296ED91FC9113979381CC
S11343B08281981B858198238481891B861798F1B3
S11343C0662341F1842F952FDC016150462F50E084
S11343D04F5F5F4F480F591FE701EA81FB819381CB
S11343E082812581981B92238481981779F08C917E
S11343F0938126952923608171818B01020F111D00
S1134400E80188839F5F8581982393831196A4177D
S1134410B50711F7D701ED91FC9135978081806242
S1134420808380E001C082E0DF91CF911F910F91E2
S1134430FF90EF900895DC011496ED91FC9115978F
S113444093818281981789F0928185818695892349
S1134450A081B181A80FB11D8C91DB018C939F5F6A
S113446085819823928380E0089583E008951F92C4
S11344700F920FB60F9211240BB60F922F933F9306
S11344804F935F936F937F938F939F93AF93BF9358
S1134490CF93DF93EF93FF93A0914119B091421909
S11344A0109711F16091C6001496ED91FC91159747
S11344B0938182812581981B92238481981761F0CE
S11344C0838126952823C081D181C20FD11D6883A1
S11344D08F5F9581892383831696ED91FC911797BD
S11344E0309711F0CD011995FF91EF91DF91CF91A4
S11344F0BF91AF919F918F917F916F915F914F91F8
S11345003F912F910F900BBE0F900FBE0F901F90F5
S113451018951F920F920FB60F9211240BB60F929B
S11345202F938F939F93AF93BF93EF93FF93E09158
S11345304119F09142193097B9F00280F381E02DCE
S1134540938182819817B1F092818581282F2695D5
S11345502923A081B181A20FB11D2C919F5F8923D2
S113456082832093C6000BC0E1ECF0E080818F7D54
S1134570808305C0E1ECF0E080818F7D8083FF9132
S1134580EF91BF91AF919F918F912F910F900BBE9F
S11345900F900FBE0F901F9018951F920F920FB699
S11345A00F9211240BB60F922F933F934F935F9367
S11345B06F937F938F939F93AF93BF93CF93DF9327
S11345C0EF93FF93A0914319B0914419109711F1FF
S11345D06091CE001496ED91FC91159793818281A0
S11345E02581981B92238481981761F083812695F5
S11345F02823C081D181C20FD11D68838F5F95812B
S1134600892383831696ED91FC911797309711F0C7
S1134610CD011995FF91EF91DF91CF91BF91AF91AA
S11346209F918F917F916F915F914F913F912F91C6
S11346300F900BBE0F900FBE0F901F9018951F92F6
S11346400F920FB60F9211240BB60F922F938F93E4
S11346509F93AF93BF93EF93FF93E0914319F0912E
S113466044193097B9F00280F381E02D938182815F
S11346709817B1F092818581282F26952923A0814E
S1134680B181A20FB11D2C919F5F89238283209356
S1134690CE000BC0E9ECF0E080818F7D808305C003
S11346A0E9ECF0E080818F7D8083FF91EF91BF91F1
S11346B0AF919F918F912F910F900BBE0F900FBED2
S11346C00F901F9018951F920F920FB60F921124FE
S11346D00BB60F922F933F934F935F936F937F93F8
S11346E08F939F93AF93BF93CF93DF93EF93FF93F6
S11346F0A0914519B0914619109711F16091D60017
S11347001496ED91FC911597938182812581981BD4
S113471092238481981761F0838126952823C08190
S1134720D181C20FD11D68838F5F958189238383D3
S11347301696ED91FC911797309711F0CD011995CC
S1134740FF91EF91DF91CF91BF91AF919F918F91A5
S11347507F916F915F914F913F912F910F900BBE7D
S11347600F900FBE0F901F9018951F920F920FB6C7
S11347700F9211240BB60F922F938F939F93AF93A5
S1134780BF93EF93FF93E0914519F0914619309749
S1134790B9F00280F381E02D938182819817B1F002
S11347A092818581282F26952923A081B181A20F8A
S11347B0B11D2C919F5F892382832093D6000BC067
S11347C0E1EDF0E080818F7D808305C0E1EDF0E0D4
S11347D080818F7D8083FF91EF91BF91AF919F91F5
S11347E08F912F910F900BBE0F900FBE0F901F90C3
S11347F018951F920F920FB60F9211240BB60F92B9
S11348002F933F934F935F936F937F938F939F93D4
S1134810AF93BF93CF93DF93EF93FF93A091471987
S1134820B0914819109711F1609136011496ED91E9
S1134830FC911597938182812581981B9223848111
S1134840981761F0838126952823C081D181C20FF6
S1134850D11D68838F5F9581892383831696ED919B
S1134860FC911797309711F0CD011995FF91EF91B5
S1134870DF91CF91BF91AF919F918F917F916F9174
S11348805F914F913F912F910F900BBE0F900FBEF0
S11348900F901F9018951F920F920FB60F9211242C
S11348A00BB60F922F938F939F93AF93BF93EF9376
S11348B0FF93E0914719F09148193097B9F00280BD
S11348C0F381E02D938182819817B1F092818581E3
S11348D0282F26952923A081B181A20FB11D2C91E7
S11348E09F5F89238283209336010BC0E1E3F1E0CB
S11348F080818F7D808305C0E1E3F1E080818F7D3D
S11349008083FF91EF91BF91AF919F918F912F91F0
S11349100F900BBE0F900FBE0F901F901895CF9362
S1134920DF931F92CDB7DEB7BE016F5F7F4F8091DB
S1134930491990914A197FDD8111F6CF898190E060
S11349400F90DF91CF910895682F8091491990912C
S11349504A19FCDC80E090E008958F929F92AF9218
S1134960CF92EF920F93812C912C6894AA24A7F8EC
S11349706894CC24C7F8E12C00E023E040E051EE39
S113498060E070E04CDC90934A1980934919E6E7A3
S1134990F9E182E192E091838083938382830F9192
S11349A0EF90CF90AF909F908F9008958091591978
S11349B081110CC08CE08093B8008FEF8093BB0012
S11349C084E08093BC0081E0809359190895AF92EC
S11349D0BF92CF92DF92EF92FF920F931F93CF93E8
S11349E0DF93A82EB62E69017A0184E090E079D392
S11349F0EC01892B61F1A88281E0B81212C0C701D1
S1134A00B60120EA36E841E050E027D3DA01C901D3
S1134A104097A109B109B695A7959795879589837C
S1134A2011C0C701B60120E83AE146E050E015D3D1
S1134A30DA01C9014097A109B109B695A7959795DF
S1134A40879589831B830A838C2F9D2F02C080E066
S1134A5090E0DF91CF911F910F91FF90EF90DF9045
S1134A60CF90BF90AF9008958091BC00817008955D
S1134A70FF920F931F93CF93DF930097D1F14A30A6
S1134A80D0F5F42E8B01EC01EFDF811136C080915B
S1134A904C1990914D19C817D90741F087DF8981C6
S1134AA08093B800D0934D19C0934C1981E08F0DB9
S1134AB080934E198881880F80934F19FF2089F0C5
S1134AC0F801A0E5B9E14FEF4F0D642F70E0CB0181
S1134AD00196B801680F791F81918D93E617F70746
S1134AE0D9F788EF8093200285EA8093BC0084E0A4
S1134AF005C086E003C087E001C082E0DF91CF916A
S1134B001F910F91FF9008951F93CF93DF93009708
S1134B1029F16B3028F5162FEC01A6DF811122C094
S1134B2080914C1990914D19C817D90741F03EDF77
S1134B3089818093B800D0934D19C0934C19109378
S1134B404E198881880F816080934F1988EF809374
S1134B50200285EA8093BC0085E005C086E003C09E
S1134B6087E001C082E0DF91CF911F9108951F92E9
S1134B700F920FB60F9211240BB60F922F933F93FF
S1134B804F935F936F937F938F939F93AF93BF9351
S1134B90EF93FF93E091B9008E2F90E0FC013897DA
S1134BA0E135F10508F075C08827E458FF4F8F4FB1
S1134BB076C210924B19E0914B1980914E19E81767
S1134BC070F481E08E0F80934B19F0E0E15BF64EB8
S1134BD080818093BB0085E88093BC0072C084E927
S1134BE08093BC0080914C1990914D19DC01129670
S1134BF0ED91FC911397309709F463C020E040E0F5
S1134C0050E064E019955DC0E0914B1981E08E0F8E
S1134C1080934B198091BB00F0E0E15BF64E8083FA
S1134C208091B900803411F410924B1920914B19E2
S1134C3030E080914E1990E001972817390724F449
S1134C4085EC8093BC003DC085E88093BC0039C0EE
S1134C508091BB00E0914B19F0E0E15BF64E80835C
S1134C6084E98093BC0080914C1990914D19DC012A
S1134C701296ED91FC911397309719F120914E19EA
S1134C804FE459E165E019951CC085EA8093BC00A6
S1134C9018C08091B9008093200284E08093BC0006
S1134CA080914C1990914D19DC011296ED91FC9173
S1134CB01397309731F020E040E050E060912002FB
S1134CC01995FF91EF91BF91AF919F918F917F9132
S1134CD06F915F914F913F912F910F900BBE0F9069
S1134CE00FBE0F901F901895FC01411101C01AD3FB
S1134CF0842F90E09C012150310982239323892B36
S1134D0009F010D3413808F00DD312821382448382
S1134D10440F415045837183608380E090E008959F
S1134D205058BB27AA270ED021C112D130F017D179
S1134D3020F031F49F3F11F41EF407C10EF4E09506
S1134D40E7FBFDC0E92F0E94ED1878F3BA1762075C
S1134D5073078407950720F079F4A6F50C940F19CE
S1134D600EF4E0950B2EBA2FA02D0B01B901900182
S1134D700C01CA01A0011124FF27591B99F0593FC6
S1134D8050F4503E68F11A16F040A22F232F342F0E
S1134D904427585FF3CF469537952795A795F0405C
S1134DA05395C9F77EF41F16BA0B620B730B840B71
S1134DB0BAF09150A1F0FF0FBB1F661F771F881F29
S1134DC0C2F70EC0BA0F621F731F841F48F4879581
S1134DD077956795B795F7959E3F08F0B1CF939572
S1134DE0880F08F09927EE0F9795879508950DD0B1
S1134DF0BDC0B5D048F0ACD038F021F45F3F21F00D
S1134E009EC051110C941019A0C00E94ED1888F393
S1134E109923B9F35523A1F3951B550BBB27AA2757
S1134E2062177307840738F09F5F5F4F220F331FA9
S1134E30441FAA1FA9F334D00E2E3AF0E0E831D073
S1134E4091505040E695001CCAF72AD0FE2F28D076
S1134E50660F771F881FBB1F261737074807AB0746
S1134E60B0E809F0BB0B802DBF01FF2793585F4FBB
S1134E7032F09E3F510570F062C00C9410195F3FF0
S1134E80E4F3983ED4F3869577956795B795F795AF
S1134E909F5FC9F7880F911D9695879597F9089597
S1134EA0E1E0660F771F881FBB1F62177307840733
S1134EB0BA0720F0621B730B840BBA0BEE1F88F742
S1134EC0E0950895E89409C097FB3EF49095809589
S1134ED0709561957F4F8F4F9F4F9923A9F0F92FBC
S1134EE096E9BB279395F695879577956795B7953A
S1134EF0F111F8CFFAF4BB0F11F460FF1BC06F5F20
S1134F007F4F8F4F9F4F16C0882311F096E911C031
S1134F10772321F09EE8872F762F05C0662371F052
S1134F2096E8862F70E060E02AF09A95660F771F66
S1134F30881FDAF7880F9695879597F9089597F95A
S1134F409F6780E870E060E008959FEF80EC08952B
S1134F5000240A9416161706180609060895002454
S1134F600A9412161306140605060895092E0394CE
S1134F70000C11F4882352F0BB0F40F4BF2B11F442
S1134F8060FF04C06F5F7F4F8F4F9F4F08950CD019
S1134F90EDCFDEDF28F0E3DF18F0952309F0CFCF63
S1134FA0D4CF11240C9410190E94ED1890F3959FFE
S1134FB0C1F3950F50E0551F629FF001729FBB270C
S1134FC0F00DB11D639FAA27F00DB11DAA1F649FA8
S1134FD06627B00DA11D661F829F2227B00DA11D5B
S1134FE0621F739FB00DA11D621F839FA00D611DE1
S1134FF0221F749F3327A00D611D231F849F600D02
S1135000211D822F762F6A2F11249F57504092F032
S1135010E9F088234AF0EE0FFF1FBB1F661F771FBE
S1135020881F91505040A9F79E3F510578F087CFD3
S11350300C9410195F3FE4F3983ED4F3869577956A
S11350406795B795F795E7959F5FC1F7FE2B880F96
S1135050911D9695879597F90895A1E21A2EAA1B9A
S1135060BB1BFD010DC0AA1FBB1FEE1FFF1FA21714
S1135070B307E407F50720F0A21BB30BE40BF50B11
S1135080661F771F881F991F1A9469F7609570959A
S1135090809590959B01AC01BD01CF010895EE0F61
S11350A0FF1F881F8BBF0790F691E02D19940F9373
S11350B01F93CF93DF93869F8001879F100D969F48
S11350C0100D1124C8010DD0EC01009721F0A801A6
S11350D060E070E034D1CE01DF91CF911F910F9148
S11350E008950F931F93CF93DF938230910510F4AB
S11350F082E090E0E0917419F091751920E030E0BD
S1135100A0E0B0E0309719F1408151810281138110
S113511048175907C8F08417950769F4109731F0B8
S113512012960C93129713961C9327C0009374192C
S11351301093751922C02115310519F04217530730
S113514018F49A01BD01EF01DF01F801DBCF21154D
S11351503105F9F0281B390B2430310580F48A819C
S11351609B816115710521F0FB019383828304C047
S11351709093751980937419FE01329644C0FE0110
S1135180E20FF31F819391932250310939832883CD
S11351903AC02091721930917319232B41F4209154
S11351A002023091030230937319209372192091F3
S11351B00002309101022115310541F42DB73EB7AB
S11351C04091040250910502241B350BE0917219A1
S11351D0F0917319E217F307A0F42E1B3F0B281765
S11351E0390778F0AC014E5F5F4F2417350748F05C
S11351F04E0F5F1F509373194093721981939193CB
S113520002C0E0E0F0E0CF01DF91CF911F910F9158
S11352100895CF93DF93009709F481C0FC0132977E
S113522013821282A0917419B0917519109781F4A8
S113523020813181820F931F20917219309173194B
S11352402817390751F5F0937319E093721967C061
S1135250ED0120E030E0CE17DF0740F44A815B81A6
S11352609E0141155105F1F0EA01F5CFD383C283C4
S113527040815181840F951FC817D90759F488813B
S11352809981840F951F0296918380838A819B81E3
S1135290938382832115310529F4F0937519E093E2
S11352A074193DC0E901FB83EA8349915991C40F04
S11352B0D51FEC17FD0761F480819181840F951F40
S11352C00296E90199838883828193819B838A83EF
S11352D0E0E0F0E012968D919C911397009719F0FD
S11352E0FD01DC01F7CF8D919C9111979D012E5FFB
S11352F03F4F820F931F2091721930917319281711
S1135300390769F4309729F41092751910927419B9
S113531002C013821282B0937319A0937219DF91A1
S1135320CF91089581E090E0F8947DC3FB01DC0106
S113533002C001900D9241505040D8F70895DC010D
S113534001C06D9341505040E0F70895FB01519125
S11353505523B1F0BF01DC01052E4D91442369F0C2
S113536010D0D9F7CD010190002049F04D914111A1
S113537008D0C9F3FB014111EECF81E090E0019721
S11353800895402539F0403229F440294B57465EB0
S113539008F018940895FB01DC010D900020E9F752
S11353A0119701900D920020E1F70895FB01DC01B3
S11353B001900D920020E1F70895FB01DC014150BA
S11353C0504088F08D9181341CF08B350CF4805E54
S11353D0619161341CF06B350CF4605E861B6111C5
S11353E071F3990B0895881BFCCFCF93DF93CDB74E
S11353F0DEB7AE014A5F5F4FFA0161917191AF016F
S1135400809178199091791961D0DF91CF910895A5
S11354100F931F93CF93DF93E0917819F09179194B
S1135420238121FF1BC08C01D0E0C0E0F8018191F1
S11354308F016091781970917919DB011896ED91BB
S1135440FC911997882331F01995892B79F3DFEFB3
S1135450CFEFECCF8AE01995892B19F08FEF9FEFEE
S113546002C08D2F9C2FDF91CF911F910F91089532
S11354700F931F93CF93DF93CDB7DEB72E970FB65D
S1135480F894DEBF0FBECDBF0E891F8986E08C83E2
S11354901A8309838FEF9FE79E838D83AE01465E57
S11354A05F4F688D798DCE01019610D0EF81F8851C
S11354B0E00FF11F10822E960FB6F894DEBF0FBED8
S11354C0CDBFDF91CF911F910F9108952F923F92FD
S11354D04F925F926F927F928F929F92AF92BF9200
S11354E0CF92DF92EF92FF920F931F93CF93DF93AC
S11354F0CDB7DEB72B970FB6F894DEBF0FBECDBF86
S11355006C017B018A01FC0117821682838181FF71
S1135510BFC1CE0101963C01F6019381F70193FDD1
S1135520859193FF81917F01882309F4ADC1853270
S113553039F493FD859193FF81917F01853221F4A4
S1135540B60190E0D6D1E8CF912C212C312CFFE18B
S1135550F315D8F08B3279F038F4803279F0833255
S1135560A1F4232D20611DC08D3261F0803369F4D4
S1135570232D216016C0832D8260382EE32DE46034
S11355803E2E2AC0F32DF8601DC037FC2DC020ED3F
S1135590280F2A3040F08E32B9F436FC75C1232D21
S11355A02064322E19C036FE06C08AE0989E200D73
S11355B01124922E11C0EAE02E9E200D1124222ED9
S11355C0F32DF0623F2E08C08C3621F4832D8068C1
S11355D0382E02C0883641F4F70193FD859193FF7C
S11355E081917F018111B3CF982F9F7D9554933082
S11355F028F40C5F1F4F9FE399830DC0833631F06D
S1135600833771F0833509F055C020C0F8018081DB
S113561089830E5F1F4F88248394912C530112C0F9
S11356202801F2E04F0E511CF801A080B18036FE33
S113563003C0692D70E002C06FEF7FEFC5014ED14A
S11356404C018201F32DFF773F2E15C0280122E083
S1135650420E511CF801A080B18036FE03C0692DB2
S113566070E002C06FEF7FEFC5012DD14C01F32D27
S1135670F0683F2E820133FC19C0822D90E0881619
S11356809906A0F4B60180E290E033D12A94F5CFD4
S1135690F50137FC859137FE81915F01B60190E0F9
S11356A028D121102A9421E0821A910881149104AE
S11356B079F7E1C0843611F0893639F5F80137FEFF
S11356C007C060817181828193810C5F1F4F08C084
S11356D060817181072E000C880B990B0E5F1F4FA0
S11356E0F32DFF763F2E97FF09C090958095709516
S11356F061957F4F8F4F9F4FF0683F2E2AE030E037
S1135700A30133D1882E861844C0853731F4232D64
S11357102F7EB22E2AE030E025C0932D997FB92E3A
S11357208F36C1F018F4883579F0AEC0803719F09F
S1135730883721F0A9C0E92FE061BE2EB4FE0DC068
S1135740FB2DF460BF2E09C034FE0AC0292F266049
S1135750B22E06C028E030E005C020E130E002C0EF
S113576020E132E0F801B7FE07C0608171818281D7
S113577093810C5F1F4F06C06081718180E090E0CF
S11357800E5F1F4FA301F1D0882E8618FB2DFF77E3
S11357903F2E36FE0DC0232D2E7FA22E891458F4E1
S11357A034FE0BC032FC09C0832D8E7EA82E05C0AA
S11357B0B82CA32C03C0B82C01C0B92CA4FE0FC074
S11357C0FE01E80DF11D8081803321F49A2D997E2C
S11357D0A92E09C0A2FE06C0B394B39404C08A2DB6
S11357E0867809F0B394A3FC10C0A0FE06C0B214DE
S11357F080F4280C922C9B180DC0B21458F4B601F6
S113580080E290E076D0B394F8CFB21418F42B1859
S113581002C0982C212CA4FE0FC0B60180E390E0B6
S113582068D0A2FE16C0A1FC03C088E790E002C0C5
S113583088E590E0B6010CC08A2D867851F0A1FE6F
S113584002C08BE201C080E2A7FC8DE2B60190E0C9
S113585050D0891430F4B60180E390E04AD09A9491
S1135860F8CF8A94F301E80DF11D8081B60190E030
S113587040D08110F6CF222009F44ECEB60180E24A
S113588090E037D02A94F7CFF6018681978102C041
S11358908FEF9FEF2B960FB6F894DEBF0FBECDBFF0
S11358A0DF91CF911F910F91FF90EF90DF90CF90F8
S11358B0BF90AF909F908F907F906F905F904F902C
S11358C03F902F900895FC010590615070400110A5
S11358D0D8F7809590958E0F9F1F0895FC01615015
S11358E0704001900110D8F7809590958E0F9F1FFE
S11358F008950F931F93CF93DF93FB01238121FD21
S113590003C08FEF9FEF2CC022FF16C04681578142
S1135910248135814217530744F4A081B1819D014C
S11359202F5F3F4F318320838C93268137812F5FF4
S11359303F4F3783268314C08B01EC01FB010084A5
S1135940F185E02D1995892BE1F6D80116968D91F4
S11359509C911797019617969C938E931697CE0158
S1135960DF91CF911F910F910895FA01AA27283052
S113597051F1203181F1E8946F936E7F6E5F7F4F18
S11359808F4F9F4FAF4FB1E03ED0B4E03CD0670F94
S1135990781F891F9A1FA11D680F791F8A1F911DE7
S11359A0A11D6A0F711D811D911DA11D20D009F437
S11359B068943F912AE0269F11243019305D319379
S11359C0DEF6CF010895462F4770405D4193B3E062
S11359D00FD0C9F7F6CF462F4F70405D4A3318F009
S11359E0495D31FD4052419302D0A9F7EACFB4E0BA
S11359F0A6959795879577956795BA95C9F7009772
S1135A006105710508959B01AC010A2E0694579512
S1135A10479537952795BA95C9F7620F731F841F69
S10D5A20951FA01D0895F894FFCF10
S1135A2A00007C19200000400040C600CE00D600C9
S1135A3A36010000000300000000A4248F240000A3
S1135A4AF8A027BE33E034C1332042C43360E5AE44
S1135A5A33A0F2B133E0FFB433200DB833601ABB7C
S1135A6A33FF0186000000000079FF0179A00000DD
S1135A7A0000E6FF0179000000000086FF018700AC
S1135A8A0000000078FF0188000000000000466161
S1135A9A63746F72795265736574203E25733C0A88
S1135AAA00436F6E66696775726520746F20455589
S1135ABA383638203E25733C0A0047657420485717
S1135ACA455549203E25733C3A2025730A005365FF
S1135ADA74204465764555493A202573203E25733A
S1135AEA3C0A003930363834383830394630344391
S1135AFA38303037344444303332433143414444F8
S1135B0A463834003230423439444130374543410F
S1135B1A3033353500536574204F5441412049646C
S1135B2A656E74697479206170704555493A2573B4
S1135B3A206170704B45593A257320646576455542
S1135B4A493A2573203E25733C0A00536176652041
S1135B5A6D6163203E25733C0A00536574204164D9
S1135B6A6170746976652044617461205261746558
S1135B7A3A204F4E203E25733C0A00536574205246
S1135B8A656365697665722044656C61793A202596
S1135B9A64206D73203E25733C0A004A6F696E20A7
S1135BAA4E6574776F726B2054726965734C6566BF
S1135BBA743A2564203E25733C0A0055706C6F6163
S1135BCA64204D657373616765203E25733C0A0042
S1135BDA4C5248616E6400434F322073656E736F92
S1135BEA723A20256400434F32206D6561737572E1
S1135BFA65643A202575200A0074656D702D7761F5
S1135C0A6B65206572726F723A0054656D702D72FD
S1135C1A656164206572726F723A200048756D3A44
S1135C2A202564202054656D703A2025640A0049B1
S1135C3A444C4500546D7220537663005461736B6F
S1135C4A31005461736B3200434F322073656E73B3
S1135C5A6F720054482073656E736F7200647269C0
S1135C6A766572206E6F7420637265617465642050
S1135C7A4F4B0050726F6772616D20537461727476
S1135C8A656421210048414C5F4C45440073797393
S1135C9A207265736574006D616320706175736544
S1135CAA006D616320726573756D65007379732085
S1135CBA666163746F7279524553455400737973FC
S1135CCA20676574206877657569006D616320676C
S1135CDA65742067776E62006D6163207365742052
