:10000000F6C1000015C2000013C2000011C20000BA
:100010000FC200000DC200000BC2000009C20000A8
:1000200007C2000005C2000003C2000001C20000B8
:100030009DC60000FDC10000FBC10000F9C1000029
:10004000F7C10000F5C10000F3C10000F1C10000DC
:10005000EFC10000EDC10000EBC10000E9C10000EC
:10006000E7C100000C94C51D0C94171EE1C10000EF
:10007000DFC10000DDC10000DBC10000D9C100000C
:10008000D7C10000D5C10000D3C10000D1C100001C
:100090000C945B1E0C94AD1ECBC10000C9C10000C6
:1000A000C7C10000C5C10000C3C10000C1C100003C
:1000B000BFC10000BDC10000BBC10000B9C100004C
:1000C000B7C10000B5C10000B3C100000C94F11E1F
:1000D0000C94431FADC100000C94871F0C94D91FD2
:1000E000A7C100006E016E016E01A801B001C6013A
:1000F0006E016E01A801B00108EC16E10F2EF8EFB9
:10010000EF2EF6E1FF2EF02D8091C716882311F116
:100110000FB6F8940F92D8011796ED91FC911897AD
:10012000C085D185CE01029686D48091BB168150C0
:100130008093BB168091C71681508093C7160F908D
:100140000FBE8B8D9C8DD3D3CE01D1D38091C7169A
:100150008111DECFF7018081823008F041D50E9405
:100160005715D2CFCF93DF93CDB7DEB760970FB6D9
:10017000F894DEBF0FBECDBFCE0101969A87898766
:10018000812C912CA12CB12C69847A84E0913017B8
:10019000F09131178081882309F40FC10780F08521
:1001A000E02D20803180428053800E947C0ECE0161
:1001B00001960E94C1146B877C878D879E878981F9
:1001C000811165C08B859C85AD85BE8582159305A3
:1001D000A405B50508F444C00E94650FE0913017EE
:1001E000F09131170780F085E02DA085B185B88B9F
:1001F000AF87CD0102961FD4EF85F889878982FFEA
:1002000021C04685578560897189420D531D641D43
:10021000751D720161010B851C852D853E85CF0101
:100220000E94D113882399F0C82CD92CEA2CFB2CDE
:1002300000E010E0A201910160E08F8598890E94A2
:10024000631405C08E7FAF85B88957968C93AF85B0
:10025000B8895496ED91FC915597CD0119959FC0A1
:1002600020E0B201A1018B859C85AD85BE85481B30
:10027000590B6A0B7B0B80912C1790912D170E94C4
:1002800085090E94650F81118AC0AAD488C00E9486
:10029000650F85C0898188230CF481C04E805F8002
:1002A000D2011C968D919C911D97892B19F0C2014A
:1002B0000296C1D3CE0108960E94C1148B019C0105
:1002C000E9810E2E000CFF0BEA30F10508F067C043
:1002D0008827EE58FF4F8F4F0C946A22F2018789CE
:1002E0008160878BCA80DB80EC80FD8046855785E6
:1002F000608971894C0D5D1D6E1D7F1DC2010E94BC
:10030000D113882309F44BC0D2015496ED91FC918E
:100310005597C2011995F201878982FF40C04A8131
:100320005B816C817D8186859785A089B1899A01E1
:10033000AB01280F391F4A1F5B1FC82CD92CEA2C90
:10034000FB2C00E010E060E0C2010E94631427C0B3
:10035000D20157968C9157978E7F57968C931FC0DA
:10036000F20187898160878B4A815B816C817D8105
:1003700046875787608B718B400F511F621F731F19
:1003800068017901C2010E94D11309C0F201878975
:1003900081FD03C0C201ABD202C08E7F878B282DA6
:1003A000392D4A2D5B2D662D772D80912C1790913C
:1003B0002D1714D781116ECFE9CE0E947C0ECE018D
:1003C00001960E94C1146B877C878D879E878981E7
:1003D00081115DCFE0912E17F0912F17808121E0E0
:1003E000811120E0282C392C4A2C5B2C3ACF112487
:1003F0001FBECFEFD1E2DEBFCDBF00E00CBF16E0E5
:10040000A0E0B2E0E0E6FEE400E00BBF02C007902F
:100410000D92A438B107D9F728E1A4E8B6E001C0ED
:100420001D92A93AB207E1F70E94F2150C942E270B
:10043000E7CDCF93DF9300D01F92CDB7DEB781E039
:100440000E943F1962E070E080E090E00E943F105F
:1004500080E00E943F1966E970E080E090E00E9431
:100460003F100E94F51881E00E944D170E94531919
:100470000E94D01B9F938F938CE392E09F938F9366
:100480000E9410240E94D11A0E94D01B9F938F9328
:100490008FE492E09F938F930E9410248AE996E064
:1004A0000E9465190E94D01B0AE916E01F930F9362
:1004B0009F938F9388E692E09F938F930E941024DE
:1004C000C8010E9481190E94D01B9F938F931F9394
:1004D0000F938CE792E09F938F930E941024A801C2
:1004E00061E972E082EB92E00E94AF1B0E94D01B98
:1004F0009F938F931F930F9381E992E09F938F9324
:1005000082EB92E09F938F9383EC92E09F938F9383
:100510000E9410240E94B4190E94D01B9F938F93B5
:1005200089EF92E09F938F930E9410240FB6F89466
:10053000DEBF0FBECDBF81E00E94AE1A0E94D01B6D
:100540009F938F9388E093E09F938F930E94102452
:1005500084EF91E00E94B91A0E94D01B9F938F9361
:1005600081E08F9384EF8F9389E293E09F938F9341
:100570000E9410240FB6F894DEBF0FBECDBF0AE074
:1005800010E00F2EF9E4EF2EF3E0FF2EF02D80E0C7
:100590000E94BA19D82E0E94D01B9F938F931F934D
:1005A0000F93FF92EF920E9410240F900F900F90E4
:1005B0000F900F900F90F8E0DF16D9F180E00E94C5
:1005C000B91766E371E080E090E00E943F100150AF
:1005D0001109E9F627C004D3FECF48EA58E460E0E9
:1005E00070E0CE0101960E94E10FF80182829382B1
:1005F000A482B582C682D782C086D18683E00E945B
:10060000CB17B80180E00E94E3190E94D01B9F9392
:100610008F93FF92EF920E9410240F900F900F90F3
:100620000F90DBCF81E00E94AA1780E00E94741730
:10063000D2CF81E00E949B17E4E8F6E086E0818358
:1006400082E080830E94820E69837A838B839C83FD
:1006500004E816E00F2EF0E38F2EF02D0F2EF9E3B5
:100660009F2EF02D6894AA24A1F80F2EF3EABF2E36
:10067000F02D6894CC24C2F80F2EFAE1DF2EF02D75
:100680000F2EF9E6EF2EF3E0FF2EF02DA6CFEF921E
:10069000FF920F93E12CF12C082F20E030E048E886
:1006A00051E06EE773E089E192E00E94210D0F9125
:1006B000FF90EF900895E7E0F1E080818F60808304
:1006C0000895E8E0F1E09081907F908390818F70B1
:1006D000982B90830895E8E0F1E08081807F80830B
:1006E0000895CF93DF93DC01E6E0F7E001C0F90164
:1006F000208131812A173B07D0F382819381AF019A
:10070000480F591FA417B50749F412964D915C91F3
:100710001397840F951F93838283DF0112968D9127
:100720009C911397ED01C80FD91F2C173D07D9F4E1
:100730002091040730910507C217D30781F02A8161
:100740003B81820F931F13969C938E931297C081C7
:10075000D1818881998111969C938E9307C01196BF
:10076000DC93CE9303C011963C932E93AE17BF0734
:1007700011F0B183A083DF91CF910895CF92DF92E2
:10078000EF92FF920F931F93CF93DF93EC010E94A0
:100790007C0E8091040790910507892B41F5E6E0D6
:1007A000F7E0AAE0B7E0B183A08313821282E6EA01
:1007B000F6E1F0930507E093040713821282118299
:1007C00010828CE99FE013969C938E931297ED9381
:1007D000FC93909301078093000790930307809305
:1007E000020780E090E89093FF068093FE06E09079
:1007F000FE06F090FF06C7018C239D23892B09F08C
:1008000066C0209709F466C0AE014C5F5F4F09F4E3
:100810005EC000910207109103070417150708F442
:1008200056C0C0910607D0910707E6E0F7E002C086
:10083000FE01E9012A813B812417350728F428812C
:10084000398121153105A1F78091040790910507A1
:10085000C817D907E1F1C080D18084E0C80ED11C4F
:1008600088819981918380832A813B81241B350B68
:100870002930310548F0CE01840F951FFC013383E8
:1008800022835B834A832DDF8A819B81081B190B9E
:10089000109303070093020720910007309101078E
:1008A0000217130720F41093010700930007E82AAA
:1008B000F92AFB82EA82198218820E94650FC1140C
:1008C000D10459F40E945815C12CD12C06C00E94A5
:1008D000650FF8CF0E94650FF5CFC601DF91CF916C
:1008E0001F910F91FF90EF90DF90CF900895CF93DD
:1008F000DF93009751F1FC013497228133814091BD
:10090000FE065091FF06B90164237523672BE9F0B9
:1009100060817181672BC9F4EF01409550952423C4
:100920003523338322830E947C0E2091020730916D
:1009300003078A819B81820F931F90930307809303
:100940000207CE01CEDE0E94650FDF91CF910895A0
:10095000FC010396928381834FEF5FEFBA014383DB
:1009600054836583768390878783928781871082FB
:100970000895FC01138612860895CF93DF939C019E
:10098000FB01DC011196CD91DC911297D583C483D4
:100990008E819F81978386838E819F81DC0115964E
:1009A0007C936E9314977F836E8333872287F9013C
:1009B00080818F5F8083DF91CF9108950F931F9384
:1009C000CF93DF93EB01088119812A813B810F3F8F
:1009D0004FEF14072407340721F4FC01A185B285E9
:1009E00011C0DC01139601C0DF011496ED91FC915A
:1009F000159740815181628173810417150726077D
:100A0000370790F71496ED91FC911597FD83EC83D1
:100A1000D783C683BF83AE831596DC93CE9314979A
:100A20009B878A87FC0120812F5F2083DF91CF91F4
:100A30001F910F910895CF93DF93FC01A285B38599
:100A4000C481D581868197819F838E83C681D7811A
:100A5000848195819D838C8311968D919C911297B1
:100A6000E817F90731F48681978112969C938E934B
:100A70001197138612868C9181508C938C91DF9103
:100A8000CF91089531E1FC013083319722E2208338
:100A90003197A3E3A08331976083319770833197B7
:100AA000108231971082319760E86083319710820D
:100AB0003197108231971082319762E060833197CD
:100AC00063E06083319764E06083319765E0608321
:100AD000319766E06083319767E06083319768E023
:100AE0006083319769E06083319760E1608331977B
:100AF0003083319732E13083319733E1308331975E
:100B000034E13083319735E13083319736E13083FA
:100B1000319737E13083319738E13083319739E1CC
:100B20003083319730E23083319731E2308331972F
:100B30002083319723E2208331974083319750837C
:100B4000319726E22083319727E22083319728E2EC
:100B50002083319729E22083319720E32083319746
:100B600021E3208389970895A89590EC88E10FB63A
:100B7000F894A895809360000FBE90936000A091B8
:100B80002417B0912517CD91CDBFDD91DEBFFF9128
:100B9000EF91DF91CF91BF91AF919F918F917F9115
:100BA0006F915F914F913F912F911F910F91FF9006
:100BB000EF90DF90CF90BF90AF909F908F907F90FD
:100BC0006F905F904F903F902F901F900F900CBEB2
:100BD0000F900BBE0F900FBE0F90089581E0089507
:100BE0000F920FB6F8940F920BB60F920CB60F92AD
:100BF0001F9211242F923F924F925F926F927F9299
:100C00008F929F92AF92BF92CF92DF92EF92FF921C
:100C10000F931F932F933F934F935F936F937F9304
:100C20008F939F93AF93BF93CF93DF93EF93FF93F4
:100C3000A0912417B09125170DB60D920EB60D9206
:100C40000E946710A0912417B0912517CD91CDBFB8
:100C5000DD91DEBFFF91EF91DF91CF91BF91AF9119
:100C60009F918F917F916F915F914F913F912F91C4
:100C70001F910F91FF90EF90DF90CF90BF90AF90BA
:100C80009F908F907F906F905F904F903F902F90AC
:100C90001F900F900CBE0F900BBE0F900FBE0F90C9
:100CA00008950F920FB6F8940F920BB60F920CB6F0
:100CB0000F921F9211242F923F924F925F926F9248
:100CC0007F928F929F92AF92BF92CF92DF92EF92DC
:100CD000FF920F931F932F933F934F935F936F93C5
:100CE0007F938F939F93AF93BF93CF93DF93EF93B4
:100CF000FF93A0912417B09125170DB60D920EB653
:100D00000D9213BE0E94900E81110E946710A09157
:100D10002417B0912517CD91CDBFDD91DEBFFF9196
:100D2000EF91DF91CF91BF91AF919F918F917F9183
:100D30006F915F914F913F912F911F910F91FF9074
:100D4000EF90DF90CF90BF90AF909F908F907F906B
:100D50006F905F904F903F902F901F900F900CBE20
:100D60000F900BBE0F900FBE0F9008959ADF18954D
:100D70000FB6F8940F92FC01968D0F900FBE81E094
:100D8000911180E008950F931F93CF93DF93EC01AF
:100D9000042F1E8D48A141110CC088819981892B97
:100DA00009F042C08C819D810E94F2111D821C823B
:100DB00042C0011117C050E08A819B810E94B1237B
:100DC00028A18A819B81820F911D9B838A832C811C
:100DD0003D818217930750F1888199819B838A8393
:100DE00080E029C050E08E819F810E94B12388A1BC
:100DF00090E09195819591092E813F81280F391FAF
:100E00003F832E83488159812417350730F42C8184
:100E10003D81820F931F9F838E83023049F41123FB
:100E200049F0115080E007C080E005C080E003C0B9
:100E300080E001C080E01F5F1E8FDF91CF911F9186
:100E40000F910895FC0140A14423A9F050E02681B0
:100E50003781240F351F3783268384819581281796
:100E6000390720F08081918197838683CB01668149
:100E700077810C94B1230895EF92FF920F931F9303
:100E8000CF938C010FB6F8940F92FC01C2A11C16EF
:100E9000ACF48389811106C011C0F80183898111E6
:100EA00005C00CC07801F3E1EF0EF11CC7010E94F0
:100EB0001D1181110E94DB11C15079F78FEFF801EC
:100EC00082A30F900FBE0FB6F8940F92C1A11C160B
:100ED000ACF48085811106C011C0F80180858111B4
:100EE00005C00CC07801F8E0EF0EF11CC7010E94AC
:100EF0001D1181110E94DB11C15079F78FEFF801AC
:100F000081A30F900FBECF911F910F91FF90EF9093
:100F10000895CF93DF93EC010FB6F8940F92E88118
:100F2000F9818F8D28A190E030E0829FA001839FFE
:100F3000500D929F500D11244E0F5F1F5D834C8307
:100F40001E8EFB83EA830197829FA001839F500D31
:100F5000929F500D1124CF01840F951F9F838E8384
:100F60008FEF89A38AA361110BC08885882371F054
:100F7000CE0108960E941D11882341F031DE06C083
:100F8000CE010896E5DCCE014396E2DC0F900FBE61
:100F900081E0DF91CF910895FF920F931F93CF933C
:100FA000DF93082F162FF42E6623B9F0869FC00119
:100FB00011248596E3DBEC01009741F414C00F8FF8
:100FC00018A361E0CE01A5DFFCA20DC08596998330
:100FD0008883F5CFD983C883F2CF85E290E0CEDB5A
:100FE000EC01892BB9F7CE01DF91CF911F910F91C1
:100FF000FF9008959F92AF92BF92CF92DF92EF92AF
:10100000FF920F931F93CF93DF93CDB7DEB729974E
:101010000FB6F894DEBF0FBECDBF7C015B012E83FF
:101020003F834887598710E0992493946C0188E0A6
:10103000C80ED11C0FB6F8940F92F701968D878DCC
:10104000981710F00230B1F4402FB501C7019BDEB4
:10105000F7019389992341F0C70143960E941D111E
:10106000882321F0BDDD02C08111BADD0F900FBED3
:1010700081E04EC08E819F81A885B985892B8A2BFE
:101080008B2B21F40F900FBE80E042C0111105C0E0
:10109000CE0101960E947511192D0F900FBE2CD60E
:1010A0000FB6F8940F92F70181A18F3F09F411A2B6
:1010B000F70182A18F3F09F412A20F900FBEBE016B
:1010C0006A5F7F4FCE0101960E94861181111CC07C
:1010D0000FB6F8940F92F701968D878D0F900FBE83
:1010E00098130EC04E815F8168857985C6010E9484
:1010F000E610C701C1DEE9D681119CCF71DD9ACF20
:10110000C701BADEE2D696CFC701B6DEDED680E0F2
:1011100029960FB6F894DEBF0FBECDBFDF91CF91F9
:101120001F910F91FF90EF90DF90CF90BF90AF9005
:101130009F9008950F93CF93DF93482F60E081E055
:101140002BDFEC01009761F01D821C82198218824E
:101150001E8200E020E030E0A90160E070E04ADF9C
:10116000CE01DF91CF910F910895EF92FF920F93EF
:101170001F93CF93DF938A01FC01568D378D531750
:1011800010F02230E9F4422F7801EC011AA1FBDDC6
:101190001F3F81F48B898823A9F0CE0143960E94DA
:1011A0001D11882389F0E114F10481F081E0F70139
:1011B00080830DC0FF24F394F10EFAA281E007C0F2
:1011C00080E005C081E003C081E001C081E0DF91E3
:1011D000CF911F910F91FF90EF9008959F92AF9242
:1011E000BF92CF92DF92EF92FF920F931F93CF9314
:1011F000DF93CDB7DEB729970FB6F894DEBF0FBEE9
:10120000CDBF8C015B012E833F8348875987E12C3A
:10121000992493946C0183E1C80ED11C0FB6F89405
:101220000F92F801F68CFF2091F0B501C8010ADE9B
:10123000FA94F801F68E8085882329F0C801089673
:10124000FCD78111CDDC0F900FBE81E04CC08E81A8
:101250009F81A885B985892B8A2B8B2B21F40F9030
:101260000FBE80E040C0E11005C0CE0101960E9493
:101270007511E92C0F900FBE3FD50FB6F8940F9261
:10128000F80181A18F3F09F411A2F80182A18F3FDB
:1012900009F412A20F900FBEBE016A5F7F4FCE010C
:1012A00001960E948611811115C0C80161DD882355
:1012B00069F04E815F8168857985C60187D7C8014D
:1012C000DBDD03D68111AACF8BDCA8CFC801D4DD2A
:1012D000FCD5A4CFC801D0DDF8D5C80149DD8823ED
:1012E00009F49CCF80E029960FB6F894DEBF0FBEBC
:1012F000CDBFDF91CF911F910F91FF90EF90DF90C5
:10130000CF90BF90AF909F900895CF93DF93EC0163
:101310000FB6F8940F9289A18F3F09F419A28AA100
:101320008F3F09F41AA20F900FBE8E8D811103C05A
:10133000CE01439662D7CE019FDDDF91CF91089514
:10134000FC014481558122813381240F351F808126
:101350009181B901681B790BCB016417750710F0F7
:10136000841B950B0895AF92BF92CF92DF92EF92BC
:10137000FF920F931F93CF93DF936C015B017A0170
:10138000FC01C281D381048115810C1B1D0B401708
:10139000510708F48A01F60184859585A801B501F5
:1013A0008C0F9D1F0E94B1230E151F0558F4A70135
:1013B000401B510BB501600F711FF60184859585A7
:1013C0000E94B123CE018E0D9F1DF601248135812F
:1013D0008217930710F0821B930BF601938382838D
:1013E000C701DF91CF911F910F91FF90EF90DF9098
:1013F000CF90BF90AF900895CF92DF92EF92FF927F
:101400000F931F93CF93DF931F921F92CDB7DEB739
:101410005A83498321153105C9F06B017C01FC0118
:10142000868580FD08C0CA012417350708F4C90164
:101430009A83898311C02017310758F042E050E0A9
:10144000BE016F5F7F4FC7018EDF06C080E090E076
:1014500008C080E090E005C049815A81B601C7010B
:1014600082DF0F900F90DF91CF911F910F91FF902E
:10147000EF90DF90CF900895AF92BF92CF92DF921E
:10148000EF92FF920F931F93CF93DF937C015B0149
:10149000E9014217530708F4EA01209779F1F701AF
:1014A00000811181C480D580C01AD10ACC15DD0518
:1014B00008F46E01F70164857585600F711FA60140
:1014C000C5010E94B123CC16DD0658F4AE014C19BB
:1014D0005D09F70164857585C5018C0D9D1D0E9410
:1014E000B1230C0F1D1FF70184819581081719077F
:1014F00010F0081B190BF70111830083CE01DF9157
:10150000CF911F910F91FF90EF90DF90CF90BF9000
:10151000AF900895EF92FF921F93CF93DF93EB016B
:1015200011E0413009F010E0209711F4C1E0D0E063
:101530007C012FEFE21AF20A419620D9009781F040
:1015400020E1FC0111922A95E9F79C01205F3F4FB1
:10155000FC0135872487F582E482D783C68316870A
:10156000DF91CF911F91FF90EF900895CF93DF937C
:10157000FC0127850FB6F8940F9280859185892B01
:10158000D1F482859385892BC1F486854681578164
:1015900064817581A485B58590E1EF0119929A95D2
:1015A000E9F7B587A4877583648357834683868765
:1015B000278781E003C080E001C080E00F900FBE6C
:1015C000DF91CF910895FC01248135818081918143
:1015D00042815381820F931F0197841B950B8217C1
:1015E000930710F0821B930B08952F923F924F9216
:1015F0005F926F927F928F929F92AF92BF92CF92A3
:10160000DF92EF92FF920F931F93CF93DF93CDB7AB
:10161000DEB729970FB6F894DEBF0FBECDBF5C01D1
:101620001B012A010E831F8328873987FC018685C9
:1016300080FF05C03A01F2E06F0E711C01C03A0153
:101640008E819F81A885B985892B8A2B8B2B09F4E4
:1016500034C0CE01019633D60FB6F8940F92C5016F
:10166000B2DF4C018615970518F580E090E00E94E6
:10167000BD13A5D6F501938782870F900FBECE804C
:10168000DF80E884F98400E010E020E030E0A90188
:1016900060E070E0CB01E6D6F50113861286BE014C
:1016A0006A5F7F4FCE01019631D68823A9F202C02E
:1016B0000F900FBE8114910419F4C50184DF4C0111
:1016C00083019401A201B101C50196DE7C01892B41
:1016D000D9F0C50135DEF5012681378182179307E0
:1016E00098F00AD3F50180859185892B61F080857A
:1016F000918500E010E020E040E050E0BA013CD7E6
:10170000F50111861086E1D3C70129960FB6F8942A
:10171000DEBF0FBECDBFDF91CF911F910F91FF9024
:10172000EF90DF90CF90BF90AF909F908F907F9081
:101730006F905F904F903F902F900895AF92BF921F
:10174000CF92DF92EF92FF920F931F93CF93DF938D
:10175000EC015B016A0179018E8580FF04C08A017A
:101760000E5F1F4F01C08A01CE012DDF9C01A60133
:10177000B501CE0141DE6C01892BB1F0CE01E0DD77
:101780002E813F818217930778F088859985892B70
:1017900059F08885998500E010E020E040E050E0B5
:1017A000BA0162D719861886C601DF91CF911F91C1
:1017B0000F91FF90EF90DF90CF90BF90AF90089582
:1017C0004F925F926F927F928F929F92AF92BF9251
:1017D000CF92DF92EF92FF920F931F93CF93DF93FD
:1017E0001F921F92CDB7DEB75C012B013A01680151
:1017F0007901FC01868580FD03C0812C912C04C0F9
:101800006894882481F8912CC114D104E104F10476
:1018100029F10FB6F8940F92C50192DD8C0188165C
:10182000990638F080E090E0A8D7C9D5F5019187F6
:1018300080870F900FBE80169106B0F000E010E098
:1018400020E030E0A90160E070E0CB010BD6F501AB
:1018500011861086C50174DD8C0103C0C50170DDE1
:101860008C0180169106B8F581149104C1F0F50140
:10187000E080F1809801A401BE016F5F7F4FC50138
:10188000FBDD89819A81081919096816790630F4F7
:10189000F501F182E082612C712C01C03C019801BC
:1018A000A301B201C501E8DD7C01892BB1F024D28E
:1018B000F50182859385892B61F08285938500E00F
:1018C00010E020E040E050E0BA0156D6F501138662
:1018D0001286FBD202C0E12CF12CC7010F900F90B1
:1018E000DF91CF911F910F91FF90EF90DF90CF90FC
:1018F000BF90AF909F908F907F906F905F904F9030
:101900000895E091E016F091E116808181110CC0FC
:101910008FEF9FEFDC018093AD169093AE16A093EE
:10192000AF16B093B0160895E091E016F091E1166D
:101930000780F085E02D0084F185E02D8281938180
:10194000A481B5818093AD169093AE16A093AF1687
:10195000B093B01608958F929F92AF92BF92CF929C
:10196000DF92EF92FF92CF936B017C01C42F8090A6
:10197000B7169090B816A090B916B090BA1680918C
:10198000241790912517029656D88FEFC816D806BF
:10199000E806F80669F4CC2359F060912417709199
:1019A00025176E5F7F4F8CEB96E10E94BD043FC010
:1019B000C80CD91CEA1CFB1CE0912417F0912517D8
:1019C000C282D382E482F582C814D904EA04FB04FB
:1019D00068F460912417709125178091DE1690911C
:1019E000DF166E5F7F4F0E94DE0421C060912417D6
:1019F000709125178091E0169091E1166E5F7F4FF0
:101A00000E94DE048091AD169091AE16A091AF16A3
:101A1000B091B016C816D906EA06FB0640F4C0928B
:101A2000AD16D092AE16E092AF16F092B016CF91EE
:101A3000FF90EF90DF90CF90BF90AF909F908F90EE
:101A400008954F925F926F927F928F929F92AF9282
:101A5000BF92CF92DF92EF92FF920F93CF93DF93DB
:101A60004C016B015A012901CA010E94BE033C01CD
:101A7000892B09F4F4C080E390E00E94BE03EC01DE
:101A8000892B99F07C8E6B8EA50165EA70E0C3010D
:101A90000E94BA2321E0A21AB1088B8D9C8DA80E5A
:101AA000B91EC114D10429F420C0C3010E947704D7
:101AB000D6C0D6018C918D8F8C918823A1F0AE0178
:101AC000425E5F4FF6013196B8E0CB0ED11CCF01DC
:101AD0002191DA012D93AD01DC018C91882319F05D
:101AE000EC15FD05A1F71CA201C01D8E043008F005
:101AF00003E00A8F0FA318A66E01B2E0CB0ED11C33
:101B0000C6010E94B904CE010E960E94B904DB877B
:101B1000CA8784E090E0A0E0B0E0801B9109A109B1
:101B2000B1098E879F87A88BB98BDF8BCE8B1AA6C6
:101B300019A61BA61CA61DA61EA61FA6A201B401BF
:101B4000C5010E94420599838883E114F10419F0CC
:101B5000F701D183C0830FB6F8940F928091BB1622
:101B60008F5F8093BB168091241790912517892B46
:101B7000D1F5D0932517C09324178091BB168130DF
:101B800009F041C088EF96E10E94A80483E097E144
:101B90000E94A8048EE097E10E94A80489E197E1E1
:101BA0000E94A8048DEE96E10E94A80482EE96E1C0
:101BB0000E94A80483ED96E10E94A80488EC96E1B7
:101BC0000E94A8048CEB96E10E94A8048DEE96E199
:101BD0009093E1168093E01682EE96E19093DF16E3
:101BE0008093DE1610C08091B51681110CC0E09173
:101BF0002417F0912517928D8A8D891720F0D093A4
:101C00002517C09324178091B1168F5F8093B1166A
:101C10008DA38A8D9091B616981710F48093B616FE
:101C2000FBE08F9FC0011124B6018850994E0E949D
:101C3000BD040F900FBE8091B516882361F0E0912E
:101C40002417F0912517928D8A8D981730F40E94F1
:101C5000F00581E005C081E003C081E001C08FEFA5
:101C6000DF91CF910F91FF90EF90DF90CF90BF90D9
:101C7000AF909F908F907F906F905F904F9008955E
:101C8000EF92FF920F930F2EFBEAEF2EF6E1FF2E5D
:101C9000F02D00E020E030E040EC50E065E873E03B
:101CA0008CE790E0CEDE813019F5EDD5813001F57D
:101CB000F8948FEF9FEFDC018093AD169093AE16F2
:101CC000A093AF16B093B01681E08093B516109232
:101CD000B7161092B8161092B9161092BA16E09173
:101CE0002417F091251781A50E9461030E94B40575
:101CF0000F91FF90EF9008958091AA168F5F8093C7
:101D0000AA1608950FB6F8940F926091B7167091C5
:101D1000B8168091B9169091BA160F900FBE08951B
:101D20009F92AF92BF92CF92DF92EF92FF920F936A
:101D30001F93CF93DF938091AA168111ADC0C090FD
:101D4000B716D090B816E090B916F090BA168FEF8B
:101D5000C81AD80AE80AF80AC092B716D092B8167C
:101D6000E092B916F092BA16C114D104E104F1045C
:101D7000B1F48091E0169091E1162091DE16309139
:101D8000DF163093E1162093E0169093DF168093D0
:101D9000DE168091B2168F5F8093B216B2DD80910D
:101DA000AD169091AE16A091AF16B091B016C816B0
:101DB000D906EA06FB0610F4B12C5DC0B12C0F2E3B
:101DC000FBE0AF2EF02D99249394E091E016F09172
:101DD000E116808181110CC08FEF9FEFDC018093B1
:101DE000AD169093AE16A093AF16B093B01643C045
:101DF000E091E016F091E1160780F085E02DC085B6
:101E0000D1858A819B81AC81BD81C816D906EA063D
:101E1000FB0648F48093AD169093AE16A093AF16D0
:101E2000B093B01628C08E010E5F1F4FC8010E94EC
:101E30001B05888D998D892B21F0CE010E960E946D
:101E40001B058A8D9091B616981710F48093B616DC
:101E5000A89EC0011124B8018850994E0E94BD046B
:101E6000E0912417F09125179A8D828D981708F428
:101E7000ACCFB92CAACFE0912417F0912517E28DB1
:101E80008BE0E89FF0011124E850F94E8081823008
:101E900048F0BB24B39406C08091B4168F5F809342
:101EA000B416B12C8091B316882311F0BB24B394DF
:101EB0008B2DDF91CF911F910F91FF90EF90DF90CD
:101EC000CF90BF90AF909F900895CF92DF92EF9206
:101ED000FF920F931F93CF93DF930FB6F8940F9257
:101EE0008091AA1681508093AA168091AA1681111A
:101EF0005AC08091BB1681112CC058C0D7011796CB
:101F0000ED91FC911897C085D185CE010E960E9467
:101F10001B058E010E5F1F4FC8010E941B058A8D95
:101F20009091B616981710F48093B616D89EC001FB
:101F30001124B8018850994E0E94BD04E0912417E5
:101F4000F09125179A8D828D981788F0C092B3165C
:101F50000EC0C0E0D0E00F2EF3EDEF2EF6E1FF2E25
:101F6000F02D0F2EFBE0DF2EF02DCC24C394F701D3
:101F700080818111C3CFCD2B09F0C3DCC091B41691
:101F8000CC2349F0D1E0CCDE8111D093B316C150FF
:101F9000D1F71092B4168091B316882331F00E94C5
:101FA000F00581E003C080E001C080E00F900FBE2B
:101FB000DF91CF911F910F91FF90EF90DF90CF9025
:101FC0000895CF92DF92EF92FF920F931F93CF93DA
:101FD000DF93EC016A017B018FDE0091B71610914F
:101FE000B8162091B9163091BA1688819981AA81C4
:101FF000BB81AC01BD014C0D5D1D6E1D7F1D081721
:1020000019072A073B0778F4481759076A077B071F
:1020100040F5488359836A837B8304171507260795
:102020003707A0F40BC0481759076A077B07A0F0D1
:10203000041715072607370778F013C0CB01BA013C
:10204000601B710B820B930B40E085DC3EDF81113E
:102050000DC00E94F0050AC0488359836A837B83C0
:10206000EDCF488359836A837B83F0CFDF91CF9193
:102070001F910F91FF90EF90DF90CF900895CF9236
:10208000DF92EF92FF926B017C01672B682B692B2B
:1020900041F032DE40E0C701B6015DDC16DF8111A0
:1020A00002C00E94F005FF90EF90DF90CF9008955E
:1020B000009721F480912417909125170FB6F8947A
:1020C0000F92FC0172A761A70F900FBE0895809137
:1020D000AA16882321F081E08093B3160895109208
:1020E000B316E0912417F091251781A50E946B0388
:1020F000A0912417B0912517E0912417F09125178E
:102100002D913C91838D948D8217930758F06091A7
:102110002417709125178091241790912517635EDD
:102120007F4FD3D48091B616282F30E09BE0899F53
:10213000F0011124E850F94E908191110EC04BE04E
:102140008150282F30E0429FF001439FF00D112471
:10215000E850F94E9081992399F39BE0929FA0015A
:10216000939F500D1124DA01A850B94E1196ED91AC
:10217000FC9112970480F581E02D1296FC93EE936A
:1021800011974550594EE417F50729F444815581BC
:10219000FD01528341839BE0929FF001939FF00DDC
:1021A0001124E850F94E0180F281E02D208531851F
:1021B00030932517209324178093B616E0912417A7
:1021C000F091251781A50C9461030895CF92DF92B9
:1021D000EF92FF926A017B0160912417709125179D
:1021E000625F7F4F0E94DE0441E0C701B601B3DBAE
:1021F000FF90EF90DF90CF900895CF92DF92EF9213
:10220000FF92CF936A017B01C22F609124177091D6
:102210002517625F7F4F0E94BD04CC2321F0CC24A0
:10222000CA94DC2C76014C2FC701B60194DBCF9108
:10223000FF90EF90DF90CF9008950F931F93CF936F
:10224000DF93DC011796ED91FC911897C085D1853D
:102250008E01025F1F4FC8010E941B058091AA16C4
:10226000811116C00C501109C8010E941B058A8DEE
:102270009091B616981710F48093B616BBE08B9F1A
:10228000C0011124B8018850994E0E94BD0405C0B8
:10229000B80183ED96E10E94BD04E0912417F0910E
:1022A00025179A8D828D891720F481E08093B316CB
:1022B00001C080E0DF91CF911F910F9108950FB67B
:1022C000F8940F922091B216FC0120834091B7162A
:1022D0005091B8166091B9167091BA164183528325
:1022E000638374830F900FBE08952091B216FC0192
:1022F00020834091B7165091B8166091B91670912D
:10230000BA1641835283638374830895CF92DF9218
:10231000EF92FF920F931F93CF93DF93FB010FB6C2
:10232000F8940F924091B7165091B8166091B91673
:102330007091BA1600811181228133810F3FAFEF76
:102340001A072A073A0749F1EC01C980DA80EB80C5
:10235000FC80A091B216B881BA1729F04C155D0522
:102360006E057F05E0F44C195D096E097F09401781
:1023700051076207730758F4041B150B260B370B24
:102380000083118322833383B0DF80E009C0108291
:1023900011821282138281E003C080E001C081E0DB
:1023A0000F900FBEDF91CF911F910F91FF90EF9093
:1023B000DF90CF90089581E08093B31608958091C7
:1023C00024179091251708958091B516882331F030
:1023D0008091AA16882321F080E0089581E0089575
:1023E00082E008950F931F93CF93DF93FC01892B15
:1023F00079F180A5815080A7228D97A1291751F1ED
:1024000081112AC0EF018F010E5F1F4FC8010E948A
:102410001B058FA18A8F44E050E060E070E0481B0C
:102420005109610971094E875F87688B798B90919B
:10243000B616981710F48093B6162BE0829FC00151
:102440001124B8018850994E0E94BD0481E005C056
:1024500080E003C080E001C080E0DF91CF911F9158
:102460000F9108954F925F926F927F928F929F92F9
:10247000AF92BF92CF92DF92EF92FF920F931F9392
:1024800049015A010FB6F8940F92E0912417F09188
:10249000251727A5223039F1E0912417F09125174F
:1024A00043A454A465A476A4DC01CB018095909547
:1024B000A095B09584219521A621B72183A794A743
:1024C000A5A7B6A7E0912417F091251781E087A76B
:1024D000C114D104E104F10431F041E0C701B601B7
:1024E0003ADA0E94F0050F900FBE0FB6F8940F92E3
:1024F0000115110569F0E0912417F091251783A5C6
:1025000094A5A5A5B6A5F80180839183A283B38382
:10251000E0912417F091251787A58230B1F4E0915E
:102520002417F091251783A594A5A5A5B6A5809499
:102530009094A094B09488229922AA22BB2283A6C8
:1025400094A6A5A6B6A681E001C080E0E09124177C
:10255000F091251717A60F900FBE1F910F91FF90B6
:10256000EF90DF90CF90BF90AF909F908F907F9033
:102570006F905F904F9008950F931F93CF93DF93C9
:10258000FC010FB6F8940F920115110549F083A5CF
:1025900094A5A5A5B6A5E80188839983AA83BB83E2
:1025A00087A592E097A72230B1F018F4213031F0DE
:1025B0002AC02330E9F0243001F125C003A514A579
:1025C00025A536A5402B512B622B732B43A754A76F
:1025D00065A776A718C043A554A565A576A54F5F46
:1025E0005F4F6F4F7F4F43A754A765A776A70BC0D8
:1025F00043A754A765A776A706C0823049F143A731
:1026000054A765A776A7813029F5EF018F010E5FEA
:102610001F4FC8010E941B058A8D9091B61698170E
:1026200010F48093B6162BE0829FC0011124B801EC
:102630008850994E0E94BD04E0912417F09125170F
:102640009A8D828D891740F40E94F00581E005C0C3
:1026500080E003C081E001C081E00F900FBEDF91F8
:10266000CF911F910F910895EF92FF920F931F93B7
:10267000CF93DF93FC010115110549F083A594A5C3
:10268000A5A5B6A5E80188839983AA83BB8387A5FE
:1026900092E097A72230B1F018F4213031F02AC02F
:1026A0002330E9F0243001F125C003A514A525A5A8
:1026B00036A5402B512B622B732B43A754A765A73C
:1026C00076A718C043A554A565A576A54F5F5F4FB3
:1026D0006F4F7F4F43A754A765A776A70BC043A7AB
:1026E00054A765A776A706C08230D9F143A754A79F
:1026F00065A776A78130B9F5EF018091AA168111FF
:1027000017C08F010E5F1F4FC8010E941B058A8DE5
:102710009091B616981710F48093B616EBE08E9F42
:10272000C0011124B8018850994E0E94BD0407C011
:10273000BF01625F7F4F83ED96E10E94BD04E0918F
:102740002417F09125179A8D828D891770F4E11462
:10275000F10419F081E0E701888381E08093B316EA
:1027600005C080E003C081E001C081E0DF91CF912E
:102770001F910F91FF90EF900895009721F48091A1
:102780002417909125170FB6F8940F92FC0127A5F6
:10279000223019F417A681E001C080E00F900FBE2F
:1027A0000895CF92DF92EF92FF920F931F93FC0157
:1027B0004283538364837583938782870417150745
:1027C00026073707C0F00C191D092E093F09868519
:1027D0009785A089B189081719072A073B0700F5D3
:1027E000BF016E5F7F4F80912E1790912F170E942F
:1027F000DE0480E018C00C151D052E053F0528F4E9
:102800004C155D056E057F0568F4BF016E5F7F4F57
:1028100080913017909131170E94DE0480E003C050
:1028200081E001C081E01F910F91FF90EF90DF9058
:10283000CF9008950FB6F8940F9280912C17909135
:102840002D17892BE9F48DE397E10E94A80482E318
:1028500097E10E94A8048DE397E19093311780934C
:10286000301782E397E190932F1780932E1740E063
:1028700067E08AE00E94CC0790932D1780932C1775
:102880000F900FBE0895EF92FF920F93D3DF8091C8
:102890002C1790912D17892B89F00F2EFAE2EF2E2D
:1028A000F7E1FF2EF02D03E020E030E045E550E0B9
:1028B0006AE873E082EB90E0C4D801C080E00F9139
:1028C000FF90EF9008958F929F92AF92BF92CF9218
:1028D000DF92EF92FF920F931F93CF93DF93CDB7C9
:1028E000DEB727970FB6F894DEBF0FBECDBFE091DD
:1028F0002C17F0912D17309781F169832A833B8340
:102900004C835D839F838E836630F4F45DDD82307B
:1029100069F400E0A7019601BE016F5F7F4F8091CF
:102920002C1790912D170E94FA0718C000E020E0A4
:1029300030E0A901BE016F5F7F4F80912C1790910D
:102940002D170E94FA070AC020E0A801BE016F5FA0
:102950007F4FCF010E94B50801C080E027960FB6D7
:10296000F894DEBF0FBECDBFDF91CF911F910F91C5
:10297000FF90EF90DF90CF90BF90AF909F908F909F
:1029800008952F923F924F925F926F927F928F9213
:102990009F92AF92BF92CF92DF92EF92FF920F93EE
:1029A0001F93CF93DF931C01ADD92B013C01809184
:1029B000261790912717A0912817B091291748162C
:1029C00059066A067B0608F053C03BC00780F085B5
:1029D000E02D80809180A280B380C085D1858E015A
:1029E0000E5F1F4FC8010E941B05EC89FD89CE01B7
:1029F00019958F8982FF25C08E859F85A889B98901
:102A0000880D991DAA1DBB1D88169906AA06BB062E
:102A100070F48A839B83AC83BD83DB87CA87B8014C
:102A200080913017909131170E94DE040AC0C12CAA
:102A3000D12C760100E010E0A501940160E0CE0108
:102A400042DFE0913017F091311780818111BECFC4
:102A500080912E1790912F179093311780933017F4
:102A6000F0932F17E0932E1781E0F101808302C0CD
:102A7000F101108240922617509227176092281772
:102A800070922917C301B201DF91CF911F910F916D
:102A9000FF90EF90DF90CF90BF90AF909F908F907E
:102AA0007F906F905F904F903F902F900895089582
:102AB000279A2F9A2FEF80E792E021508040904094
:102AC000E1F700C000001F9AF5CF279A2F9A2FEF49
:102AD00087EA91E6215080409040E1F700C0000075
:102AE0001F9AF5CFCF93DF9300D01F92CDB7DEB7FB
:102AF00061E070E080E090E0DBDA04D969837A83FA
:102B00008B839C8311E04FE150E060E070E0CE01E8
:102B1000019657DA82B1812782B9F5CFCF93DF933F
:102B200000D01F92CDB7DEB762E070E080E090E0A9
:102B3000BFDAE8D869837A838B839C834EE350E0C5
:102B400060E070E0CE0101963CDA82B1805882B933
:102B5000F5CFEF92FF920F9380918718909188188C
:102B6000892B89F481E00E949A08909388188093B9
:102B70008718009741F000E020E030E0A90160E014
:102B800070E00E94FA07E12CF12C02E020E030E036
:102B900040EC50E062E973E082E795E10E94210D8C
:102BA00001E020E030E040EC50E068E973E08EE8BE
:102BB00095E10E94210D0F91FF90EF90089581B152
:102BC000816881B90E945B0380E00E943B20C1DFE5
:102BD00085E00FD060E070E081E00ED383E00C94DC
:102BE00047030895ECDF8EE993E00E94232448D840
:102BF000FFCFE9E8F8E121E53CE13183208324E5DA
:102C00003CE1338322832FE53CE13583248323E6B3
:102C10003CE13783268329E63CE13187208725E79D
:102C20003CE1338722872AE73CE13587248726E881
:102C30003CE13787268726E63CE1318B208B2BE869
:102C40003CE1338B228B28E93CE1358B248B682FC8
:102C5000CF019EC00895CF93DF9390E0FC01EE0F6B
:102C6000FF1FE80FF91FEE0FFF1FE85BF84E2381EF
:102C700021110AC0EF01E0919118F09192186A8138
:102C800088819981199512C0DC01AA0FBB1FED0143
:102C9000C80FD91FCC0FDD1FC85BD84EE0919B1821
:102CA000F0919C186A81888199811995DF91CF9163
:102CB0000895CF93DF9390E0FC01EE0FFF1FE80F24
:102CC000F91FEE0FFF1FE85BF84E238121110AC0A8
:102CD000EF01E0919B18F0919C186A81888199819D
:102CE000199512C0DC01AA0FBB1FED01C80FD91F37
:102CF000CC0FDD1FC85BD84EE0919118F09192186F
:102D00006A81888199811995DF91CF9108950F2E5D
:102D1000F9E8CF2EF8E1DF2EF02D04E0C8E4D7E18A
:102D200010E08C81813069F0E8F0823039F5D6010D
:102D30001C96ED91FC911D976A8188819981199566
:102D40001DC08D818F5F8A3010F48D8317C01D8266
:102D5000D6011C96ED91FC911D976A81888199811D
:102D600019950CC08D81882331F0812FA2DF8D81D0
:102D700081508D8303C00C83812F6DDF1F5F2696EA
:102D8000143079F665E070E080E090E078D9C6CF45
:102D9000CF92DF92EF92FF920F931F93CF93DF9327
:102DA000062F0F2EF9E8EF2EF8E1FF2EF02DD701B8
:102DB0001896ED91FC91199766E087E290E01995DD
:102DC000C8E4D7E10F2EF8E2CF2ED12CF02DD98216
:102DD000C88286E08A831B8214E01C8380E03BDF8C
:102DE000D7011896ED91FC91199767E087E290E082
:102DF0001995DF82CE8287E0888719861A8781E05D
:102E00002ADFD7011896ED91FC91199765E083E3CD
:102E100090E01995D7011896ED91FC91199761E012
:102E200084E390E0199584E390E09D878C8785E0AA
:102E30008E871F86188B82E00EDFD7011896ED91E2
:102E4000FC91199764E081E091E01995D7011896FB
:102E5000ED91FC91199761E082E091E0199582E093
:102E600091E09B8B8A8B1C8B1D8A1E8B83E0F3DE8B
:102E7000E12CF12C20E030E040EC50E060EB73E01E
:102E800087E896E10E94210DDF91CF911F910F916C
:102E9000FF90EF90DF90CF9008950F931F93CF9303
:102EA000DF93C82FD0E08E01000F111FD801AC0FA7
:102EB000BD1FAA0FBB1FA85BB84EE0919518F091FB
:102EC000961812966C9112978D919C911995C00F3E
:102ED000D11FCC0FDD1FC85BD84E81E08C83DF9102
:102EE000CF911F910F9108950F931F93CF93DF936D
:102EF000C82FD0E08E01000F111FD801AC0FBD1FED
:102F0000AA0FBB1FA85BB84EE0919518F0919618D8
:102F100012966C9112978D919C911995C00FD11FAB
:102F2000CC0FDD1FC85BD84E82E08C83DF91CF9140
:102F30001F910F910895282F30E0F901EE0FFF1F28
:102F4000E20FF31FEE0FFF1FE85BF84E93E0948350
:102F5000B0CE0895282F30E0F901EE0FFF1FE20FE9
:102F6000F31FEE0FFF1FE85BF84E94E0948373CEDF
:102F7000089590E0FC01EE0FFF1FDF01A80FB91FBD
:102F8000AA0FBB1FA85BB84E24E015962C9315978B
:102F9000FD011482089590E0FC01EE0FFF1FDF0198
:102FA000A80FB91FAA0FBB1FA85BB84E21E015964A
:102FB0002C931597FD01148208950F931F93CF93BF
:102FC000DF931F921F92CDB7DEB78C0119822DC0FF
:102FD000E091C417EC3250F481E08E0F8093C41757
:102FE000F0E0EA50F84E8A81808302C01092C41744
:102FF0008A818A30D1F44091C41750E0FA01EC5034
:10300000F84E1082415051099E012F5F3F4F66EFED
:1030100077E18091C7179091C8170E949E0B898114
:1030200081110E94F0051092C417BE016E5F7F4FA0
:10303000C8018FD5882361F20F900F90DF91CF9157
:103040001F910F9108950F931F93CF93DF938C01DE
:10305000EB018091C7179091C8170E94B60AB8017A
:1030600080E697E10E94F123209779F0E0E6F7E10E
:1030700001900020E9F7319780E290E0918380830E
:10308000BE0180E697E10E94E623E0E6F7E1DF017A
:103090000D900020E9F711978DE09AE011969C932E
:1030A0008E9312961C9201900020E9F73197E0561A
:1030B000F741AE2F80E697E1AC016A2F8091C917E6
:1030C0009091CA17F6D4811111C008E215E020E0F2
:1030D00030E04DE250E060E578E18091C7179091D3
:1030E000C8170E94E00B80E598E102C080E090E004
:1030F000DF91CF911F910F9108952F923F924F92A0
:103100005F926F927F928F929F92AF92BF92CF9277
:10311000DF92EF92FF920F931F93CF93DF935C01A7
:10312000FC0101900020E9F731976F01C81AD90A14
:103130005C2C0F2EF1E58F2EF6E09F2EF02DE12C6A
:10314000F12C4C2C3701F40101811281E801099026
:103150000020E9F72197C01BD10B3C2EF9E0CF16D8
:10316000D10458F0F4012080FEE02F1206C0B8010F
:10317000C5010E94C123892B09F5442D351408F49B
:103180004C2F50E0B801C5010E94F823892B49F467
:10319000F301EE0FFF1FE60DF71DEF5AF94F2080E8
:1031A0000DC08FEFE81AF80AE3E08E0E911CF1E1F2
:1031B000EF16F10439F66894222424F8822DDF9169
:1031C000CF911F910F91FF90EF90DF90CF90BF9024
:1031D000AF909F908F907F906F905F904F903F90B7
:1031E0002F90089530DF89CF08958091C71790916F
:1031F000C8170C94B60A08958F929F92AF92CF92FF
:10320000EF920F931F93CF93C82F8B0141E060E0A3
:1032100070E088EC90E00E948A0A9093C81780932F
:10322000C7171093C6170093C5170F2EFDED8F2EED
:10323000F7E19F2EF02D6894AA24A6F86894CC2478
:10324000C6F8E12C00E023E040E051EE60E070E0E1
:103250008C2F74D39093CA178093C917E09191185B
:10326000F091921864E087E091E01995CF911F9159
:103270000F91EF90CF90AF909F908F9008958823FB
:1032800049F0E0919B18F0919C1864E088E091E08F
:1032900019950895E0919118F091921864E088E0F2
:1032A00091E01995089560E070E087ED93E0CBDE42
:1032B000E0E5F8E101900020E9F73197E055F841A9
:1032C00081E0759708F080E00895CF93DF93EC01DB
:1032D00060E070E088EE93E0B6DEE0E5F8E10190B2
:1032E0000020E9F7E156F84139F460E578E1CE01D4
:1032F0000E94F12380E002C0188281E0DF91CF912B
:103300000895FC0101900020E9F79F012151310946
:103310002817390729F4BC0186E194E063CF0895AA
:1033200089E00895FC0101900020E9F79F012151F7
:1033300031092817390729F4BC0185E294E052CFFE
:10334000089589E00895FC0101900020E9F79F01AC
:10335000215231092817390729F4BC0184E394E08C
:1033600041CF089589E0089560E070E083E794E03C
:1033700039CF08950F931F93E82FF0E0EE0FFF1F52
:10338000E35BF94F608171818CE794E02BDF811161
:1033900014C008E215E020E030E04DE250E060E5C6
:1033A00078E18091C7179091C8170E94E00B88239D
:1033B00021F080E598E1A1DE03C080E598E19DDE83
:1033C0001F910F9108950F931F93CF93DF931F9237
:1033D000CDB7DEB7DB0111969C911197953108F0BE
:1033E000B4C0992381F160E070E0272F30E0462FD0
:1033F00050E0FD01E40FF51F928192959F709A3085
:1034000010F0995C01C0905DF901EF51F84E908386
:103410002F5F3F4FFD01E40FF51F92819F70492FF1
:1034200050E04A30510514F0995C01C0905DF901FB
:10343000EF51F84E90837E5F6F5F11969C911197CC
:10344000691798F201C070E0E72FF0E0EF51F84EF5
:1034500010824C91811103C085E894E002C087E896
:1034600094E021EE37E13F932F931F924F939F9368
:103470008F938BE894E09F938F9383E298E19F93DF
:103480008F930E94532460E070E083E298E1AADE0B
:103490000FB6F894DEBF0FBECDBF811159C008E250
:1034A00015E020E030E04DE250E060E578E1809109
:1034B000C7179091C8170E94E00B882309F447C0F2
:1034C00080E598E11ADE8E3009F042C087E08983FA
:1034D0008091C5179091C617892BA9F1BE016F5F26
:1034E0007F4F80E598E168D18093CB17E981F0E0C8
:1034F000E05BF74EDF010D900020E9F71197AE1B5E
:10350000BF0BAA2391F0BB27CD0101979C0112F4B8
:103510002F5F3F4F359527952093CC17AF014F5F15
:103520005F4F64E18DEC97E173D101E010E020E0A2
:1035300030E046E150E06BEC77E18091C517909167
:10354000C6170E94F50A8EE003C084E101C080E046
:103550000F90DF91CF911F910F910895813019F055
:103560006BE974E002C064E775E08FE994E03ACE5D
:1035700008959F938F9380ED94E09F938F9383E2C0
:1035800098E19F938F930E94532460E070E083E260
:1035900098E128DE0F900F900F900F900F900F90F2
:1035A00008952F923F924F925F926F927F928F92E7
:1035B0009F92AF92BF92CF92DF92EF92FF920F93C2
:1035C0001F93CF93DF93CDB7DEB7A0970FB6F894D4
:1035D000DEBF0FBECDBF6DEF74E089E095E033DD57
:1035E0008CDD8111A3C080E2ECE1F2E0DE011196F6
:1035F00001900D928A95E1F79E012F5F3F4F69017F
:10360000E12CF12C0F2EF5E1AF2EF5E0BF2EF02DC1
:1036100003E218E10F2EFEE24F2EF5E05F2EF02DB3
:103620000F2EF5E48F2EF5E09F2EF02D0F2EFFE5E7
:103630006F2EF5E07F2EF02D3E2C2F2CFF92EF9277
:10364000BF92AF921F930F930E94532460E070E0EB
:10365000C801F9DC52DD0F900F900F900F900F9082
:103660000F90811163C032E03E15E8F4F6018381CA
:103670008F9382818F9381818F9380818F93FF922B
:10368000EF925F924F921F930F930E94532460E03A
:1036900070E0C801D8DC31DD0FB6F894DEBF0FBE94
:1036A000CDBF811143C02F923F929F928F921F9363
:1036B0000F930E94532460E070E0C801C4DC1DDD5C
:1036C0000F900F900F900F900F900F9081112EC0C0
:1036D0002F923F927F926F921F930F930E945324D9
:1036E00060E070E0C801AFDC08DD0F900F900F9034
:1036F0000F900F900F90811119C03FEFE31AF30A5A
:1037000084E0C80ED11C98E0E916F10409F094CFCA
:1037100060E070E087E795E096DCEFDC811106C0A1
:1037200060E070E088E895E08EDCE7DCA0960FB6FC
:10373000F894DEBF0FBECDBFDF91CF911F910F91E7
:10374000FF90EF90DF90CF90BF90AF909F908F90C1
:103750007F906F905F904F903F902F900895EF92E1
:10376000FF920F931F93CF93DF93EC018B017A01AC
:1037700081E0F4DE81110DC0CE01D4DD811109C0DC
:10378000C801E1DD811105C0C701BBDD811101C0A8
:10379000EBDDDF91CF911F910F91FF90EF90089596
:1037A00090E0FC01EE0FFF1F8E0F9F1FFC01EF5AF0
:1037B000F94F818192810895DC01009729F1FB0185
:1037C0002081FC0101900020E9F73197E81BF90BFB
:1037D000822F90E0E817F907C8F080E008C0880F52
:1037E000382F330F330F830F8053890F2F5FFD0165
:1037F000E20FF11D908130ED390F3A3010F4911144
:10380000EECFFB012083089580E0089580E00895C5
:103810000F931F93CF93DF93DC01EA012097E1F12F
:10382000FA0101900020E9F73197E41BF50B32977C
:1038300010F532C08D01040F151F30E0AE01420FAC
:10384000531FFA019081913428F09753592F5295C4
:10385000507F03C0592F5295507F2C0F3D1FF90107
:103860009181913410F0975301C09053950FF80156
:1038700090838F5F01C080E0282F220F482F50E0F7
:10388000FE0101900020E9F73197EC1BFD0B4E176C
:103890005F0710F48613CECFDF91CF911F910F9168
:1038A0000895FC0180810895FC01208181E090E071
:1038B00002C0880F991F6A95E2F782230895FC01E0
:1038C000808186230895FC0160830895FC011082A5
:1038D0000895FC01408121E030E002C0220F331F37
:1038E0006A95E2F7242B20830895FC012081622B46
:1038F00060830895FC01408121E030E002C0220F86
:10390000331F6A95E2F7242720830895FC01208164
:10391000622760830895FC01908121E030E002C0BD
:10392000220F331F6A95E2F72095292320830895FB
:10393000FC01908160956923608308952F923F92E6
:103940004F925F926F927F928F929F92AF92CF929F
:10395000EF92FF920F931F93CF93DF93CDB7DEB714
:10396000F82E2A013B0188E090E0D6D58C018F2DFE
:1039700090E0880F991FFC01E358F74E11830083F4
:10398000FC01EA5FFD4F80819181D8018D939C936A
:103990006C2D70E084E090E0A5D51C0161E070E042
:1039A00086E090E09FD57C014C2DB1018DD3F801CC
:1039B000F582E4826A2D70E084E090E093D51C01EA
:1039C00061E070E086E090E08DD57C014A2DB10188
:1039D0007BD3D8011396FC92EE92129717969C9285
:1039E0008E921697FFB6F894ED91FC911197369749
:1039F0008081826080838D909C90C301B20179D4D4
:103A000020E030E040E051E402D59B01AC0160E0F1
:103A100074E284E79BE4D9D320E030E040E85FE340
:103A20006FD33BD4F40132976083D801ED91FC91C0
:103A30001197359788E98083ED91FC91349786E062
:103A40008083FFBEC801DF91CF911F910F91FF903E
:103A5000EF90CF90AF909F908F907F906F905F90FE
:103A60004F903F902F900895CF93DF93EC01EA8120
:103A7000FB81938182812581981B922384819817F1
:103A8000A1F0938126952923A081B181A20FB11DB8
:103A90006C939F5F258192239383E881F981359709
:103AA00080818062808380E001C082E0DF91CF91DD
:103AB0000895EF92FF920F931F93CF93DF937C01B2
:103AC000DC011296ED91FC91139793818281981BF2
:103AD000858198238481891B861798F1662341F19B
:103AE000842F952FDC016150462F50E04F5F5F4FD0
:103AF000480F591FE701EA81FB819381828125816B
:103B0000981B92238481981779F08C919381269544
:103B10002923608171818B01020F111DE8018883C7
:103B20009F5F8581982393831196A417B50711F79A
:103B3000D701ED91FC91359780818062808380E090
:103B400001C082E0DF91CF911F910F91FF90EF9024
:103B50000895DC011496ED91FC9115979381828173
:103B6000981789F09281858186958923A081B181FA
:103B7000A80FB11D8C91DB018C939F5F85819823E9
:103B8000928380E0089583E008951F920F920FB60C
:103B90000F9211240BB60F922F933F934F935F9385
:103BA0006F937F938F939F93AF93BF93CF93DF9345
:103BB000EF93FF93A0917D18B0917E18109711F1AB
:103BC0006091C6001496ED91FC91159793818281C6
:103BD0002581981B92238481981761F08381269513
:103BE0002823C081D181C20FD11D68838F5F958149
:103BF000892383831696ED91FC911797309711F0E6
:103C0000CD011995FF91EF91DF91CF91BF91AF91C8
:103C10009F918F917F916F915F914F913F912F91E4
:103C20000F900BBE0F900FBE0F901F9018951F9214
:103C30000F920FB60F9211240BB60F922F938F9302
:103C40009F93AF93BF93EF93FF93E0917D18F09113
:103C50007E183097B9F00280F381E02D9381828144
:103C60009817B1F092818581282F26952923A0816C
:103C7000B181A20FB11D2C919F5F89238283209374
:103C8000C6000BC0E1ECF0E080818F7D808305C031
:103C9000E1ECF0E080818F7D8083FF91EF91BF9117
:103CA000AF919F918F912F910F900BBE0F900FBEF0
:103CB0000F901F9018951F920F920FB60F9211241C
:103CC0000BB60F922F933F934F935F936F937F9316
:103CD0008F939F93AF93BF93CF93DF93EF93FF9314
:103CE000A0917F18B0918018109711F16091CE00CB
:103CF0001496ED91FC911597938182812581981BF3
:103D000092238481981761F0838126952823C081AE
:103D1000D181C20FD11D68838F5F958189238383F1
:103D20001696ED91FC911797309711F0CD011995EA
:103D3000FF91EF91DF91CF91BF91AF919F918F91C3
:103D40007F916F915F914F913F912F910F900BBE9B
:103D50000F900FBE0F901F9018951F920F920FB6E5
:103D60000F9211240BB60F922F938F939F93AF93C3
:103D7000BF93EF93FF93E0917F18F09180183097F5
:103D8000B9F00280F381E02D938182819817B1F020
:103D900092818581282F26952923A081B181A20FA8
:103DA000B11D2C919F5F892382832093CE000BC08D
:103DB000E9ECF0E080818F7D808305C0E9ECF0E0E4
:103DC00080818F7D8083FF91EF91BF91AF919F9113
:103DD0008F912F910F900BBE0F900FBE0F901F90E1
:103DE00018951F920F920FB60F9211240BB60F92D7
:103DF0002F933F934F935F936F937F938F939F93F3
:103E0000AF93BF93CF93DF93EF93FF93A09181186C
:103E1000B0918218109711F16091D6001496ED912F
:103E2000FC911597938182812581981B922384812F
:103E3000981761F0838126952823C081D181C20F14
:103E4000D11D68838F5F9581892383831696ED91B9
:103E5000FC911797309711F0CD011995FF91EF91D3
:103E6000DF91CF91BF91AF919F918F917F916F9192
:103E70005F914F913F912F910F900BBE0F900FBE0E
:103E80000F901F9018951F920F920FB60F9211244A
:103E90000BB60F922F938F939F93AF93BF93EF9394
:103EA000FF93E0918118F09182183097B9F0028069
:103EB000F381E02D938182819817B1F09281858101
:103EC000282F26952923A081B181A20FB11D2C9105
:103ED0009F5F892382832093D6000BC0E1EDF0E041
:103EE00080818F7D808305C0E1EDF0E080818F7D52
:103EF0008083FF91EF91BF91AF919F918F912F910F
:103F00000F900BBE0F900FBE0F901F9018951F9231
:103F10000F920FB60F9211240BB60F922F933F936F
:103F20004F935F936F937F938F939F93AF93BF93C1
:103F3000CF93DF93EF93FF93A0918318B0918418F0
:103F4000109711F1609136011496ED91FC9115973F
:103F5000938182812581981B92238481981761F037
:103F6000838126952823C081D181C20FD11D68830A
:103F70008F5F9581892383831696ED91FC91179726
:103F8000309711F0CD011995FF91EF91DF91CF910D
:103F9000BF91AF919F918F917F916F915F914F9161
:103FA0003F912F910F900BBE0F900FBE0F901F905F
:103FB00018951F920F920FB60F9211240BB60F9205
:103FC0002F938F939F93AF93BF93EF93FF93E091C2
:103FD0008318F09184183097B9F00280F381E02DB6
:103FE000938182819817B1F092818581282F26953F
:103FF0002923A081B181A20FB11D2C919F5F89233C
:104000008283209336010BC0E1E3F1E080818F7D54
:10401000808305C0E1E3F1E080818F7D8083FF91A3
:10402000EF91BF91AF919F918F912F910F900BBE08
:104030000F900FBE0F901F901895CF93DF931F9294
:10404000CDB7DEB7BE016F5F7F4F8091851890912D
:1040500086187FDD8111F6CF898190E00F90DF9186
:10406000CF910895682F8091851890918618FCDC77
:1040700080E090E008958F929F92AF92CF92EF925E
:104080000F93812C912C6894AA24A7F86894CC24CF
:10409000C7F8E12C00E023E040E051EE60E070E082
:1040A0004DDC9093861880938518E3EAF8E18EE062
:1040B00092E091838083938382830F91EF90CF90DE
:1040C000AF909F908F900895FC01411101C045D39E
:1040D000842F90E09C012150310982239323892B66
:1040E00009F03BD3413808F038D31282138244835D
:1040F000440F415045837183608380E090E00895D0
:104100005058BB27AA270ED048C139D130F03ED134
:1041100020F031F49F3F11F41EF42EC10EF4E0950F
:10412000E7FB24C1E92F4AD180F3BA17620773076E
:104130008407950718F071F49EF562C10EF4E095BE
:104140000B2EBA2FA02D0B01B90190010C01CA0151
:10415000A0011124FF27591B99F0593F50F4503EFC
:1041600068F11A16F040A22F232F342F4427585FEE
:10417000F3CF469537952795A795F0405395C9F706
:104180007EF41F16BA0B620B730B840BBAF09150BE
:10419000A1F0FF0FBB1F661F771F881FC2F70EC05D
:1041A000BA0F621F731F841F48F487957795679530
:1041B000B795F7959E3F08F0B3CF9395880F08F019
:1041C0009927EE0F9795879508950CD0E6C0DED01D
:1041D00040F0D5D030F021F45F3F19F0C7C0511145
:1041E00010C1CAC0EBD098F39923C9F35523B1F39A
:1041F000951B550BBB27AA2762177307840738F056
:104200009F5F5F4F220F331F441FAA1FA9F333D0B4
:104210000E2E3AF0E0E830D091505040E695001C68
:10422000CAF729D0FE2F27D0660F771F881FBB1F24
:10423000261737074807AB07B0E809F0BB0B802DFE
:10424000BF01FF2793585F4F2AF09E3F510568F04A
:104250008DC0D7C05F3FECF3983EDCF38695779531
:104260006795B795F7959F5FC9F7880F911D96954C
:10427000879597F90895E1E0660F771F881FBB1FA8
:10428000621773078407BA0720F0621B730B840B55
:10429000BA0BEE1F88F7E095089598D088F09F57E5
:1042A00090F0B92F9927B751A0F0D1F0660F771F82
:1042B000881F991F1AF0BA95C9F712C0B13081F062
:1042C0009FD0B1E008959CC0672F782F8827B85FF2
:1042D00039F0B93FCCF3869577956795B395D9F7C3
:1042E0003EF490958095709561957F4F8F4F9F4FCD
:1042F0000895E89409C097FB3EF4909580957095D9
:1043000061957F4F8F4F9F4F9923A9F0F92F96E921
:10431000BB279395F695879577956795B795F11196
:10432000F8CFFAF4BB0F11F460FF1BC06F5F7F4F33
:104330008F4F9F4F16C0882311F096E911C0772345
:1043400021F09EE8872F762F05C0662371F096E84E
:10435000862F70E060E02AF09A95660F771F881F1D
:10436000DAF7880F9695879597F9089597F99F67DB
:1043700080E870E060E008959FEF80EC08950024ED
:104380000A941616170618060906089500240A94BA
:1043900012161306140605060895092E0394000C40
:1043A00011F4882352F0BB0F40F4BF2B11F460FFCF
:1043B00004C06F5F7F4F8F4F9F4F089557FD9058F8
:1043C000440F551F59F05F3F71F04795880F97FBD9
:1043D000991F61F09F3F79F0879508951216130693
:1043E0001406551FF2CF4695F1DF08C016161706C2
:1043F0001806991FF1CF86957105610508940895F7
:10440000E894BB2766277727CB0197F908950BD04F
:10441000C4CFB5DF28F0BADF18F0952309F0A6CF96
:10442000ABCF1124EECFCADFA0F3959FD1F3950F48
:1044300050E0551F629FF001729FBB27F00DB11D28
:10444000639FAA27F00DB11DAA1F649F6627B00DB8
:10445000A11D661F829F2227B00DA11D621F739FA1
:10446000B00DA11D621F839FA00D611D221F749FAF
:104470003327A00D611D231F849F600D211D822FF6
:10448000762F6A2F11249F5750408AF0E1F088233D
:104490004AF0EE0FFF1FBB1F661F771F881F91504A
:1044A0005040A9F79E3F510570F060CFAACF5F3F03
:1044B000ECF3983EDCF3869577956795B795F7957D
:1044C000E7959F5FC1F7FE2B880F911D9695879505
:1044D00097F90895EE0FFF1F881F8BBF0790F69185
:1044E000E02D19940F931F93CF93DF93869F800144
:1044F000879F100D969F100D1124C8010DD0EC015F
:10450000009721F0A80160E070E034D1CE01DF9186
:10451000CF911F910F9108950F931F93CF93DF9326
:104520008230910510F482E090E0E091A118F091C2
:10453000A21820E030E0A0E0B0E0309719F140810F
:1045400051810281138148175907C8F084179507D4
:1045500069F4109731F012960C93129713961C93EE
:1045600027C00093A1181093A21822C0211531056D
:1045700019F04217530718F49A01BD01EF01DF014A
:10458000F801DBCF21153105F9F0281B390B243058
:10459000310580F48A819B816115710521F0FB0151
:1045A0009383828304C09093A2188093A118FE0184
:1045B000329644C0FE01E20FF31F81939193225083
:1045C0003109398328833AC020919F183091A0186F
:1045D000232B41F420910202309103023093A01862
:1045E00020939F182091000230910102211531057E
:1045F00041F42DB73EB74091040250910502241BAF
:10460000350BE0919F18F091A018E217F307A0F482
:104610002E1B3F0B2817390778F0AC014E5F5F4F18
:104620002417350748F04E0F5F1F5093A018409392
:104630009F188193919302C0E0E0F0E0CF01DF91F9
:10464000CF911F910F910895CF93DF93009709F4B5
:1046500081C0FC01329713821282A091A118B091FF
:10466000A218109781F420813181820F931F20912D
:104670009F183091A0182817390751F5F093A0180A
:10468000E0939F1867C0ED0120E030E0CE17DF0710
:1046900040F44A815B819E0141155105F1F0EA0128
:1046A000F5CFD383C28340815181840F951FC817F2
:1046B000D90759F488819981840F951F02969183B7
:1046C00080838A819B81938382832115310529F41C
:1046D000F093A218E093A1183DC0E901FB83EA839F
:1046E00049915991C40FD51FEC17FD0761F48081E2
:1046F0009181840F951F0296E901998388838281B5
:1047000093819B838A83E0E0F0E012968D919C91E7
:104710001397009719F0FD01DC01F7CF8D919C9163
:1047200011979D012E5F3F4F820F931F20919F187D
:104730003091A0182817390769F4309729F410929E
:10474000A2181092A11802C013821282B093A0186E
:10475000A0939F18DF91CF91089581E090E0F894A5
:104760007DC3FB01DC0102C001900D92415050401D
:10477000D8F70895DC0101C06D9341505040E0F737
:104780000895FB0151915523B1F0BF01DC01052EC5
:104790004D91442369F010D0D9F7CD01019000204C
:1047A00049F04D91411108D0C9F3FB014111EECF01
:1047B00081E090E001970895402539F0403229F4D6
:1047C00040294B57465E08F018940895FB01DC0120
:1047D0000D900020E9F7119701900D920020E1F76C
:1047E0000895FB01DC0101900D920020E1F708958E
:1047F000FB01DC014150504088F08D9181341CF068
:104800008B350CF4805E619161341CF06B350CF4D7
:10481000605E861B611171F3990B0895881BFCCFB4
:10482000CF93DF93CDB7DEB7AE014A5F5F4FFA019A
:1048300061917191AF018091A5189091A61861D0F6
:10484000DF91CF9108950F931F93CF93DF93E09162
:10485000A518F091A618238121FF1BC08C01D0E080
:10486000C0E0F80181918F016091A5187091A618A0
:10487000DB011896ED91FC911997882331F0199579
:10488000892B79F3DFEFCFEFECCF8AE01995892BF5
:1048900019F08FEF9FEF02C08D2F9C2FDF91CF91EA
:1048A0001F910F9108950F931F93CF93DF93CDB76F
:1048B000DEB72E970FB6F894DEBF0FBECDBF0E89C0
:1048C0001F8986E08C831A8309838FEF9FE79E837D
:1048D0008D83AE01465E5F4F688D798DCE01019666
:1048E00010D0EF81F885E00FF11F10822E960FB6E1
:1048F000F894DEBF0FBECDBFDF91CF911F910F9116
:1049000008952F923F924F925F926F927F928F9273
:104910009F92AF92BF92CF92DF92EF92FF920F934E
:104920001F93CF93DF93CDB7DEB72B970FB6F894D5
:10493000DEBF0FBECDBF6C017B018A01FC01178277
:104940001682838181FFBFC1CE0101963C01F60131
:104950009381F70193FD859193FF81917F018823D6
:1049600009F4ADC1853239F493FD859193FF8191AE
:104970007F01853221F4B60190E0D6D1E8CF912CA9
:10498000212C312CFFE1F315D8F08B3279F038F47B
:10499000803279F08332A1F4232D20611DC08D3245
:1049A00061F0803369F4232D216016C0832D82606D
:1049B000382EE32DE4603E2E2AC0F32DF8601DC092
:1049C00037FC2DC020ED280F2A3040F08E32B9F48C
:1049D00036FC75C1232D2064322E19C036FE06C068
:1049E0008AE0989E200D1124922E11C0EAE02E9E9E
:1049F000200D1124222EF32DF0623F2E08C08C369C
:104A000021F4832D8068382E02C0883641F4F701E6
:104A100093FD859193FF81917F018111B3CF982FF1
:104A20009F7D9554933028F40C5F1F4F9FE399832B
:104A30000DC0833631F0833771F0833509F055C0EE
:104A400020C0F801808189830E5F1F4F88248394E2
:104A5000912C530112C02801F2E04F0E511CF801B5
:104A6000A080B18036FE03C0692D70E002C06FEFF8
:104A70007FEFC5014ED14C018201F32DFF773F2E10
:104A800015C0280122E0420E511CF801A080B1801F
:104A900036FE03C0692D70E002C06FEF7FEFC501E5
:104AA0002DD14C01F32DF0683F2E820133FC19C04B
:104AB000822D90E088169906A0F4B60180E290E07D
:104AC00033D12A94F5CFF50137FC859137FE8191DA
:104AD0005F01B60190E028D121102A9421E0821ACA
:104AE00091088114910479F7E1C0843611F0893678
:104AF00039F5F80137FE07C06081718182819381A9
:104B00000C5F1F4F08C060817181072E000C880B5D
:104B1000990B0E5F1F4FF32DFF763F2E97FF09C0B5
:104B200090958095709561957F4F8F4F9F4FF0685E
:104B30003F2E2AE030E0A30133D1882E861844C0EE
:104B4000853731F4232D2F7EB22E2AE030E025C0A8
:104B5000932D997FB92E8F36C1F018F4883579F0EE
:104B6000AEC0803719F0883721F0A9C0E92FE06185
:104B7000BE2EB4FE0DC0FB2DF460BF2E09C034FE66
:104B80000AC0292F2660B22E06C028E030E005C0FA
:104B900020E130E002C020E132E0F801B7FE07C0BA
:104BA00060817181828193810C5F1F4F06C060819B
:104BB000718180E090E00E5F1F4FA301F1D0882E3D
:104BC0008618FB2DFF773F2E36FE0DC0232D2E7F3E
:104BD000A22E891458F434FE0BC032FC09C0832D78
:104BE0008E7EA82E05C0B82CA32C03C0B82C01C003
:104BF000B92CA4FE0FC0FE01E80DF11D80818033A9
:104C000021F49A2D997EA92E09C0A2FE06C0B39464
:104C1000B39404C08A2D867809F0B394A3FC10C025
:104C2000A0FE06C0B21480F4280C922C9B180DC074
:104C3000B21458F4B60180E290E076D0B394F8CF85
:104C4000B21418F42B1802C0982C212CA4FE0FC00B
:104C5000B60180E390E068D0A2FE16C0A1FC03C0BC
:104C600088E790E002C088E590E0B6010CC08A2D8C
:104C7000867851F0A1FE02C08BE201C080E2A7FC61
:104C80008DE2B60190E050D0891430F4B60180E393
:104C900090E04AD09A94F8CF8A94F301E80DF11D80
:104CA0008081B60190E040D08110F6CF222009F437
:104CB0004ECEB60180E290E037D02A94F7CFF601CD
:104CC0008681978102C08FEF9FEF2B960FB6F894E5
:104CD000DEBF0FBECDBFDF91CF911F910F91FF902F
:104CE000EF90DF90CF90BF90AF909F908F907F908C
:104CF0006F905F904F903F902F900895FC0105902A
:104D0000615070400110D8F7809590958E0F9F1FCD
:104D10000895FC016150704001900110D8F7809512
:104D200090958E0F9F1F08950F931F93CF93DF933E
:104D3000FB01238121FD03C08FEF9FEF2CC022FFD9
:104D400016C046815781248135814217530744F4A8
:104D5000A081B1819D012F5F3F4F318320838C93D0
:104D6000268137812F5F3F4F3783268314C08B0105
:104D7000EC01FB010084F185E02D1995892BE1F60A
:104D8000D80116968D919C911797019617969C9332
:104D90008E931697CE01DF91CF911F910F910895B9
:104DA000FA01AA27283051F1203181F1E8946F935C
:104DB0006E7F6E5F7F4F8F4F9F4FAF4FB1E03ED002
:104DC000B4E03CD0670F781F891F9A1FA11D680FA0
:104DD000791F8A1F911DA11D6A0F711D811D911DD3
:104DE000A11D20D009F468943F912AE0269F112448
:104DF0003019305D3193DEF6CF010895462F4770AC
:104E0000405D4193B3E00FD0C9F7F6CF462F4F7006
:104E1000405D4A3318F0495D31FD4052419302D064
:104E2000A9F7EACFB4E0A69597958795779567950A
:104E3000BA95C9F700976105710508959B01AC010A
:104E40000A2E06945795479537952795BA95C9F731
:104E5000620F731F841F951FA01D0895F894FFCF44
:104E60000000A9182000C600CE00D60036010000C0
:104E700000030000000032201D200000A027BE33E8
:104E8000E034C1332042C43360E5AE33A0F2B13325
:104E9000E0FFB433200DB833601ABB33466163744E
:104EA0006F72795265736574203E25733C0A004326
:104EB0006F6E66696775726520746F204555383668
:104EC00038203E25733C0A004765742048574555F5
:104ED00049203E25733C3A2025730A00536574200F
:104EE0004465764555493A202573203E25733C0A92
:104EF0000039303638343838303946303443383079
:104F000030373444443033324331434144444638EB
:104F10003400323042343944413037454341303334
:104F2000353500536574204F544141204964656E06
:104F300074697479206170704555493A2573206110
:104F400070704B45593A2573206465764555493A4A
:104F50002573203E25733C0A0053617665206D6100
:104F600063203E25733C0A005365742041646170E0
:104F700074697665204461746120526174653A20D9
:104F80004F4E203E25733C0A0053657420526563E2
:104F900065697665722044656C61793A20256420E4
:104FA0006D73203E25733C0A004A6F696E204E6582
:104FB00074776F726B2054726965734C6566743ACE
:104FC0002564203E25733C0A0055706C6F61642097
:104FD0004D657373616765203E25733C0A004C5232
:104FE00048616E640049444C4500546D722053760C
:104FF00063005461736B31005461736B3200507203
:105000006F6772616D205374617274656421210051
:1050100048414C5F4C454400737973207265736559
:1050200074006D6163207061757365006D6163204C
:10503000726573756D650073797320666163746F53
:105040007279524553455400737973206765742013
:105050006877657569006D6163206765742067779F
:105060006E62006D616320736574206C696E6B63A2
:10507000686B202564006D6163207365742064652E
:1050800076657569006D6163207365742061707069
:10509000657569006D616320736574206170706B64
:1050A0006579006D616320736574206E776B736B37
:1050B0006579006D61632073657420617070736B36
:1050C0006579006D61632073657420646576616441
:1050D0006472006D61632073617665006D616320A9
:1050E0006A6F696E00756E636E66006D6163207431
:1050F00078202573202564202573006F6666006D77
:1051000061632073657420616472006D6163206760
:10511000657420616472006D61632073657420643E
:1051200072202564006D61632067657420647200DD
:105130006D61632073657420727864656C61793188
:10514000202564006D6163207365742061722025E1
:1051500073006D61632067657420617200332038CD
:105160003639353235303030006D61632073657407
:1051700020727832006D616320736574206368204B
:10518000646379636C6520256420373939006D616B
:1051900063207365742063682066726571202564DE
:1051A00020256C75006D6163207365742063682031
:1051B000647272616E676520256420302037006D4F
:1051C0006163207365742063682073746174757300
:1051D000202564206F6E006D6163207365742070FC
:1051E00077726964782031006D6163207365742083
:1051F000726574782037006F7461610061627000BD
:105200004B4559535F4E4F545F494E4954004E4FE2
:105210005F465245455F43480053494C454E540054
:1052200042555359004D41435F5041555345440049
:1052300044454E494544004143434550544544008C
:10524000494E56414C49445F504152414D004E4FEA
:10525000545F4A4F494E454400494E56414C4944DB
:105260005F444154415F4C454E004652414D455FBD
:10527000434F554E5445525F4552525F52454A4F37
:10528000494E5F4E4545444544004D41435F5458A7
:105290005F4F4B004D41435F5258004D41435F45C6
:1052A00052524F5200554E4B4E4F574E0097059C51
:1052B00005003106013F0602A00503AE0504B9054D
:1052C00005C00506C50507D00508D70509E0050A8C
:1052D000EE050BF9050C0A060D2A060E34060F3BE7
:0452E0000610450669
:00000001FF
