:1000000047C2000066C2000064C2000062C2000075
:1000100060C200005EC200005CC200005AC2000064
:1000200058C2000056C2000054C2000052C2000074
:1000300077C700004EC200004CC200004AC2000058
:1000400048C2000046C2000044C2000042C2000094
:1000500040C200003EC200003CC200003AC20000A4
:1000600038C200000C946B200C94BD2032C20000FA
:1000700030C200002EC200002CC200002AC20000C4
:1000800028C2000026C2000024C2000022C20000D4
:100090000C9401210C9453211CC200000C94EB23FE
:1000A00018C2000016C2000014C2000012C20000F4
:1000B00010C200000EC200000CC200000AC2000004
:1000C00008C2000006C2000004C200000C94972180
:1000D0000C94E921FEC100000C942D220C947F2287
:1000E000F8C10000BF01BF01BF01F9010102170201
:1000F000BF01BF01F90101020D247D247D247D246F
:100100007D247D247D247D240D247D247D247D2457
:100110007D247D247D247D240F247D247D247D2445
:100120007D247D247D247D247D247D247D247D24C7
:100130007D247D247D247D240F247D247D247D2425
:100140007D247D247D247D247D247D247D247D24A7
:100150007D247D247D247D2479247D247D247D249B
:100160007D247D247D247D2444247D247D247D24C0
:100170007D247D247D247D247D247D247D247D2477
:100180007D247D247D247D2438247D247D247D24AC
:100190007D247D247D247D245C2402E217E10F2E42
:1001A000F2E5EF2EF7E1FF2EF02D80912117882345
:1001B00011F10FB6F8940F92D8011796ED91FC91BA
:1001C0001897C085D185CE0102960FD5809115175D
:1001D00081508093151780912117815080932117AA
:1001E0000F900FBE8B8D9C8D5CD4CE015AD4809124
:1001F00021178111DECFF7018081823008F0CAD546
:100200000E942216D2CFCF93DF93CDB7DEB760978F
:100210000FB6F894DEBF0FBECDBFCE0101969A8710
:100220008987812C912CA12CB12C69847A84E0914E
:100230008A17F0918B178081882309F40FC10780FA
:10024000F085E02D20803180428053800E94560F3F
:10025000CE0101960E948C156B877C878D879E87C7
:100260008981811165C08B859C85AD85BE85821590
:100270009305A405B50508F444C00E943F10E09121
:100280008A17F0918B170780F085E02DA085B18546
:10029000B88BAF87CD010296A8D4EF85F8898789FE
:1002A00082FF21C04685578560897189420D531DA3
:1002B000641D751D720161010B851C852D853E85B0
:1002C000CF010E949C14882399F0C82CD92CEA2CC9
:1002D000FB2C00E010E0A201910160E08F8598897D
:1002E0000E942E1505C08E7FAF85B88957968C93D6
:1002F000AF85B8895496ED91FC915597CD0119952C
:100300009FC020E0B201A1018B859C85AD85BE8593
:10031000481B590B6A0B7B0B8091861790918717AE
:100320000E945F0A0E943F1081118AC033D588C0A5
:100330000E943F1085C0898188230CF481C04E80C3
:100340005F80D2011C968D919C911D97892B19F08D
:10035000C20102964AD4CE0108960E948C158B01E8
:100360009C01E9810E2E000CFF0BEA30F10508F02C
:1003700067C08827EE58FF4F8F4F0C948326F201F9
:1003800087898160878BCA80DB80EC80FD80468511
:100390005785608971894C0D5D1D6E1D7F1DC201E1
:1003A0000E949C14882309F44BC0D2015496ED910D
:1003B000FC915597C2011995F201878982FF40C0CF
:1003C0004A815B816C817D8186859785A089B18911
:1003D0009A01AB01280F391F4A1F5B1FC82CD92C6B
:1003E000EA2CFB2C00E010E060E0C2010E942E1518
:1003F00027C0D20157968C9157978E7F57968C9332
:100400001FC0F20187898160878B4A815B816C8183
:100410007D8146875787608B718B400F511F621F0C
:10042000731F68017901C2010E949C1409C0F20186
:10043000878981FD03C0C20134D302C08E7F878BC0
:10044000282D392D4A2D5B2D662D772D809186170D
:10045000909187179DD781116ECFE9CE0E94560FDC
:10046000CE0101960E948C156B877C878D879E87B5
:10047000898181115DCFE0918817F0918917808182
:1004800021E0811120E0282C392C4A2C5B2C3ACF1A
:1004900011241FBECFEFD1E2DEBFCDBF00E00CBF05
:1004A00016E0A0E0B2E0E2E9F6E500E00BBF02C032
:1004B00007900D92A43FB107D9F729E1A4EFB6E068
:1004C00001C01D92A634B207E1F70E94BB160C943E
:1004D000472B96CDCF93DF9300D01F92CDB7DEB7D9
:1004E00081E00E94F81A62E070E080E090E00E94F3
:1004F000191180E00E94F81A66E970E080E090E04F
:100500000E9419110E94AE1A81E00E9406190E94F1
:100510000C1B0E94891D9F938F938EE692E09F9300
:100520008F930E9429280E948A1C0E94891D9F93F4
:100530008F9381E892E09F938F930E94292884EF04
:1005400096E00E941E1B0E94891D04EF16E01F9377
:100550000F939F938F938AE992E09F938F930E94CA
:100560002928C8010E943A1B0E94891D9F938F93DE
:100570001F930F938EEA92E09F938F930E942928F6
:10058000A80163EC72E084EE92E00E94681D0E9474
:10059000891D9F938F931F930F9383EC92E09F93FA
:1005A0008F9384EE92E09F938F9385EF92E09F93D9
:1005B0008F930E9429280E946D1B0E94891D9F9382
:1005C0008F938BE293E09F938F930E9429280FB61D
:1005D000F894DEBF0FBECDBF81E00E94671C0E9471
:1005E000891D9F938F938AE393E09F938F930E943B
:1005F000292884EF91E00E94721C0E94891D9F931C
:100600008F9381E08F9384EF8F938BE593E09F939B
:100610008F930E9429280FB6F894DEBF0FBECDBF7E
:100620000AE010E00F2EFBE7EF2EF3E0FF2EF02D97
:1006300080E00E94731BD82E0E94891D9F938F9388
:100640001F930F93FF92EF920E9429280F900F9013
:100650000F900F900F900F9098E0D91609F43FC0BB
:1006600080E00E94721966E371E080E090E00E94F1
:10067000191101501109E1F62BC08CD3FECF48EAC5
:1006800058E460E070E0CE0101960E94BB1020E0CB
:1006900030E0A90160E079E18091FE189091FF18A7
:1006A00077D6813061F783E00E94841960E079E1B8
:1006B00080E00E949C1B0E94891D9F938F931F9333
:1006C0000F930E9429280F900F900F900F90D7CF73
:1006D00081E00E94631980E00E942D19CECF81E055
:1006E0000E9454190E945C0F69837A838B839C83D8
:1006F0000BE913E0C4CFEF92FF920F939B01E12C23
:10070000F12C082F48E851E060EB73E08AE692E0B4
:100710000E94FB0D0F91FF90EF90089590931B198D
:1007200080931A19089590931919809318190895B0
:100730009093171980931619089590931719809321
:1007400016190895FC0160911619709117194091BE
:1007500018195091191920911A1930911B1980916B
:100760001C1990911D19A2E0A083A8E0A1837283B7
:100770006383548345833683278390878187CF01A2
:10078000089568EE73E080E090E00E9419110E94E5
:10079000E01E68E273E280E090E00E941911F1CF60
:1007A00090931F1980931E19089580911E1990919E
:1007B0001F190895CF93DF93CDB7DEB7AC970FB66F
:1007C000F894DEBF0FBECDBFFC01E080F180CE010A
:1007D0000196B8DF36D0ACDF3ED0A5DFE6DF9EDF86
:1007E00081E090E0AADFCE014796ACDF86E1FE0112
:1007F0007796DE01119601900D928A95E1F700E05F
:100800002FEF3FEFA901BE016F5F7F4FC701CCD42F
:10081000E1CFFFCF68EE73E080E090E00E94191115
:100820000E948E1764E670E080E090E00E9419114B
:100830000E94A31764E670E080E090E00E94191126
:10084000E9CF0E94B4170E94C216709323196093D7
:100850002219CB0108950E94C9170E94C2167093F5
:10086000211960932019CB010895E7E0F1E0808120
:100870008F6080830895E8E0F1E09081907F90831D
:1008800090818F70982B90830895E8E0F1E080814B
:10089000807F80830895CF93DF93DC01E0E6F7E06B
:1008A00001C0F901208131812A173B07D0F38281F1
:1008B0009381AF01480F591FA417B50749F4129649
:1008C0004D915C911397840F951F93838283DF0171
:1008D00012968D919C911397ED01C80FD91F2C177B
:1008E0003D07D9F420915E0730915F07C217D30707
:1008F00081F02A813B81820F931F13969C938E93E4
:100900001297C081D1818881998111969C938E9391
:1009100007C01196DC93CE9303C011963C932E939F
:10092000AE17BF0711F0B183A083DF91CF91089577
:10093000CF92DF92EF92FF920F931F93CF93DF93AB
:10094000EC010E94560F80915E0790915F07892B02
:1009500041F5E0E6F7E0A4E6B7E0B183A0831382B7
:100960001282E0E0F7E1F0935F07E0935E07138205
:100970001282118210828CE99FE013969C938E93D1
:100980001297ED93FC9390935B0780935A07909393
:100990005D0780935C0780E090E89093590780930F
:1009A0005807E0905807F0905907C7018C239D2302
:1009B000892B09F066C0209709F466C0AE014C5F30
:1009C0005F4F09F45EC000915C0710915D0704174A
:1009D000150708F456C0C0916007D0916107E0E6A2
:1009E000F7E002C0FE01E9012A813B8124173507A7
:1009F00028F42881398121153105A1F780915E07FE
:100A000090915F07C817D907E1F1C080D18084E0D9
:100A1000C80ED11C88819981918380832A813B8172
:100A2000241B350B2930310548F0CE01840F951F6A
:100A3000FC01338322835B834A832DDF8A819B8180
:100A4000081B190B10935D0700935C0720915A0750
:100A500030915B070217130720F410935B07009394
:100A60005A07E82AF92AFB82EA82198218820E9430
:100A70003F10C114D10459F40E942316C12CD12C6B
:100A800006C00E943F10F8CF0E943F10F5CFC6016C
:100A9000DF91CF911F910F91FF90EF90DF90CF905A
:100AA0000895CF93DF93009751F1FC013497228191
:100AB00033814091580750915907B9016423752338
:100AC000672BE9F060817181672BC9F4EF014095D4
:100AD000509524233523338322830E94560F20917F
:100AE0005C0730915D078A819B81820F931F9093F1
:100AF0005D0780935C07CE01CEDE0E943F10DF9140
:100B0000CF910895FC010396928381834FEF5FEFAD
:100B1000BA01438354836583768390878783928762
:100B2000818710820895FC01138612860895CF9361
:100B3000DF939C01FB01DC011196CD91DC911297B2
:100B4000D583C4838E819F81978386838E819F8185
:100B5000DC0115967C936E9314977F836E833387A5
:100B60002287F90180818F5F8083DF91CF91089583
:100B70000F931F93CF93DF93EB01088119812A8193
:100B80003B810F3F4FEF14072407340721F4FC018A
:100B9000A185B28511C0DC01139601C0DF01149656
:100BA000ED91FC9115974081518162817381041709
:100BB00015072607370790F71496ED91FC911597C6
:100BC000FD83EC83D783C683BF83AE831596DC9306
:100BD000CE9314979B878A87FC0120812F5F208307
:100BE000DF91CF911F910F910895CF93DF93FC0177
:100BF000A285B385C481D581868197819F838E83A9
:100C0000C681D781848195819D838C8311968D9136
:100C10009C911297E817F90731F486819781129613
:100C20009C938E931197138612868C9181508C938E
:100C30008C91DF91CF91089531E1FC0130833197A0
:100C400022E220833197A3E3A08331976083319719
:100C500070833197108231971082319760E86083FA
:100C6000319710823197108231971082319762E06C
:100C70006083319763E06083319764E060833197EC
:100C800065E06083319766E06083319767E0608359
:100C9000319768E06083319769E06083319760E164
:100CA000608331973083319732E13083319733E17C
:100CB0003083319734E13083319735E13083319798
:100CC00036E13083319737E13083319738E1308333
:100CD000319739E13083319730E23083319731E217
:100CE000308331972083319723E2208331974083EB
:100CF00031975083319726E22083319727E2208372
:100D0000319728E22083319729E22083319720E32D
:100D10002083319721E3208389970895A89590EC4B
:100D200088E10FB6F894A895809360000FBE909369
:100D30006000A0917E17B0917F17CD91CDBFDD915E
:100D4000DEBFFF91EF91DF91CF91BF91AF919F9166
:100D50008F917F916F915F914F913F912F911F9153
:100D60000F91FF90EF90DF90CF90BF90AF909F904A
:100D70008F907F906F905F904F903F902F901F903B
:100D80000F900CBE0F900BBE0F900FBE0F900895EA
:100D900081E008950F920FB6F8940F920BB60F9260
:100DA0000CB60F921F9211242F923F924F925F9296
:100DB0006F927F928F929F92AF92BF92CF92DF926B
:100DC000EF92FF920F931F932F933F934F935F9355
:100DD0006F937F938F939F93AF93BF93CF93DF9343
:100DE000EF93FF93A0917E17B0917F170DB60D92F0
:100DF0000EB60D920E943211A0917E17B0917F170E
:100E0000CD91CDBFDD91DEBFFF91EF91DF91CF910D
:100E1000BF91AF919F918F917F916F915F914F9112
:100E20003F912F911F910F91FF90EF90DF90CF9006
:100E3000BF90AF909F908F907F906F905F904F90FA
:100E40003F902F901F900F900CBE0F900BBE0F90F5
:100E50000FBE0F9008950F920FB6F8940F920BB635
:100E60000F920CB60F921F9211242F923F924F9225
:100E70005F926F927F928F929F92AF92BF92CF922A
:100E8000DF92EF92FF920F931F932F933F934F9315
:100E90005F936F937F938F939F93AF93BF93CF9302
:100EA000DF93EF93FF93A0917E17B0917F170DB65C
:100EB0000D920EB60D9213BE0E946A0F81110E9410
:100EC0003211A0917E17B0917F17CD91CDBFDD91EA
:100ED000DEBFFF91EF91DF91CF91BF91AF919F91D5
:100EE0008F917F916F915F914F913F912F911F91C2
:100EF0000F91FF90EF90DF90CF90BF90AF909F90B9
:100F00008F907F906F905F904F903F902F901F90A9
:100F10000F900CBE0F900BBE0F900FBE0F90089558
:100F20009ADF18950FB6F8940F92FC01968D0F90EA
:100F30000FBE81E0911180E008950F931F93CF932E
:100F4000DF93EC01042F1E8D48A141110CC0888154
:100F50009981892B09F042C08C819D810E94BD122C
:100F60001D821C8242C0011117C050E08A819B8102
:100F70000E94CA2728A18A819B81820F911D9B8391
:100F80008A832C813D818217930750F18881998152
:100F90009B838A8380E029C050E08E819F810E94DC
:100FA000CA2788A190E09195819591092E813F8172
:100FB000280F391F3F832E83488159812417350715
:100FC00030F42C813D81820F931F9F838E830230EA
:100FD00049F4112349F0115080E007C080E005C0BA
:100FE00080E003C080E001C080E01F5F1E8FDF91C2
:100FF000CF911F910F910895FC0140A14423A9F0C6
:1010000050E026813781240F351F37832683848162
:1010100095812817390720F08081918197838683F5
:10102000CB01668177810C94CA270895EF92FF92D5
:101030000F931F93CF938C010FB6F8940F92FC017E
:10104000C2A11C16ACF48389811106C011C0F8013D
:101050008389811105C00CC07801F3E1EF0EF11C0A
:10106000C7010E94E81181110E94A612C15079F7B0
:101070008FEFF80182A30F900FBE0FB6F8940F9276
:10108000C1A11C16ACF48085811106C011C0F80105
:101090008085811105C00CC07801F8E0EF0EF11CCD
:1010A000C7010E94E81181110E94A612C15079F770
:1010B0008FEFF80181A30F900FBECF911F910F9179
:1010C000FF90EF900895CF93DF93EC010FB6F89463
:1010D0000F92E881F9818F8D28A190E030E0829F06
:1010E000A001839F500D929F500D11244E0F5F1F42
:1010F0005D834C831E8EFB83EA830197829FA00150
:10110000839F500D929F500D1124CF01840F951F86
:101110009F838E838FEF89A38AA361110BC088857B
:10112000882371F0CE0108960E94E811882341F0CF
:1011300031DE06C0CE010896E5DCCE014396E2DC46
:101140000F900FBE81E0DF91CF910895FF920F9332
:101150001F93CF93DF93082F162FF42E6623B9F039
:10116000869FC00111248596E3DBEC01009741F4D2
:1011700014C00F8F18A361E0CE01A5DFFCA20DC043
:10118000859699838883F5CFD983C883F2CF85E28A
:1011900090E0CEDBEC01892BB9F7CE01DF91CF9146
:1011A0001F910F91FF9008959F92AF92BF92CF929F
:1011B000DF92EF92FF920F931F93CF93DF93CDB700
:1011C000DEB729970FB6F894DEBF0FBECDBF7C0106
:1011D0005B012E833F834887598710E099249394BD
:1011E0006C0188E0C80ED11C0FB6F8940F92F7017D
:1011F000968D878D981710F00230B1F4402FB5010D
:10120000C7019BDEF7019389992341F0C7014396FB
:101210000E94E811882321F0BDDD02C08111BADDF2
:101220000F900FBE81E04EC08E819F81A885B98549
:10123000892B8A2B8B2B21F40F900FBE80E042C0AC
:10124000111105C0CE0101960E944012192D0F9078
:101250000FBE2CD60FB6F8940F92F70181A18F3FE5
:1012600009F411A2F70182A18F3F09F412A20F9095
:101270000FBEBE016A5F7F4FCE0101960E945112E0
:1012800081111CC00FB6F8940F92F701968D878DCF
:101290000F900FBE98130EC04E815F8168857985CF
:1012A000C6010E94B111C701C1DEE9D681119CCFF0
:1012B00071DD9ACFC701BADEE2D696CFC701B6DE9E
:1012C000DED680E029960FB6F894DEBF0FBECDBF04
:1012D000DF91CF911F910F91FF90EF90DF90CF9012
:1012E000BF90AF909F9008950F93CF93DF93482FB7
:1012F00060E081E02BDFEC01009761F01D821C8231
:10130000198218821E8200E020E030E0A90160E02E
:1013100070E04ADFCE01DF91CF910F910895EF92F7
:10132000FF920F931F93CF93DF938A01FC01568D99
:10133000378D531710F02230E9F4422F7801EC0179
:101340001AA1FBDD1F3F81F48B898823A9F0CE0110
:1013500043960E94E811882389F0E114F10481F09A
:1013600081E0F70180830DC0FF24F394F10EFAA20F
:1013700081E007C080E005C081E003C081E001C0DA
:1013800081E0DF91CF911F910F91FF90EF90089531
:101390009F92AF92BF92CF92DF92EF92FF920F9304
:1013A0001F93CF93DF93CDB7DEB729970FB6F8948D
:1013B000DEBF0FBECDBF8C015B012E833F8348870C
:1013C0005987E12C992493946C0183E1C80ED11CB8
:1013D0000FB6F8940F92F801F68CFF2091F0B5014A
:1013E000C8010ADEFA94F801F68E8085882329F078
:1013F000C8010896EDD78111CDDC0F900FBE81E0BA
:101400004CC08E819F81A885B985892B8A2B8B2B17
:1014100021F40F900FBE80E040C0E11005C0CE0166
:1014200001960E944012E92C0F900FBE3FD50FB6D7
:10143000F8940F92F80181A18F3F09F411A2F801ED
:1014400082A18F3F09F412A20F900FBEBE016A5F06
:101450007F4FCE0101960E945112811115C0C80123
:1014600061DD882369F04E815F8168857985C601D9
:1014700078D7C801DBDD03D68111AACF8BDCA8CFDA
:10148000C801D4DDFCD5A4CFC801D0DDF8D5C80192
:1014900049DD882309F49CCF80E029960FB6F894A3
:1014A000DEBF0FBECDBFDF91CF911F910F91FF9097
:1014B000EF90DF90CF90BF90AF909F900895CF9323
:1014C000DF93EC010FB6F8940F9289A18F3F09F4D6
:1014D00019A28AA18F3F09F41AA20F900FBE8E8D18
:1014E000811103C0CE01439653D7CE019FDDDF911A
:1014F000CF910895FC014481558122813381240FCD
:10150000351F80819181B901681B790BCB0164176C
:10151000750710F0841B950B0895AF92BF92CF9280
:10152000DF92EF92FF920F931F93CF93DF936C01A3
:101530005B017A01FC01C281D381048115810C1BFE
:101540001D0B4017510708F48A01F6018485958523
:10155000A801B5018C0F9D1F0E94CA270E151F05FB
:1015600058F4A701401B510BB501600F711FF60124
:10157000848595850E94CA27CE018E0D9F1DF60198
:10158000248135818217930710F0821B930BF6019B
:1015900093838283C701DF91CF911F910F91FF90B9
:1015A000EF90DF90CF90BF90AF900895CF92DF92F1
:1015B000EF92FF920F931F93CF93DF931F921F928F
:1015C000CDB7DEB75A83498321153105C9F06B01C8
:1015D0007C01FC01868580FD08C0CA0124173507FF
:1015E00008F4C9019A83898311C02017310758F084
:1015F00042E050E0BE016F5F7F4FC7018EDF06C043
:1016000080E090E008C080E090E005C049815A8108
:10161000B601C70182DF0F900F90DF91CF911F912C
:101620000F91FF90EF90DF90CF900895AF92BF920F
:10163000CF92DF92EF92FF920F931F93CF93DF939E
:101640007C015B01E9014217530708F4EA01209786
:1016500079F1F70100811181C480D580C01AD10AC7
:10166000CC15DD0508F46E01F70164857585600F02
:10167000711FA601C5010E94CA27CC16DD0658F4C9
:10168000AE014C195D09F70164857585C5018C0DA6
:101690009D1D0E94CA270C0F1D1FF7018481958193
:1016A0000817190710F0081B190BF70111830083A5
:1016B000CE01DF91CF911F910F91FF90EF90DF90BE
:1016C000CF90BF90AF900895EF92FF921F93CF936A
:1016D000DF93EB0111E0413009F010E0209711F4A5
:1016E000C1E0D0E07C012FEFE21AF20A419620D946
:1016F000009781F020E1FC0111922A95E9F79C0105
:10170000205F3F4FFC0135872487F582E482D78331
:10171000C6831687DF91CF911F91FF90EF900895B8
:10172000CF93DF93FC0127850FB6F8940F92808545
:101730009185892BD1F482859385892BC1F4868587
:101740004681578164817581A485B58590E1EF015B
:1017500019929A95E9F7B587A487758364835783AF
:1017600046838687278781E003C080E001C080E050
:101770000F900FBEDF91CF910895FC012481358138
:101780008081918142815381820F931F0197841B35
:10179000950B8217930710F0821B930B08952F92DD
:1017A0003F924F925F926F927F928F929F92AF92F1
:1017B000BF92CF92DF92EF92FF920F931F93CF933E
:1017C000DF93CDB7DEB729970FB6F894DEBF0FBE13
:1017D000CDBF5C011B012A010E831F832887398737
:1017E000FC01868580FF05C03A01F2E06F0E711C96
:1017F00001C03A018E819F81A885B985892B8A2BEA
:101800008B2B09F434C0CE01019624D60FB6F89480
:101810000F92C501B2DF4C018615970518F580E0DF
:1018200090E00E94881496D6F501938782870F90E6
:101830000FBECE80DF80E884F98400E010E020E075
:1018400030E0A90160E070E0CB01D7D6F501138646
:101850001286BE016A5F7F4FCE01019622D6882391
:10186000A9F202C00F900FBE8114910419F4C501B2
:1018700084DF4C0183019401A201B101C50196DE10
:101880007C01892BD9F0C50135DEF5012681378130
:101890008217930798F00AD3F50180859185892BEB
:1018A00061F08085918500E010E020E040E050E0AC
:1018B000BA012DD7F50111861086E1D3C70129960B
:1018C0000FB6F894DEBF0FBECDBFDF91CF911F9151
:1018D0000F91FF90EF90DF90CF90BF90AF909F90CF
:1018E0008F907F906F905F904F903F902F900895D2
:1018F000AF92BF92CF92DF92EF92FF920F931F931E
:10190000CF93DF93EC015B016A0179018E8580FF43
:1019100004C08A010E5F1F4F01C08A01CE012DDF76
:101920009C01A601B501CE0141DE6C01892BB1F00D
:10193000CE01E0DD2E813F818217930778F0888504
:101940009985892B59F08885998500E010E020E081
:1019500040E050E0BA0153D719861886C601DF91DE
:10196000CF911F910F91FF90EF90DF90CF90BF909C
:10197000AF9008954F925F926F927F928F929F9255
:10198000AF92BF92CF92DF92EF92FF920F931F938D
:10199000CF93DF931F921F92CDB7DEB75C012B016F
:1019A0003A0168017901FC01868580FD03C0812C24
:1019B000912C04C06894882481F8912CC114D1041E
:1019C000E104F10429F10FB6F8940F92C50192DDFC
:1019D0008C018816990638F080E090E099D7BAD546
:1019E000F501918780870F900FBE80169106B0F0A9
:1019F00000E010E020E030E0A90160E070E0CB0101
:101A0000FCD5F50111861086C50174DD8C0103C07B
:101A1000C50170DD8C0180169106B8F58114910422
:101A2000C1F0F501E080F1809801A401BE016F5F73
:101A30007F4FC501FBDD89819A8108191909681654
:101A4000790630F4F501F182E082612C712C01C03D
:101A50003C019801A301B201C501E8DD7C01892B9D
:101A6000B1F024D2F50182859385892B61F08285BE
:101A7000938500E010E020E040E050E0BA0147D656
:101A8000F50113861286FBD202C0E12CF12CC701AE
:101A90000F900F90DF91CF911F910F91FF90EF90DA
:101AA000DF90CF90BF90AF909F908F907F906F907E
:101AB0005F904F900895E0913A17F0913B17808125
:101AC00081110CC08FEF9FEFDC018093071790937B
:101AD0000817A0930917B0930A170895E0913A17D1
:101AE000F0913B170780F085E02D0084F185E02D13
:101AF00082819381A481B581809307179093081701
:101B0000A0930917B0930A1708958F929F92AF92EE
:101B1000BF92CF92DF92EF92FF92CF936B017C0145
:101B2000C42F8090111790901217A0901317B090A7
:101B3000141780917E1790917F17029656D88FEFD9
:101B4000C816D806E806F80669F4CC2359F0609167
:101B50007E1770917F176E5F7F4F86E197E10E943D
:101B600097053FC0C80CD91CEA1CFB1CE0917E17EE
:101B7000F0917F17C282D382E482F582C814D9041F
:101B8000EA04FB0468F460917E1770917F178091DE
:101B90003817909139176E5F7F4F0E94B80521C0AA
:101BA00060917E1770917F1780913A1790913B1743
:101BB0006E5F7F4F0E94B8058091071790910817BC
:101BC000A0910917B0910A17C816D906EA06FB06B4
:101BD00040F4C0920717D0920817E0920917F092CC
:101BE0000A17CF91FF90EF90DF90CF90BF90AF900A
:101BF0009F908F9008954F925F926F927F928F92F5
:101C00009F92AF92BF92CF92DF92EF92FF920F938B
:101C1000CF93DF934C016B015A012901CA010E9445
:101C200098043C01892B09F4F4C080E390E00E9401
:101C30009804EC01892B99F07C8E6B8EA50165EAE6
:101C400070E0C3010E94D32721E0A21AB1088B8D56
:101C50009C8DA80EB91EC114D10429F420C0C30163
:101C60000E945105D6C0D6018C918D8F8C9188230E
:101C7000A1F0AE01425E5F4FF6013196B8E0CB0EA7
:101C8000D11CCF012191DA012D93AD01DC018C91A2
:101C9000882319F0EC15FD05A1F71CA201C01D8ECB
:101CA000043008F003E00A8F0FA318A66E01B2E01B
:101CB000CB0ED11CC6010E949305CE010E960E9448
:101CC0009305DB87CA8784E090E0A0E0B0E0801B4A
:101CD0009109A109B1098E879F87A88BB98BDF8BEA
:101CE000CE8B1AA619A61BA61CA61DA61EA61FA64D
:101CF000A201B401C5010E941C0699838883E114E6
:101D0000F10419F0F701D183C0830FB6F8940F9254
:101D1000809115178F5F8093151780917E17909192
:101D20007F17892BD1F5D0937F17C0937E178091B1
:101D30001517813009F041C082E597E10E948205C4
:101D40008DE597E10E94820588E697E10E94820571
:101D500083E797E10E94820587E497E10E9482056C
:101D60008CE397E10E9482058DE297E10E94820553
:101D700082E297E10E94820586E197E10E94820556
:101D800087E497E190933B1780933A178CE397E1B0
:101D9000909339178093381710C080910F178111D5
:101DA0000CC0E0917E17F0917F17928D8A8D891774
:101DB00020F0D0937F17C0937E1780910B178F5F11
:101DC00080930B178DA38A8D90911017981710F49C
:101DD00080931017FBE08F9FC0011124B6018E5A2B
:101DE000984E0E9497050F900FBE80910F17882381
:101DF00061F0E0917E17F0917F17928D8A8D981790
:101E000030F40E94CA0681E005C081E003C081E091
:101E100001C08FEFDF91CF910F91FF90EF90DF9096
:101E2000CF90BF90AF909F908F907F906F905F907A
:101E30004F900895EF92FF920F930F2EF5E0EF2E43
:101E4000F7E1FF2EF02D00E020E030E040EC50E024
:101E500067EB73E08DEC90E0CEDE813019F5DED5D6
:101E6000813001F5F8948FEF9FEFDC018093071725
:101E700090930817A0930917B0930A1781E08093F5
:101E80000F17109211171092121710921317109229
:101E90001417E0917E17F0917F1781A50E943B04F3
:101EA0000E948E060F91FF90EF9008958091041785
:101EB0008F5F8093041708950FB6F8940F92609186
:101EC00011177091121780911317909114170F909A
:101ED0000FBE08959F92AF92BF92CF92DF92EF9282
:101EE000FF920F931F93CF93DF938091041781117B
:101EF000ADC0C0901117D0901217E0901317F0905A
:101F000014178FEFC81AD80AE80AF80AC0921117F6
:101F1000D0921217E0921317F0921417C114D10443
:101F2000E104F104B1F480913A1790913B172091AC
:101F300038173091391730933B1720933A17909305
:101F400039178093381780910C178F5F80930C1787
:101F5000B2DD8091071790910817A0910917B091F1
:101F60000A17C816D906EA06FB0610F4B12C5DC0A4
:101F7000B12C0F2EFBE0AF2EF02D99249394E0911D
:101F80003A17F0913B17808181110CC08FEF9FEFC2
:101F9000DC018093071790930817A0930917B0935B
:101FA0000A1743C0E0913A17F0913B170780F0857C
:101FB000E02DC085D1858A819B81AC81BD81C81609
:101FC000D906EA06FB0648F4809307179093081792
:101FD000A0930917B0930A1728C08E010E5F1F4FF8
:101FE000C8010E94F505888D998D892B21F0CE01BD
:101FF0000E960E94F5058A8D90911017981710F48F
:1020000080931017A89EC0011124B8018E5A984ED3
:102010000E949705E0917E17F0917F179A8D828D2F
:10202000981708F4ACCFB92CAACFE0917E17F091A5
:102030007F17E28D8BE0E89FF0011124EE5AF84EF5
:102040008081823048F0BB24B39406C080910E1783
:102050008F5F80930E17B12C80910D17882311F09C
:10206000BB24B3948B2DDF91CF911F910F91FF90E3
:10207000EF90DF90CF90BF90AF909F900895CF9258
:10208000DF92EF92FF920F931F93CF93DF930FB6E0
:10209000F8940F92809104178150809304178091D7
:1020A000041781115AC08091151781112CC058C096
:1020B000D7011796ED91FC911897C085D185CE0177
:1020C0000E960E94F5058E010E5F1F4FC8010E94FB
:1020D000F5058A8D90911017981710F480931017BA
:1020E000D89EC0011124B8018E5A984E0E949705BF
:1020F000E0917E17F0917F179A8D828D981788F066
:10210000C0920D170EC0C0E0D0E00F2EFDE2EF2E02
:10211000F7E1FF2EF02D0F2EFBE0DF2EF02DCC246B
:10212000C394F70180818111C3CFCD2B09F0C3DCAB
:10213000C0910E17CC2349F0D1E0CCDE8111D093B1
:102140000D17C150D1F710920E1780910D178823EB
:1021500031F00E94CA0681E003C080E001C080E047
:102160000F900FBEDF91CF911F910F91FF90EF90D5
:10217000DF90CF900895CF92DF92EF92FF920F936E
:102180001F93CF93DF93EC016A017B018FDE0091F7
:10219000111710911217209113173091141788817D
:1021A0009981AA81BB81AC01BD014C0D5D1D6E1DE5
:1021B0007F1D081719072A073B0778F448175907A6
:1021C0006A077B0740F5488359836A837B8304173A
:1021D000150726073707A0F40BC0481759076A07E9
:1021E0007B07A0F0041715072607370778F013C000
:1021F000CB01BA01601B710B820B930B40E085DCB5
:102200003EDF81110DC00E94CA060AC0488359836F
:102210006A837B83EDCF488359836A837B83F0CFC6
:10222000DF91CF911F910F91FF90EF90DF90CF90B2
:102230000895CF92DF92EF92FF926B017C01672BA2
:10224000682B692B41F032DE40E0C701B6015DDC4E
:1022500016DF811102C00E94CA06FF90EF90DF9046
:10226000CF90089580910417882321F081E0809316
:102270000D17089510920D17E0917E17F0917F17BA
:1022800081A50E944504A0917E17B0917F17E0912F
:102290007E17F0917F172D913C91838D948D82173D
:1022A000930758F060917E1770917F1780917E1789
:1022B00090917F17635E7F4FD3D480911017282FA2
:1022C00030E09BE0899FF0011124EE5AF84E908196
:1022D00091110EC04BE08150282F30E0429FF00159
:1022E000439FF00D1124EE5AF84E9081992399F3F3
:1022F0009BE0929FA001939F500D1124DA01AE5AEA
:10230000B84E1196ED91FC9112970480F581E02D65
:102310001296FC93EE9311974B5A584EE417F5071B
:1023200029F444815581FD01528341839BE0929FB2
:10233000F001939FF00D1124EE5AF84E0180F281C6
:10234000E02D2085318530937F1720937E17809371
:102350001017E0917E17F0917F1781A50C943B0434
:102360000895CF92DF92EF92FF926A017B01609114
:102370007E1770917F17625F7F4F0E94B80541E022
:10238000C701B601C2DBFF90EF90DF90CF900895B8
:10239000CF92DF92EF92FF92CF936A017B01C22F1F
:1023A00060917E1770917F17625F7F4F0E94970543
:1023B000CC2321F0CC24CA94DC2C76014C2FC7010D
:1023C000B601A3DBCF91FF90EF90DF90CF900895FF
:1023D0000F931F93CF93DF93DC011796ED91FC9140
:1023E0001897C085D1858E01025F1F4FC8010E94DA
:1023F000F50580910417811116C00C501109C80110
:102400000E94F5058A8D90911017981710F480930B
:102410001017BBE08B9FC0011124B8018E5A984E53
:102420000E94970505C0B8018DE297E10E949705CB
:10243000E0917E17F0917F179A8D828D891720F495
:1024400081E080930D1701C080E0DF91CF911F9153
:102450000F9108950FB6F8940F9220910C17FC017C
:1024600020834091111750911217609113177091AA
:10247000141741835283638374830F900FBE0895B2
:1024800020910C17FC0120834091111750911217D5
:10249000609113177091141741835283638374837F
:1024A0000895CF92DF92EF92FF920F931F93CF93F5
:1024B000DF93FB010FB6F8940F92409111175091E2
:1024C00012176091131770911417008111812281E6
:1024D00033810F3FAFEF1A072A073A0749F1EC01A2
:1024E000C980DA80EB80FC80A0910C17B881BA1704
:1024F00029F04C155D056E057F05E0F44C195D096A
:102500006E097F09401751076207730758F4041BCF
:10251000150B260B370B0083118322833383B0DF27
:1025200080E009C0108211821282138281E003C010
:1025300080E001C081E00F900FBEDF91CF911F912D
:102540000F91FF90EF90DF90CF90089581E08093FE
:102550000D17089580917E1790917F1708958091AF
:102560000F17882331F080910417882321F080E031
:10257000089581E0089582E008950F931F93CF930B
:10258000DF93FC01892B79F180A5815080A7228DF2
:1025900097A1291751F181112AC0EF018F010E5F18
:1025A0001F4FC8010E94F5058FA18A8F44E050E0BB
:1025B00060E070E0481B5109610971094E875F872F
:1025C000688B798B90911017981710F480931017DF
:1025D0002BE0829FC0011124B8018E5A984E0E94B0
:1025E000970581E005C080E003C080E001C080E085
:1025F000DF91CF911F910F9108954F925F926F924B
:102600007F928F929F92AF92BF92CF92DF92EF9282
:10261000FF920F931F9349015A010FB6F8940F923E
:10262000E0917E17F0917F1727A5223039F1E091D4
:102630007E17F0917F1743A454A465A476A4DC010F
:10264000CB0180959095A095B09584219521A621E8
:10265000B72183A794A7A5A7B6A7E0917E17F0910D
:102660007F1781E087A7C114D104E104F10431F0A0
:1026700041E0C701B60149DA0E94CA060F900FBEB9
:102680000FB6F8940F920115110569F0E0917E17CD
:10269000F0917F1783A594A5A5A5B6A5F801808321
:1026A0009183A283B383E0917E17F0917F1787A572
:1026B0008230B1F4E0917E17F0917F1783A594A545
:1026C000A5A5B6A580949094A094B0948822992250
:1026D000AA22BB2283A694A6A5A6B6A681E001C025
:1026E00080E0E0917E17F0917F1717A60F900FBE44
:1026F0001F910F91FF90EF90DF90CF90BF90AF9020
:102700009F908F907F906F905F904F9008950F9360
:102710001F93CF93DF93FC010FB6F8940F9201152E
:10272000110549F083A594A5A5A5B6A5E801888360
:102730009983AA83BB8387A592E097A72230B1F043
:1027400018F4213031F02AC02330E9F0243001F1AF
:1027500025C003A514A525A536A5402B512B622B1A
:10276000732B43A754A765A776A718C043A554A504
:1027700065A576A54F5F5F4F6F4F7F4F43A754A767
:1027800065A776A70BC043A754A765A776A706C081
:10279000823049F143A754A765A776A7813029F570
:1027A000EF018F010E5F1F4FC8010E94F5058A8D52
:1027B00090911017981710F4809310172BE0829FB8
:1027C000C0011124B8018E5A984E0E949705E091DD
:1027D0007E17F0917F179A8D828D891740F40E94A1
:1027E000CA0681E005C080E003C081E001C081E04D
:1027F0000F900FBEDF91CF911F910F910895EF922F
:10280000FF920F931F93CF93DF93FC0101151105E6
:1028100049F083A594A5A5A5B6A5E8018883998369
:10282000AA83BB8387A592E097A72230B1F018F462
:10283000213031F02AC02330E9F0243001F125C0E5
:1028400003A514A525A536A5402B512B622B732B70
:1028500043A754A765A776A718C043A554A565A5A7
:1028600076A54F5F5F4F6F4F7F4F43A754A765A774
:1028700076A70BC043A754A765A776A706C08230EA
:10288000D9F143A754A765A776A78130B9F5EF0121
:1028900080910417811117C08F010E5F1F4FC8016F
:1028A0000E94F5058A8D90911017981710F4809367
:1028B0001017EBE08E9FC0011124B8018E5A984E7C
:1028C0000E94970507C0BF01625F7F4F8DE297E1CD
:1028D0000E949705E0917E17F0917F179A8D828D67
:1028E000891770F4E114F10419F081E0E70188839D
:1028F00081E080930D1705C080E003C081E001C036
:1029000081E0DF91CF911F910F91FF90EF9008959B
:10291000009721F480917E1790917F170FB6F8945D
:102920000F92FC0127A5223019F417A681E001C0FF
:1029300080E00F900FBE0895CF92DF92EF92FF924A
:102940000F931F93FC0142835383648375839387A2
:1029500082870417150726073707C0F00C191D09D1
:102960002E093F0986859785A089B189081719071F
:102970002A073B0700F5BF016E5F7F4F80918817E4
:10298000909189170E94B80580E018C00C151D05AC
:102990002E053F0528F44C155D056E057F0568F48E
:1029A000BF016E5F7F4F80918A1790918B170E94B5
:1029B000B80580E003C081E001C081E01F910F9164
:1029C000FF90EF90DF90CF9008950FB6F8940F929C
:1029D0008091861790918717892BE9F487E997E111
:1029E0000E9482058CE897E10E94820587E997E1C1
:1029F00090938B1780938A178CE897E190938917AF
:102A00008093881740E067E08AE00E94A6089093D0
:102A10008717809386170F900FBE0895EF92FF924D
:102A20000F93D3DF8091861790918717892B89F0B8
:102A30000F2EF4E8EF2EF7E1FF2EF02D03E020E05B
:102A400030E045E550E06CEB73E083E091E0D3D8F3
:102A500001C080E00F91FF90EF9008958F929F92B8
:102A6000AF92BF92CF92DF92EF92FF920F931F939C
:102A7000CF93DF93CDB7DEB727970FB6F894DEBFBD
:102A80000FBECDBFE0918617F0918717309781F187
:102A900069832A833B834C835D839F838E83663067
:102AA000F4F45DDD823069F400E0A7019601BE0117
:102AB0006F5F7F4F80918617909187170E94D4088F
:102AC00018C000E020E030E0A901BE016F5F7F4F39
:102AD00080918617909187170E94D4080AC020E041
:102AE000A801BE016F5F7F4FCF010E948F0901C017
:102AF00080E027960FB6F894DEBF0FBECDBFDF9102
:102B0000CF911F910F91FF90EF90DF90CF90BF90EA
:102B1000AF909F908F9008952F923F924F925F9227
:102B20006F927F928F929F92AF92BF92CF92DF92DD
:102B3000EF92FF920F931F93CF93DF931C01BCD9A9
:102B40002B013C018091801790918117A0918217F1
:102B5000B0918317481659066A067B0608F053C0E1
:102B60003BC00780F085E02D80809180A280B380FB
:102B7000C085D1858E010E5F1F4FC8010E94F505EB
:102B8000EC89FD89CE0119958F8982FF25C08E853C
:102B90009F85A889B989880D991DAA1DBB1D881616
:102BA0009906AA06BB0670F48A839B83AC83BD8317
:102BB000DB87CA87B80180918A1790918B170E9492
:102BC000B8050AC0C12CD12C760100E010E0A501A7
:102BD000940160E0CE0142DFE0918A17F0918B17FB
:102BE00080818111BECF8091881790918917909331
:102BF0008B1780938A17F0938917E093881781E0E9
:102C0000F101808302C0F10110824092801750923E
:102C100081176092821770928317C301B201DF910E
:102C2000CF911F910F91FF90EF90DF90CF90BF90C9
:102C3000AF909F908F907F906F905F904F903F905C
:102C40002F9008950895279A2F9A2FEF80E792E00A
:102C5000215080409040E1F700C000001F9AF5CF5E
:102C6000279A2F9A2FEF87EA91E6215080409040D3
:102C7000E1F700C000001F9AF5CFEF92FF920F938B
:102C80008091241990912519892B89F481E00E9463
:102C900074099093251980932419009741F000E05E
:102CA00020E030E0A90160E070E00E94D40840E03C
:102CB00066E18AE00E94A6089093FF188093FE18B0
:102CC0002091241930912519E12CF12C03E040ECDE
:102CD00050E064EC73E081EC93E00E94FB0D2091E6
:102CE00024193091251940EC50E06FEC73E08AE034
:102CF00094E00E94FB0D20E030E040EC50E069EDF4
:102D000073E089E094E00E94FB0D2091FE18309161
:102D1000FF1840EC50E067EE73E08AED93E00E940C
:102D2000FB0D0F91FF90EF9008950E94271F60ED1B
:102D300073E083E00E94B21ED9D0882329F087EF88
:102D400093E00C943C28089581B1816881B90E9478
:102D5000350480E00E94E12290DF85E068D060E0E9
:102D600070E081E002D46091FE187091FF1883E05A
:102D70000C947B030895D9DF8DE094E00E943C28F9
:102D800059D8FFCF33D088F09F5790F0B92F9927AB
:102D9000B751A0F0D1F0660F771F881F991F1AF066
:102DA000BA95C9F712C0B13081F03AD0B1E00895B8
:102DB00037C0672F782F8827B85F39F0B93FCCF339
:102DC000869577956795B395D9F73EF4909580955C
:102DD000709561957F4F8F4F9F4F089557FD905885
:102DE000440F551F59F05F3F71F04795880F97FBCF
:102DF000991F61F09F3F79F0879508951216130689
:102E00001406551FF2CF4695F1DF08C016161706B7
:102E10001806991FF1CF86957105610508940895EC
:102E2000E894BB2766277727CB0197F90895E6E258
:102E3000F9E12AE03EE1318320832DE03EE1338356
:102E4000228328E13EE1358324832CE13EE1378370
:102E5000268322E23EE1318720872EE23EE133875E
:102E6000228723E33EE1358724872FE33EE137873E
:102E700026872FE13EE1318B208B24E43EE1338B2A
:102E8000228B21E53EE1358B248B682FCF0139C1A0
:102E900008956530F1F4FA0180818F7390E0982FE6
:102EA00088272181822B90930902809308028281D6
:102EB000F0E48F9FC0011124FA0123812695269505
:102EC000822B909307028093060281E08093A217E1
:102ED0000895643051F080E090E49093070280936D
:102EE0000602909309028093080208950F931F939E
:102EF00009E417E120E034E244EF50E060E087E2CB
:102F00000E941B239093A4178093A31721E0892B81
:102F100009F020E0822F1F910F9108958091A3174F
:102F20009091A417009759F040E060E070E00E9493
:102F30006C23843031F41092A21780E0089582E06F
:102F4000089583E008958091A3179091A4170097A6
:102F500039F064E00E94B823853021F083E00895C1
:102F600082E0089580E0089560910802709109025E
:102F700080E090E00E94962520E030E048EC52E4AA
:102F80000E94FB2520E038EF4FE756E40C942B25F8
:102F90000895609106027091070280E090E00E941F
:102FA000962520E030E045E253E40E94FB2520E036
:102FB00038EF4FE756E40E942B2520E030E040E256
:102FC00052E40C94C4240895CF93DF9390E0FC0165
:102FD000EE0FFF1FE80FF91FEE0FFF1FEB55F84E26
:102FE000238121110AC0EF01E0912E19F0912F19D0
:102FF0006A8188819981199512C0DC01AA0FBB1FD3
:10300000ED01C80FD91FCC0FDD1FCB55D84EE09175
:103010003819F09139196A81888199811995DF9160
:10302000CF910895CF93DF9390E0FC01EE0FFF1F47
:10303000E80FF91FEE0FFF1FEB55F84E238121110A
:103040000AC0EF01E0913819F09139196A8188813D
:103050009981199512C0DC01AA0FBB1FED01C80FA1
:10306000D91FCC0FDD1FCB55D84EE0912E19F09112
:103070002F196A81888199811995DF91CF910895DF
:103080000F2EF6E2CF2EF9E1DF2EF02D04E0C5EA97
:10309000D7E110E08C81813069F0E8F0823039F5B9
:1030A000D6011C96ED91FC911D976A8188819981CA
:1030B00019951DC08D818F5F8A3010F48D8317C0E4
:1030C0001D82D6011C96ED91FC911D976A81888125
:1030D000998119950CC08D81882331F0812FA2DF51
:1030E0008D8181508D8303C00C83812F6DDF1F5F25
:1030F0002696143079F665E070E080E090E099D88B
:10310000C6CFCF92DF92EF92FF920F931F93CF9390
:10311000DF93062F0F2EF6E2EF2EF9E1FF2EF02DB2
:10312000D7011896ED91FC91199766E087E290E03F
:103130001995C5EAD7E10F2EF8E2CF2ED12CF02D4C
:10314000D982C88286E08A831B8214E01C8380E0D7
:103150003BDFD7011896ED91FC91199767E087E264
:1031600090E01995DF82CE8287E0888719861A87DA
:1031700081E02ADFD7011896ED91FC91199765E05F
:1031800083E390E01995D7011896ED91FC9119977A
:1031900061E084E390E0199584E390E09D878C875B
:1031A00085E08E871F86188B82E00EDFD701189688
:1031B000ED91FC91199764E081E091E01995D701B8
:1031C0001896ED91FC91199761E082E091E01995D4
:1031D00082E091E09B8B8A8B1C8B1D8A1E8B83E087
:1031E000F3DEE12CF12C20E030E040EC50E06FE128
:1031F00074E080E498E10E94FB0DDF91CF911F9174
:103200000F91FF90EF90DF90CF9008950F931F9351
:10321000CF93DF93C82FD0E08E01000F111FD8018C
:10322000AC0FBD1FAA0FBB1FAB55B84EE0913219B2
:10323000F091331912966C9112978D919C9119957A
:10324000C00FD11FCC0FDD1FCB55D84E81E08C8332
:10325000DF91CF911F910F9108950F931F93CF93FB
:10326000DF93C82FD0E08E01000F111FD801AC0FE3
:10327000BD1FAA0FBB1FAB55B84EE0913219F0919C
:10328000331912966C9112978D919C911995C00FDC
:10329000D11FCC0FDD1FCB55D84E82E08C83DF9140
:1032A000CF911F910F910895282F30E0F901EE0F73
:1032B000FF1FE20FF31FEE0FFF1FEB55F84E93E0D9
:1032C0009483B0CE0895282F30E0F901EE0FFF1F50
:1032D000E20FF31FEE0FFF1FEB55F84E94E09483BF
:1032E00073CE089590E0FC01EE0FFF1FDF01A80FE1
:1032F000B91FAA0FBB1FAB55B84E24E015962C93EF
:103300001597FD011482089590E0FC01EE0FFF1F58
:10331000DF01A80FB91FAA0FBB1FAB55B84E21E0A4
:1033200015962C931597FD01148208950F931F9302
:10333000CF93DF931F921F92CDB7DEB78C01198216
:103340002DC0E0912118EC3250F481E08E0F809373
:103350002118F0E0ED5AF74E8A81808302C0109266
:1033600021188A818A30D1F44091211850E0FA0165
:10337000EF5AF74E1082415051099E012F5F3F4F87
:1033800063E578E180912418909125180E94780CCB
:10339000898181110E94CA0610922118BE016E5FB8
:1033A0007F4FC8017CD6882361F20F900F90DF9188
:1033B000CF911F910F9108950F931F93CF93DF9398
:1033C0008C01EB0180912418909125180E94900B9C
:1033D000B8018DEB97E10E940A28209779F0EDEB78
:1033E000F7E101900020E9F7319780E290E09183C6
:1033F0008083BE018DEB97E10E94FF27EDEBF7E1A3
:10340000DF010D900020E9F711978DE09AE0119609
:103410009C938E9312961C9201900020E9F73197AD
:10342000ED5BF741AE2F8DEB97E1AC016A2F8091F8
:10343000261890912718E3D5811111C008E215E0F4
:1034400020E030E04DE250E06DEA78E18091241810
:10345000909125180E94BA0C8DEA98E102C080E094
:1034600090E0DF91CF911F910F9108952F923F929D
:103470004F925F926F927F928F929F92AF92BF9284
:10348000CF92DF92EF92FF920F931F93CF93DF9330
:103490005C01FC0101900020E9F731976F01C81A27
:1034A000D90A5C2C0F2EF0EC8F2EF6E09F2EF02D1B
:1034B000E12CF12C4C2C3701F40101811281E8013F
:1034C00009900020E9F72197C01BD10B3C2EF9E0B1
:1034D000CF16D10458F0F4012080FEE02F1206C070
:1034E000B801C5010E94DA27892B09F5442D35144E
:1034F00008F44C2F50E0B801C5010E941128892B17
:1035000049F4F301EE0FFF1FE60DF71DE054F94FEC
:1035100020800DC08FEFE81AF80AE3E08E0E911CB0
:10352000F1E1EF16F10439F66894222424F8822D93
:10353000DF91CF911F910F91FF90EF90DF90CF908F
:10354000BF90AF909F908F907F906F905F904F90C3
:103550003F902F90089530DF89CF089580912418EF
:10356000909125180C94900B08958F929F92AF9292
:10357000CF92EF920F931F93CF93C82F8B0141E00F
:1035800060E070E088EC90E00E94640B9093251856
:103590008093241810932318009322180F2EF6E915
:1035A0008F2EF9E19F2EF02D6894AA24A6F8689436
:1035B000CC24C6F8E12C00E023E040E051EE60E0CE
:1035C00070E08C2F60D49093271880932618E09198
:1035D0002E19F0912F1964E087E091E01995CF91B1
:1035E0001F910F91EF90CF90AF909F908F90089583
:1035F000882349F0E0913819F091391964E088E0A6
:1036000091E019950895E0912E19F0912F1964E039
:1036100088E091E01995089560E070E086E494E018
:10362000CBDEEDEAF8E101900020E9F73197ED5AA1
:10363000F84181E0759708F080E00895CF93DF931B
:10364000EC0160E070E087E594E0B6DEEDEAF8E1D9
:1036500001900020E9F7EE5BF84139F46DEA78E17A
:10366000CE010E940A2880E002C0188281E0DF912A
:10367000CF910895FC0101900020E9F79F012151AD
:1036800031092817390729F4BC0185E894E063CF94
:10369000089589E00895FC0101900020E9F79F0159
:1036A000215131092817390729F4BC0184E994E034
:1036B00052CF089589E00895FC0101900020E9F7B8
:1036C0009F01215231092817390729F4BC0183EAE7
:1036D00094E041CF089589E0089560E070E082EEC3
:1036E00094E039CF08950F931F93E82FF0E0EE0F89
:1036F000FF1FE454F94F608171818BEE94E02BDF62
:10370000811114C008E215E020E030E04DE250E005
:103710006DEA78E180912418909125180E94BA0CE6
:10372000882321F08DEA98E1A1DE03C08DEA98E1BB
:103730009DDE1F910F9108950F931F93CF93DF93F9
:103740001F92CDB7DEB7DB0111969C911197953191
:1037500008F0B4C0992381F160E070E0272F30E0D9
:10376000462F50E0FD01E40FF51F928192959F7066
:103770009A3010F0995C01C0905DF901E25CF74E5F
:1037800090832F5F3F4FFD01E40FF51F92819F70E3
:10379000492F50E04A30510514F0995C01C0905D0A
:1037A000F901E25CF74E90837E5F6F5F11969C910A
:1037B0001197691798F201C070E0E72FF0E0E25C22
:1037C000F74E10824C91811103C084EF94E002C047
:1037D00086EF94E02EE338E13F932F931F924F93AF
:1037E0009F938F938AEF94E09F938F9380E898E163
:1037F0009F938F930E946C2860E070E080E898E1CE
:10380000AADE0FB6F894DEBF0FBECDBF811159C03E
:1038100008E215E020E030E04DE250E06DEA78E1AA
:1038200080912418909125180E94BA0C882309F4DD
:1038300047C08DEA98E11ADE8E3009F042C087E079
:1038400089838091221890912318892BA9F1BE01B8
:103850006F5F7F4F8DEA98E168D180932818E981E6
:10386000F0E0E355F74EDF010D900020E9F71197E6
:10387000AE1BBF0BAA2391F0BB27CD0101979C0182
:1038800012F42F5F3F4F3595279520932918AF01EC
:103890004F5F5F4F64E18AE298E173D101E010E08D
:1038A00020E030E046E150E068E278E180912218C3
:1038B000909123180E94CF0B8EE003C084E101C0D9
:1038C00080E00F90DF91CF911F910F91089581308B
:1038D00019F06AE075E002C063EE75E08EE095E0F5
:1038E0003ACE08959F938F938FE395E09F938F93A4
:1038F00080E898E19F938F930E946C2860E070E0CD
:1039000080E898E128DE0F900F900F900F900F90B5
:103910000F9008952F923F924F925F926F927F92F5
:103920008F929F92AF92BF92CF92DF92EF92FF92CF
:103930000F931F93CF93DF93CDB7DEB7A0970FB64A
:10394000F894DEBF0FBECDBF6CE675E088E795E06A
:1039500033DD8CDD8111A3C080E2E1E2F2E0DE0123
:10396000119601900D928A95E1F79E012F5F3F4FCE
:103970006901E12CF12C0F2EF4E8AF2EF5E0BF2EFB
:10398000F02D00E818E10F2EFDE94F2EF5E05F2E37
:10399000F02D0F2EF4EB8F2EF5E09F2EF02D0F2E35
:1039A000FEEC6F2EF5E07F2EF02D3E2C2F2CFF929B
:1039B000EF92BF92AF921F930F930E946C2860E02A
:1039C00070E0C801F9DC52DD0F900F900F900F905E
:1039D0000F900F90811163C032E03E15E8F4F601BC
:1039E00083818F9382818F9381818F9380818F9345
:1039F000FF92EF925F924F921F930F930E946C2859
:103A000060E070E0C801D8DC31DD0FB6F894DEBFAD
:103A10000FBECDBF811143C02F923F929F928F92D4
:103A20001F930F930E946C2860E070E0C801C4DC13
:103A30001DDD0F900F900F900F900F900F90811140
:103A40002EC02F923F927F926F921F930F930E94EE
:103A50006C2860E070E0C801AFDC08DD0F900F90CB
:103A60000F900F900F900F90811119C03FEFE31A44
:103A7000F30A84E0C80ED11C98E0E916F10409F0BD
:103A800094CF60E070E086EE95E096DCEFDC81118B
:103A900006C060E070E087EF95E08EDCE7DCA09682
:103AA0000FB6F894DEBF0FBECDBFDF91CF911F914F
:103AB0000F91FF90EF90DF90CF90BF90AF909F90CD
:103AC0008F907F906F905F904F903F902F900895D0
:103AD000EF92FF920F931F93CF93DF93EC018B0133
:103AE0007A0181E0F4DE81110DC0CE01D4DD8111B7
:103AF00009C0C801E1DD811105C0C701BBDD81112D
:103B000001C0EBDDDF91CF911F910F91FF90EF90FE
:103B1000089590E0FC01EE0FFF1F8E0F9F1FFC0128
:103B2000E054F94F818192810895DC01009729F1D9
:103B3000FB012081FC0101900020E9F73197E81B8F
:103B4000F90B822F90E0E817F907C8F080E008C071
:103B5000880F382F330F330F830F8053890F2F5F58
:103B6000FD01E20FF11D908130ED390F3A3010F474
:103B70009111EECFFB012083089580E0089580E04D
:103B800008950F931F93CF93DF93DC01EA012097F1
:103B9000E1F1FA0101900020E9F73197E41BF50B00
:103BA000329710F532C08D01040F151F30E0AE01C1
:103BB000420F531FFA019081913428F09753592FE7
:103BC0005295507F03C0592F5295507F2C0F3D1FA7
:103BD000F9019181913410F0975301C09053950FE2
:103BE000F80190838F5F01C080E0282F220F482FBB
:103BF00050E0FE0101900020E9F73197EC1BFD0B2E
:103C00004E175F0710F48613CECFDF91CF911F912F
:103C10000F910895FC0180810895FC01208181E0CD
:103C200090E002C0880F991F6A95E2F782230895F9
:103C3000FC01808186230895FC0160830895FC01C6
:103C400010820895FC01408121E030E002C0220F83
:103C5000331F6A95E2F7242B20830895FC0120810D
:103C6000622B60830895FC01408121E030E002C0B6
:103C7000220F331F6A95E2F7242720830895FC0161
:103C80002081622760830895FC01908121E030E06B
:103C900002C0220F331F6A95E2F720952923208363
:103CA0000895FC0190816095692360830895809157
:103CB000DD18860F8093DD189091E018913079F02F
:103CC00028F09230A9F0933019F108956F3F09F070
:103CD00048C01092DD1881E08093E018089566389E
:103CE00009F03FC01092DC1882E08093E01808953C
:103CF000E091DC1881E08E0F8093DC18F0E0E65252
:103D0000F74E6083823069F583E08093E018089570
:103D10009091DC1821E0290F2093DC18963009F5EA
:103D200081110EC0EAEDF8E1808190E0982F88279C
:103D30002181820F911D9093E2188093E11804C0B5
:103D40001092E2181092E1181092E018E091DE183B
:103D5000F091DF18309729F08091E1189091E218E6
:103D6000199508958F929F92AF92CF92EF920F93F1
:103D7000CF93DF93EB010F2EF7E58F2EFEE19F2E01
:103D8000F02D6894AA24A4F86894CC24C4F8E12CFB
:103D900000E023E040E855E260E070E074D09093EA
:103DA000E4188093E318D093DF18C093DE18DF91F6
:103DB000CF910F91EF90CF90AF909F908F900895FB
:103DC000CF93DF93CDB7DEB729970FB6F894DEBF58
:103DD0000FBECDBF89E0E1E4F2E09E012F5F3F4FCF
:103DE000D90101900D928A95E1F71092E218109294
:103DF000E1188091E3189091E418009731F0422F78
:103E0000532F69E0FCD080E001C082E029960FB614
:103E1000F894DEBF0FBECDBFDF91CF910895653618
:103E20000CF064E66C390CF46CE996EF6902B001B1
:103E300011246854744F811105C070932901609357
:103E40002801089570932B0160932A010895EAE0F8
:103E5000F1E08081886180838FE39CE99093270162
:103E60008093260160E080E0DADF60E081E0D7DF68
:103E7000E0E2F1E08081826A8083E1E2F1E080812A
:103E80008A61808308952F923F924F925F926F9242
:103E90007F928F929F92AF92CF92EF92FF920F9369
:103EA0001F93CF93DF93CDB7DEB7F82E2A013B01E6
:103EB00088E090E04AD78C018F2D90E0880F991F01
:103EC000FC01EB51F74E11830083FC01E65FFD4FCF
:103ED00080819181D8018D939C936C2D70E084E05A
:103EE00090E019D71C0161E070E086E090E013D704
:103EF0007C014C2DB1012CD5F801F582E4826A2DAC
:103F000070E084E090E007D71C0161E070E086E09B
:103F100090E001D77C014A2DB1011AD5D801139642
:103F2000FC92EE92129717969C928E921697FFB67D
:103F3000F894ED91FC91119736978081826080838F
:103F40008D909C90C301B201F1D520E030E040E0BB
:103F500051E451D69B01AC0160E074E284E79BE43C
:103F60007AD520E030E040E85FE30ED50E94C2162B
:103F7000F40132976083D801ED91FC911197359748
:103F800088E98083ED91FC91349786E08083FFBEC1
:103F9000C801DF91CF911F910F91FF90EF90CF90CB
:103FA000AF909F908F907F906F905F904F903F90D9
:103FB0002F900895CF93DF93EC01EA81FB819381E9
:103FC00082812581981B922384819817A1F0938187
:103FD00026952923A081B181A20FB11D6C939F5F0B
:103FE000258192239383E881F981359780818062CE
:103FF000808380E001C082E0DF91CF910895EF924D
:10400000FF920F931F93CF93DF937C01DC011296F5
:10401000ED91FC91139793818281981B8581982360
:104020008481891B861798F1662341F1842F952F8F
:10403000DC016150462F50E04F5F5F4F480F591F22
:10404000E701EA81FB81938182812581981B92237C
:104050008481981779F08C9193812695292360812A
:1040600071818B01020F111DE80188839F5F85819B
:10407000982393831196A417B50711F7D701ED91F3
:10408000FC91359780818062808380E001C082E06E
:10409000DF91CF911F910F91FF90EF900895DC0178
:1040A0001496ED91FC91159793818281981789F070
:1040B0009281858186958923A081B181A80FB11D48
:1040C0008C91DB018C939F5F85819823928380E0A4
:1040D000089583E008951F920F920FB60F92112456
:1040E0000BB60F922F933F934F935F936F937F93F2
:1040F0008F939F93AF93BF93CF93DF93EF93FF93F0
:10410000A091E518B091E618109711F16091C600E2
:104110001496ED91FC911597938182812581981BCE
:1041200092238481981761F0838126952823C0818A
:10413000D181C20FD11D68838F5F958189238383CD
:104140001696ED91FC911797309711F0CD011995C6
:10415000FF91EF91DF91CF91BF91AF919F918F919F
:104160007F916F915F914F913F912F910F900BBE77
:104170000F900FBE0F901F9018951F920F920FB6C1
:104180000F9211240BB60F922F938F939F93AF939F
:10419000BF93EF93FF93E091E518F091E618309705
:1041A000B9F00280F381E02D938182819817B1F0FC
:1041B00092818581282F26952923A081B181A20F84
:1041C000B11D2C919F5F892382832093C6000BC071
:1041D000E1ECF0E080818F7D808305C0E1ECF0E0D0
:1041E00080818F7D8083FF91EF91BF91AF919F91EF
:1041F0008F912F910F900BBE0F900FBE0F901F90BD
:1042000018951F920F920FB60F9211240BB60F92B2
:104210002F933F934F935F936F937F938F939F93CE
:10422000AF93BF93CF93DF93EF93FF93A091E718E2
:10423000B091E818109711F16091CE001496ED91AD
:10424000FC911597938182812581981B922384810B
:10425000981761F0838126952823C081D181C20FF0
:10426000D11D68838F5F9581892383831696ED9195
:10427000FC911797309711F0CD011995FF91EF91AF
:10428000DF91CF91BF91AF919F918F917F916F916E
:104290005F914F913F912F910F900BBE0F900FBEEA
:1042A0000F901F9018951F920F920FB60F92112426
:1042B0000BB60F922F938F939F93AF93BF93EF9370
:1042C000FF93E091E718F091E8183097B9F0028079
:1042D000F381E02D938182819817B1F092818581DD
:1042E000282F26952923A081B181A20FB11D2C91E1
:1042F0009F5F892382832093CE000BC0E9ECF0E01E
:1043000080818F7D808305C0E9ECF0E080818F7D26
:104310008083FF91EF91BF91AF919F918F912F91EA
:104320000F900BBE0F900FBE0F901F9018951F920D
:104330000F920FB60F9211240BB60F922F933F934B
:104340004F935F936F937F938F939F93AF93BF939D
:10435000CF93DF93EF93FF93A091E918B091EA1800
:10436000109711F16091D6001496ED91FC9115977C
:10437000938182812581981B92238481981761F013
:10438000838126952823C081D181C20FD11D6883E6
:104390008F5F9581892383831696ED91FC91179702
:1043A000309711F0CD011995FF91EF91DF91CF91E9
:1043B000BF91AF919F918F917F916F915F914F913D
:1043C0003F912F910F900BBE0F900FBE0F901F903B
:1043D00018951F920F920FB60F9211240BB60F92E1
:1043E0002F938F939F93AF93BF93EF93FF93E0919E
:1043F000E918F091EA183097B9F00280F381E02DC6
:10440000938182819817B1F092818581282F26951A
:104410002923A081B181A20FB11D2C919F5F892317
:1044200082832093D6000BC0E1EDF0E080818F7D88
:10443000808305C0E1EDF0E080818F7D8083FF9176
:10444000EF91BF91AF919F918F912F910F900BBEE4
:104450000F900FBE0F901F9018951F920F920FB6DE
:104460000F9211240BB60F922F933F934F935F93AC
:104470006F937F938F939F93AF93BF93CF93DF936C
:10448000EF93FF93A091EB18B091EC18109711F1F6
:10449000609136011496ED91FC911597938182817C
:1044A0002581981B92238481981761F0838126953A
:1044B0002823C081D181C20FD11D68838F5F958170
:1044C000892383831696ED91FC911797309711F00D
:1044D000CD011995FF91EF91DF91CF91BF91AF91F0
:1044E0009F918F917F916F915F914F913F912F910C
:1044F0000F900BBE0F900FBE0F901F9018951F923C
:104500000F920FB60F9211240BB60F922F938F9329
:104510009F93AF93BF93EF93FF93E091EB18F091CC
:10452000EC183097B9F00280F381E02D93818281FD
:104530009817B1F092818581282F26952923A08193
:10454000B181A20FB11D2C919F5F8923828320939B
:1045500036010BC0E1E3F1E080818F7D808305C0EF
:10456000E1E3F1E080818F7D8083FF91EF91BF9146
:10457000AF919F918F912F910F900BBE0F900FBE17
:104580000F901F901895CF93DF931F92CDB7DEB792
:10459000BE016F5F7F4F8091ED189091EE187FDD27
:1045A0008111F6CF898190E00F90DF91CF9108952E
:1045B000682F8091ED189091EE18FCDC80E090E07F
:1045C00008958F929F92AF92CF92EF920F93812C8A
:1045D000912C6894AA24A7F86894CC24C7F8E12CFD
:1045E00000E023E040E051EE60E070E04CDC9093AE
:1045F000EE188093ED18E0E4F9E182E192E0918316
:104600008083938382830F91EF90CF90AF909F90A0
:104610008F9008958091FD1881110CC08CE08093DB
:10462000B8008FEF8093BB0084E08093BC0081E0F2
:104630008093FD180895AF92BF92CF92DF92EF92D0
:10464000FF920F931F93CF93DF93A82EB62E69018D
:104650007A0184E090E079D3EC01892B61F1A882A2
:1046600081E0B81212C0C701B60120EA36E841E085
:1046700050E027D3DA01C9014097A109B109B695E5
:10468000A79597958795898311C0C701B60120E842
:104690003AE146E050E015D3DA01C9014097A1099B
:1046A000B109B695A7959795879589831B830A834A
:1046B0008C2F9D2F02C080E090E0DF91CF911F9161
:1046C0000F91FF90EF90DF90CF90BF90AF90089543
:1046D0008091BC0081700895FF920F931F93CF9338
:1046E000DF930097D1F14A30D0F5F42E8B01EC0125
:1046F000EFDF811136C08091F0189091F118C81742
:10470000D90741F087DF89818093B800D093F118F1
:10471000C093F01881E08F0D8093F2188881880F84
:104720008093F318FF2089F0F801A4EFB8E14FEF70
:104730004F0D642F70E0CB010196B801680F791F0F
:1047400081918D93E617F707D9F788EF80932002C0
:1047500085EA8093BC0084E005C086E003C087E062
:1047600001C082E0DF91CF911F910F91FF900895DA
:104770001F93CF93DF93009729F16B3028F5162F05
:10478000EC01A6DF811122C08091F0189091F11800
:10479000C817D90741F03EDF89818093B800D093D4
:1047A000F118C093F0181093F2188881880F816077
:1047B0008093F31888EF8093200285EA8093BC00F1
:1047C00085E005C086E003C087E001C082E0DF919C
:1047D000CF911F9108951F920F920FB60F9211243F
:1047E0000BB60F922F933F934F935F936F937F93EB
:1047F0008F939F93AF93BF93EF93FF93E091B90093
:104800008E2F90E0FC013897E135F10508F075C076
:104810008827E458FF4F8F4F76C21092EF18E0912F
:10482000EF188091F218E81770F481E08E0F8093F2
:10483000EF18F0E0ED50F74E80818093BB0085E8E3
:104840008093BC0072C084E98093BC008091F01812
:104850009091F118DC011296ED91FC91139730972D
:1048600009F463C020E040E050E064E019955DC0C9
:10487000E091EF1881E08E0F8093EF188091BB00DC
:10488000F0E0ED50F74E80838091B900803411F450
:104890001092EF182091EF1830E08091F21890E01C
:1048A00001972817390724F485EC8093BC003DC09C
:1048B00085E88093BC0039C08091BB00E091EF187F
:1048C000F0E0ED50F74E808384E98093BC00809146
:1048D000F0189091F118DC011296ED91FC9113976C
:1048E000309719F12091F21843EF58E165E01995DE
:1048F0001CC085EA8093BC0018C08091B9008093E9
:10490000200284E08093BC008091F0189091F1180F
:10491000DC011296ED91FC911397309731F020E075
:1049200040E050E0609120021995FF91EF91BF9116
:10493000AF919F918F917F916F915F914F913F9137
:104940002F910F900BBE0F900FBE0F901F901895D8
:10495000FC01411101C01AD3842F90E09C01215029
:10496000310982239323892B09F010D3413808F0B1
:104970000DD3128213824483440F415045837183C7
:10498000608380E090E008955058BB27AA270ED09E
:1049900021C112D130F017D120F031F49F3F11F432
:1049A0001EF407C10EF4E095E7FBFDC0E92F0E945D
:1049B000EE1678F3BA17620773078407950720F09D
:1049C00079F4A6F50C9410170EF4E0950B2EBA2F7F
:1049D000A02D0B01B90190010C01CA01A001112405
:1049E000FF27591B99F0593F50F4503E68F11A16B1
:1049F000F040A22F232F342F4427585FF3CF469542
:104A000037952795A795F0405395C9F77EF41F1663
:104A1000BA0B620B730B840BBAF09150A1F0FF0F2D
:104A2000BB1F661F771F881FC2F70EC0BA0F621F19
:104A3000731F841F48F4879577956795B795F79509
:104A40009E3F08F0B1CF9395880F08F09927EE0F9D
:104A50009795879508950DD0BDC0B5D048F0ACD0DE
:104A600038F021F45F3F21F09EC051110C941117D2
:104A7000A0C00E94EE1688F39923B9F35523A1F341
:104A8000951B550BBB27AA2762177307840738F0BD
:104A90009F5F5F4F220F331F441FAA1FA9F334D01B
:104AA0000E2E3AF0E0E831D091505040E695001CCF
:104AB000CAF72AD0FE2F28D0660F771F881FBB1F8A
:104AC000261737074807AB07B0E809F0BB0B802D66
:104AD000BF01FF2793585F4F32F09E3F510570F0A2
:104AE00062C00C9411175F3FE4F3983ED4F38695AF
:104AF00077956795B795F7959F5FC9F7880F911DD3
:104B00009695879597F90895E1E0660F771F881FBE
:104B1000BB1F621773078407BA0720F0621B730B71
:104B2000840BBA0BEE1F88F7E0950895E89409C04E
:104B300097FB3EF490958095709561957F4F8F4FD0
:104B40009F4F9923A9F0F92F96E9BB279395F695E6
:104B5000879577956795B795F111F8CFFAF4BB0F64
:104B600011F460FF1BC06F5F7F4F8F4F9F4F16C0C8
:104B7000882311F096E911C0772321F09EE8872F52
:104B8000762F05C0662371F096E8862F70E060E00E
:104B90002AF09A95660F771F881FDAF7880F969587
:104BA000879597F9089597F99F6780E870E060E02E
:104BB00008959FEF80EC089500240A9416161706B6
:104BC00018060906089500240A94121613061406FE
:104BD00005060895092E0394000C11F4882352F061
:104BE000BB0F40F4BF2B11F460FF04C06F5F7F4F19
:104BF0008F4F9F4F08950CD0EDCFDEDF28F0E3DF1D
:104C000018F0952309F0CFCFD4CF11240C941117AD
:104C10000E94EE1690F3959FC1F3950F50E0551F3B
:104C2000629FF001729FBB27F00DB11D639FAA2701
:104C3000F00DB11DAA1F649F6627B00DA11D661F50
:104C4000829F2227B00DA11D621F739FB00DA11D71
:104C5000621F839FA00D611D221F749F3327A00D2B
:104C6000611D231F849F600D211D822F762F6A2FC7
:104C700011249F57504092F0E9F088234AF0EE0F3C
:104C8000FF1FBB1F661F771F881F91505040A9F759
:104C90009E3F510578F087CF0C9411175F3FE4F3E6
:104CA000983ED4F3869577956795B795F795E795F0
:104CB0009F5FC1F7FE2B880F911D9695879597F9F9
:104CC0000895A1E21A2EAA1BBB1BFD010DC0AA1F4D
:104CD000BB1FEE1FFF1FA217B307E407F50720F065
:104CE000A21BB30BE40BF50B661F771F881F991FE0
:104CF0001A9469F760957095809590959B01AC0129
:104D0000BD01CF010895EE0FFF1F881F8BBF0790D5
:104D1000F691E02D19940F931F93CF93DF93869F05
:104D20008001879F100D969F100D1124C8010DD092
:104D3000EC01009721F0A80160E070E034D1CE01D1
:104D4000DF91CF911F910F9108950F931F93CF93F0
:104D5000DF938230910510F482E090E0E0913E19FB
:104D6000F0913F1920E030E0A0E0B0E0309719F179
:104D7000408151810281138148175907C8F0841777
:104D8000950769F4109731F012960C9312971396C9
:104D90001C9327C000933E1910933F1922C0211580
:104DA000310519F04217530718F49A01BD01EF01BC
:104DB000DF01F801DBCF21153105F9F0281B390B94
:104DC0002430310580F48A819B816115710521F0C1
:104DD000FB019383828304C090933F1980933E1913
:104DE000FE01329644C0FE01E20FF31F81939193BE
:104DF00022503109398328833AC020913C193091DF
:104E00003D19232B41F4209102023091030230938B
:104E10003D1920933C192091000230910102211587
:104E2000310541F42DB73EB740910402509105027F
:104E3000241B350BE0913C19F0913D19E217F30763
:104E4000A0F42E1B3F0B2817390778F0AC014E5FFA
:104E50005F4F2417350748F04E0F5F1F50933D19E1
:104E600040933C198193919302C0E0E0F0E0CF01C0
:104E7000DF91CF911F910F910895CF93DF9300970A
:104E800009F481C0FC01329713821282A0913E196D
:104E9000B0913F19109781F420813181820F931FC7
:104EA00020913C1930913D192817390751F5F0939D
:104EB0003D19E0933C1967C0ED0120E030E0CE17CA
:104EC000DF0740F44A815B819E0141155105F1F0F5
:104ED000EA01F5CFD383C28340815181840F951FAE
:104EE000C817D90759F488819981840F951F0296B4
:104EF000918380838A819B819383828321153105ED
:104F000029F4F0933F19E0933E193DC0E901FB837A
:104F1000EA8349915991C40FD51FEC17FD0761F43D
:104F200080819181840F951F0296E901998388837E
:104F3000828193819B838A83E0E0F0E012968D91D9
:104F40009C911397009719F0FD01DC01F7CF8D912B
:104F50009C9111979D012E5F3F4F820F931F2091CF
:104F60003C1930913D192817390769F4309729F415
:104F700010923F1910923E1902C013821282B09310
:104F80003D19A0933C19DF91CF91089581E090E005
:104F9000F8947DC3FB01DC0102C001900D924150E9
:104FA0005040D8F70895DC0101C06D934150504046
:104FB000E0F70895FB0151915523B1F0BF01DC01E9
:104FC000052E4D91442369F010D0D9F7CD01019001
:104FD000002049F04D91411108D0C9F3FB01411166
:104FE000EECF81E090E001970895402539F04032FE
:104FF00029F440294B57465E08F018940895FB01A8
:10500000DC010D900020E9F7119701900D9200202E
:10501000E1F70895FB01DC0101900D920020E1F71A
:105020000895FB01DC014150504088F08D9181349E
:105030001CF08B350CF4805E619161341CF06B3593
:105040000CF4605E861B611171F3990B0895881B47
:10505000FCCFCF93DF93CDB7DEB7AE014A5F5F4F92
:10506000FA0161917191AF018091421990914319B8
:1050700061D0DF91CF9108950F931F93CF93DF936A
:10508000E0914219F0914319238121FF1BC08C014B
:10509000D0E0C0E0F80181918F01609142197091D8
:1050A0004319DB011896ED91FC911997882331F093
:1050B0001995892B79F3DFEFCFEFECCF8AE01995C3
:1050C000892B19F08FEF9FEF02C08D2F9C2FDF915E
:1050D000CF911F910F9108950F931F93CF93DF935B
:1050E000CDB7DEB72E970FB6F894DEBF0FBECDBF9B
:1050F0000E891F8986E08C831A8309838FEF9FE7CF
:105100009E838D83AE01465E5F4F688D798DCE01A3
:10511000019610D0EF81F885E00FF11F10822E96D6
:105120000FB6F894DEBF0FBECDBFDF91CF911F91B8
:105130000F9108952F923F924F925F926F927F92BC
:105140008F929F92AF92BF92CF92DF92EF92FF9297
:105150000F931F93CF93DF93CDB7DEB72B970FB687
:10516000F894DEBF0FBECDBF6C017B018A01FC014C
:1051700017821682838181FFBFC1CE0101963C0157
:10518000F6019381F70193FD859193FF81917F0152
:10519000882309F4ADC1853239F493FD859193FFDD
:1051A00081917F01853221F4B60190E0D6D1E8CF1C
:1051B000912C212C312CFFE1F315D8F08B3279F0B2
:1051C00038F4803279F08332A1F4232D20611DC0A0
:1051D0008D3261F0803369F4232D216016C0832D58
:1051E0008260382EE32DE4603E2E2AC0F32DF86055
:1051F0001DC037FC2DC020ED280F2A3040F08E3224
:10520000B9F436FC75C1232D2064322E19C036FE48
:1052100006C08AE0989E200D1124922E11C0EAE06B
:105220002E9E200D1124222EF32DF0623F2E08C059
:105230008C3621F4832D8068382E02C0883641F4E4
:10524000F70193FD859193FF81917F018111B3CF88
:10525000982F9F7D9554933028F40C5F1F4F9FE348
:1052600099830DC0833631F0833771F0833509F0AF
:1052700055C020C0F801808189830E5F1F4F8824AC
:105280008394912C530112C02801F2E04F0E511C5F
:10529000F801A080B18036FE03C0692D70E002C025
:1052A0006FEF7FEFC5014ED14C018201F32DFF77E7
:1052B0003F2E15C0280122E0420E511CF801A080AB
:1052C000B18036FE03C0692D70E002C06FEF7FEF42
:1052D000C5012DD14C01F32DF0683F2E820133FC26
:1052E00019C0822D90E088169906A0F4B60180E2DC
:1052F00090E033D12A94F5CFF50137FC859137FE44
:1053000081915F01B60190E028D121102A9421E01B
:10531000821A91088114910479F7E1C0843611F062
:10532000893639F5F80137FE07C0608171818281C5
:1053300093810C5F1F4F08C060817181072E000CA4
:10534000880B990B0E5F1F4FF32DFF763F2E97FFB3
:1053500009C090958095709561957F4F8F4F9F4FB5
:10536000F0683F2E2AE030E0A30133D1882E861862
:1053700044C0853731F4232D2F7EB22E2AE030E051
:1053800025C0932D997FB92E8F36C1F018F488353A
:1053900079F0AEC0803719F0883721F0A9C0E92F25
:1053A000E061BE2EB4FE0DC0FB2DF460BF2E09C01F
:1053B00034FE0AC0292F2660B22E06C028E030E055
:1053C00005C020E130E002C020E132E0F801B7FE84
:1053D00007C060817181828193810C5F1F4F06C07D
:1053E0006081718180E090E00E5F1F4FA301F1D0DA
:1053F000882E8618FB2DFF773F2E36FE0DC0232DFD
:105400002E7FA22E891458F434FE0BC032FC09C042
:10541000832D8E7EA82E05C0B82CA32C03C0B82CDB
:1054200001C0B92CA4FE0FC0FE01E80DF11D808162
:10543000803321F49A2D997EA92E09C0A2FE06C0C0
:10544000B394B39404C08A2D867809F0B394A3FC76
:1054500010C0A0FE06C0B21480F4280C922C9B1839
:105460000DC0B21458F4B60180E290E076D0B39447
:10547000F8CFB21418F42B1802C0982C212CA4FEDB
:105480000FC0B60180E390E068D0A2FE16C0A1FC78
:1054900003C088E790E002C088E590E0B6010CC048
:1054A0008A2D867851F0A1FE02C08BE201C080E215
:1054B000A7FC8DE2B60190E050D0891430F4B6011B
:1054C00080E390E04AD09A94F8CF8A94F301E80DF3
:1054D000F11D8081B60190E040D08110F6CF2220EE
:1054E00009F44ECEB60180E290E037D02A94F7CF8F
:1054F000F6018681978102C08FEF9FEF2B960FB642
:10550000F894DEBF0FBECDBFDF91CF911F910F91F9
:10551000FF90EF90DF90CF90BF90AF909F908F90D3
:105520007F906F905F904F903F902F900895FC0177
:105530000590615070400110D8F7809590958E0FBE
:105540009F1F0895FC016150704001900110D8F731
:10555000809590958E0F9F1F08950F931F93CF9363
:10556000DF93FB01238121FD03C08FEF9FEF2CC050
:1055700022FF16C046815781248135814217530787
:1055800044F4A081B1819D012F5F3F4F318320837F
:105590008C93268137812F5F3F4F3783268314C03A
:1055A0008B01EC01FB010084F185E02D1995892B1D
:1055B000E1F6D80116968D919C9117970196179652
:1055C0009C938E931697CE01DF91CF911F910F91EF
:1055D0000895FA01AA27283051F1203181F1E89489
:1055E0006F936E7F6E5F7F4F8F4F9F4FAF4FB1E0D6
:1055F0003ED0B4E03CD0670F781F891F9A1FA11DD1
:10560000680F791F8A1F911DA11D6A0F711D811DD1
:10561000911DA11D20D009F468943F912AE0269F96
:1056200011243019305D3193DEF6CF010895462FF5
:105630004770405D4193B3E00FD0C9F7F6CF462FD6
:105640004F70405D4A3318F0495D31FD405241933F
:1056500002D0A9F7EACFB4E0A695979587957795FC
:105660006795BA95C9F700976105710508959B0183
:10567000AC010A2E06945795479537952795BA950C
:10568000C9F7620F731F841F951FA01D0895F8941A
:02569000FFCF4A
:1056920000004619200000400040C600CE00D6009F
:1056A20036010000000300000000D822C3220000DF
:1056B200F8A027BE33E034C1332042C43360E5AEE4
:1056C20033A0F2B133E0FFB433200DB833601ABB1C
:1056D20033FF0186000000000079FF0179A000007D
:1056E2000000E6FF0179000000000086FF0187004C
:1056F2000000000078FF0188000000000000466101
:1057020063746F72795265736574203E25733C0A27
:1057120000436F6E66696775726520746F20455528
:10572200383638203E25733C0A00476574204857B6
:10573200455549203E25733C3A2025730A0053659E
:1057420074204465764555493A202573203E2573D9
:105752003C0A003930363834383830394630344330
:105762003830303734444430333243314341444497
:1057720046383400323042343944413037454341AF
:105782003033353500536574204F5441412049640C
:10579200656E74697479206170704555493A257354
:1057A200206170704B45593A2573206465764555E2
:1057B200493A2573203E25733C0A005361766520E1
:1057C2006D6163203E25733C0A0053657420416479
:1057D20061707469766520446174612052617465F8
:1057E2003A204F4E203E25733C0A005365742052E6
:1057F200656365697665722044656C61793A202536
:1058020064206D73203E25733C0A004A6F696E2046
:105812004E6574776F726B2054726965734C65665E
:10582200743A2564203E25733C0A0055706C6F6102
:1058320064204D657373616765203E25733C0A00E1
:105842004C5248616E640049444C4500546D7220CC
:1058520053766300434F322073656E736F72005448
:10586200482073656E736F720052432053657276DF
:105872006F207461736B00436F6E74726F6C6C6532
:1058820072207461736B00647269766572206E6F48
:10589200742063726561746564204F4B0050726FAF
:1058A2006772616D205374617274656421210048CE
:1058B200414C5F4C45440073797320726573657483
:1058C200006D6163207061757365006D61632072A4
:1058D2006573756D650073797320666163746F72A9
:1058E2007952455345540073797320676574206873
:1058F20077657569006D6163206765742067776EEF
:1059020062006D616320736574206C696E6B6368FD
:105912006B202564006D6163207365742064657675
:10592200657569006D6163207365742061707065CF
:105932007569006D616320736574206170706B65B9
:1059420079006D616320736574206E776B736B658C
:1059520079006D61632073657420617070736B658B
:1059620079006D6163207365742064657661646497
:1059720072006D61632073617665006D6163206AF8
:105982006F696E00756E636E66006D616320747878
:10599200202573202564202573006F6666006D61E3
:1059A200632073657420616472006D6163206765B2
:1059B2007420616472006D61632073657420647287
:1059C200202564006D616320676574206472006D38
:1059D20061632073657420727864656C617931202B
:1059E2002564006D616320736574206172202573E4
:1059F200006D616320676574206172003320383660
:105A020039353235303030006D6163207365742072
:105A1200727832006D61632073657420636820645C
:105A22006379636C6520256420373939006D6163C1
:105A32002073657420636820667265712025642076
:105A4200256C75006D616320736574206368206442
:105A52007272616E676520256420302037006D61A7
:105A62006320736574206368207374617475732096
:105A72002564206F6E006D616320736574207077FA
:105A8200726964782031006D6163207365742072DD
:105A92006574782037006F74616100616270004B39
:105AA2004559535F4E4F545F494E4954004E4F5F24
:105AB200465245455F43480053494C454E540042C7
:105AC200555359004D41435F50415553454400449D
:105AD200454E4945440041434345505445440049DD
